{"contracts/p2pCollateral.sol":{"CollateralManager":{"abi":[{"inputs":[],"stateMutability":"nonpayable","type":"constructor"},{"inputs":[],"name":"CollateralNotActive","type":"error"},{"inputs":[],"name":"InsufficientCollateral","type":"error"},{"inputs":[],"name":"InvalidParameters","type":"error"},{"inputs":[],"name":"InvalidPriceFeed","type":"error"},{"inputs":[],"name":"LiquidationFailed","type":"error"},{"inputs":[{"internalType":"address","name":"owner","type":"address"}],"name":"OwnableInvalidOwner","type":"error"},{"inputs":[{"internalType":"address","name":"account","type":"address"}],"name":"OwnableUnauthorizedAccount","type":"error"},{"inputs":[],"name":"ReentrancyGuardReentrantCall","type":"error"},{"inputs":[],"name":"StalePrice","type":"error"},{"inputs":[],"name":"TransferFailed","type":"error"},{"inputs":[],"name":"UnauthorizedAccess","type":"error"},{"anonymous":false,"inputs":[{"indexed":true,"internalType":"uint256","name":"loanId","type":"uint256"},{"indexed":false,"internalType":"address","name":"token","type":"address"},{"indexed":false,"internalType":"uint256","name":"amount","type":"uint256"}],"name":"CollateralDeposited","type":"event"},{"anonymous":false,"inputs":[{"indexed":true,"internalType":"uint256","name":"loanId","type":"uint256"},{"indexed":false,"internalType":"address","name":"liquidator","type":"address"},{"indexed":false,"internalType":"uint256","name":"amount","type":"uint256"}],"name":"CollateralLiquidated","type":"event"},{"anonymous":false,"inputs":[{"indexed":true,"internalType":"uint256","name":"loanId","type":"uint256"},{"indexed":false,"internalType":"address","name":"borrower","type":"address"},{"indexed":false,"internalType":"uint256","name":"amount","type":"uint256"}],"name":"CollateralReleased","type":"event"},{"anonymous":false,"inputs":[{"indexed":true,"internalType":"address","name":"previousOwner","type":"address"},{"indexed":true,"internalType":"address","name":"newOwner","type":"address"}],"name":"OwnershipTransferred","type":"event"},{"anonymous":false,"inputs":[{"indexed":true,"internalType":"address","name":"token","type":"address"},{"indexed":false,"internalType":"uint256","name":"price","type":"uint256"}],"name":"PriceUpdated","type":"event"},{"anonymous":false,"inputs":[{"indexed":true,"internalType":"uint256","name":"loanId","type":"uint256"},{"indexed":false,"internalType":"uint256","name":"requiredAmount","type":"uint256"}],"name":"TopUpRequired","type":"event"},{"inputs":[{"internalType":"uint256","name":"loanId","type":"uint256"},{"internalType":"uint256","name":"loanAmount","type":"uint256"}],"name":"checkCollateralization","outputs":[{"internalType":"bool","name":"","type":"bool"}],"stateMutability":"nonpayable","type":"function"},{"inputs":[{"internalType":"uint256","name":"","type":"uint256"}],"name":"collaterals","outputs":[{"internalType":"address","name":"token","type":"address"},{"internalType":"uint256","name":"amount","type":"uint256"},{"internalType":"address","name":"borrower","type":"address"},{"internalType":"uint256","name":"lastPrice","type":"uint256"},{"internalType":"bool","name":"isActive","type":"bool"},{"internalType":"bool","name":"requiresTopUp","type":"bool"}],"stateMutability":"view","type":"function"},{"inputs":[{"internalType":"uint256","name":"loanId","type":"uint256"}],"name":"getCollateralInfo","outputs":[{"components":[{"internalType":"address","name":"token","type":"address"},{"internalType":"uint256","name":"amount","type":"uint256"},{"internalType":"address","name":"borrower","type":"address"},{"internalType":"uint256","name":"lastPrice","type":"uint256"},{"internalType":"bool","name":"isActive","type":"bool"},{"internalType":"bool","name":"requiresTopUp","type":"bool"}],"internalType":"struct CollateralManager.CollateralInfo","name":"","type":"tuple"}],"stateMutability":"view","type":"function"},{"inputs":[{"internalType":"uint256","name":"loanId","type":"uint256"}],"name":"getCollateralValue","outputs":[{"internalType":"uint256","name":"","type":"uint256"}],"stateMutability":"view","type":"function"},{"inputs":[{"internalType":"uint256","name":"loanId","type":"uint256"},{"internalType":"address","name":"borrower","type":"address"},{"internalType":"address","name":"token","type":"address"},{"internalType":"uint256","name":"amount","type":"uint256"}],"name":"initializeLoan","outputs":[],"stateMutability":"nonpayable","type":"function"},{"inputs":[{"internalType":"uint256","name":"loanId","type":"uint256"}],"name":"isCollateralActive","outputs":[{"internalType":"bool","name":"","type":"bool"}],"stateMutability":"view","type":"function"},{"inputs":[{"internalType":"uint256","name":"loanId","type":"uint256"},{"internalType":"uint256","name":"loanAmount","type":"uint256"}],"name":"liquidateCollateral","outputs":[],"stateMutability":"nonpayable","type":"function"},{"inputs":[{"internalType":"uint256","name":"","type":"uint256"}],"name":"liquidatedLoans","outputs":[{"internalType":"bool","name":"","type":"bool"}],"stateMutability":"view","type":"function"},{"inputs":[],"name":"marketplace","outputs":[{"internalType":"address","name":"","type":"address"}],"stateMutability":"view","type":"function"},{"inputs":[],"name":"owner","outputs":[{"internalType":"address","name":"","type":"address"}],"stateMutability":"view","type":"function"},{"inputs":[{"internalType":"address","name":"","type":"address"}],"name":"priceFeeds","outputs":[{"internalType":"contract AggregatorV3Interface","name":"feed","type":"address"},{"internalType":"uint256","name":"lastUpdate","type":"uint256"},{"internalType":"uint256","name":"price","type":"uint256"},{"internalType":"bool","name":"isActive","type":"bool"}],"stateMutability":"view","type":"function"},{"inputs":[{"internalType":"uint256","name":"loanId","type":"uint256"},{"internalType":"address","name":"borrower","type":"address"}],"name":"releaseLoanCollateral","outputs":[],"stateMutability":"nonpayable","type":"function"},{"inputs":[],"name":"renounceOwnership","outputs":[],"stateMutability":"nonpayable","type":"function"},{"inputs":[{"internalType":"address","name":"_marketplace","type":"address"}],"name":"setMarketplace","outputs":[],"stateMutability":"nonpayable","type":"function"},{"inputs":[{"internalType":"address","name":"token","type":"address"},{"internalType":"address","name":"priceFeed","type":"address"},{"internalType":"uint8","name":"decimals","type":"uint8"}],"name":"setTokenPriceFeed","outputs":[],"stateMutability":"nonpayable","type":"function"},{"inputs":[{"internalType":"address","name":"","type":"address"}],"name":"tokenDecimals","outputs":[{"internalType":"uint256","name":"","type":"uint256"}],"stateMutability":"view","type":"function"},{"inputs":[{"internalType":"uint256","name":"loanId","type":"uint256"},{"internalType":"uint256","name":"amount","type":"uint256"}],"name":"topUpCollateral","outputs":[],"stateMutability":"nonpayable","type":"function"},{"inputs":[{"internalType":"address","name":"newOwner","type":"address"}],"name":"transferOwnership","outputs":[],"stateMutability":"nonpayable","type":"function"},{"inputs":[{"internalType":"address","name":"token","type":"address"}],"name":"updatePrice","outputs":[],"stateMutability":"nonpayable","type":"function"},{"inputs":[{"internalType":"address","name":"","type":"address"}],"name":"whitelistedTokens","outputs":[{"internalType":"bool","name":"","type":"bool"}],"stateMutability":"view","type":"function"}],"evm":{"bytecode":{"linkReferences":{},"object":"608060405234801561001057600080fd5b50336001600081905550600073ffffffffffffffffffffffffffffffffffffffff168173ffffffffffffffffffffffffffffffffffffffff160361008c5760006040517f1e4fbdf700000000000000000000000000000000000000000000000000000000815260040161008391906101a8565b60405180910390fd5b61009b816100a160201b60201c565b506101c3565b6000600160009054906101000a900473ffffffffffffffffffffffffffffffffffffffff16905081600160006101000a81548173ffffffffffffffffffffffffffffffffffffffff021916908373ffffffffffffffffffffffffffffffffffffffff1602179055508173ffffffffffffffffffffffffffffffffffffffff168173ffffffffffffffffffffffffffffffffffffffff167f8be0079c531659141344cd1fd0a4f28419497f9722a3daafe3b4186f6b6457e060405160405180910390a35050565b600073ffffffffffffffffffffffffffffffffffffffff82169050919050565b600061019282610167565b9050919050565b6101a281610187565b82525050565b60006020820190506101bd6000830184610199565b92915050565b61271d806101d26000396000f3fe608060405234801561001057600080fd5b506004361061012c5760003560e01c8063934b5d13116100ad578063a98c7f5f11610071578063a98c7f5f14610359578063abc8c7af14610389578063daf9c210146103a7578063e563abb5146103d7578063f2fde38b146103f35761012c565b8063934b5d131461028e57806396e85ced146102be5780639dcb511a146102da5780639e7414291461030d578063a61f31a41461033d5761012c565b8063715018a6116100f4578063715018a6146101ea57806373ad6c2d146101f457806382fee08f146102105780638da5cb5b146102405780638ee573ac1461025e5761012c565b80630f257d8e146101315780631c01aaab1461014d57806324c1173b1461017d578063499dd056146101b25780636c4c0b1f146101ce575b600080fd5b61014b60048036038101906101469190611df2565b61040f565b005b61016760048036038101906101629190611e32565b610679565b6040516101749190611e7a565b60405180910390f35b61019760048036038101906101929190611e32565b610699565b6040516101a996959493929190611ee5565b60405180910390f35b6101cc60048036038101906101c79190611fab565b61072f565b005b6101e860048036038101906101e39190611ffe565b610971565b005b6101f2610d5d565b005b61020e60048036038101906102099190612065565b610d71565b005b61022a60048036038101906102259190611e32565b610e23565b6040516102379190612092565b60405180910390f35b610248610faa565b60405161025591906120ad565b60405180910390f35b61027860048036038101906102739190612065565b610fd4565b6040516102859190612092565b60405180910390f35b6102a860048036038101906102a39190611e32565b610fec565b6040516102b59190612170565b60405180910390f35b6102d860048036038101906102d39190612065565b61110f565b005b6102f460048036038101906102ef9190612065565b61131e565b60405161030494939291906121ea565b60405180910390f35b61032760048036038101906103229190611e32565b61137b565b6040516103349190611e7a565b60405180910390f35b61035760048036038101906103529190611df2565b6113a8565b005b610373600480360381019061036e9190611df2565b6116ca565b6040516103809190611e7a565b60405180910390f35b610391611819565b60405161039e91906120ad565b60405180910390f35b6103c160048036038101906103bc9190612065565b61183f565b6040516103ce9190611e7a565b60405180910390f35b6103f160048036038101906103ec919061222f565b61185f565b005b61040d60048036038101906104089190612065565b611b26565b005b610417611bac565b60006003600084815260200190815260200160002090508060040160009054906101000a900460ff16610476576040517fb4da1e3700000000000000000000000000000000000000000000000000000000815260040160405180910390fd5b8060020160009054906101000a900473ffffffffffffffffffffffffffffffffffffffff1673ffffffffffffffffffffffffffffffffffffffff163373ffffffffffffffffffffffffffffffffffffffff16146104ff576040517f344fd58600000000000000000000000000000000000000000000000000000000815260040160405180910390fd5b81816001015461050f919061229e565b816001018190555060008160040160016101000a81548160ff0219169083151502179055508060000160009054906101000a900473ffffffffffffffffffffffffffffffffffffffff1673ffffffffffffffffffffffffffffffffffffffff166323b872dd3330856040518463ffffffff1660e01b8152600401610595939291906122d2565b6020604051808303816000875af11580156105b4573d6000803e3d6000fd5b505050506040513d601f19601f820116820180604052508101906105d89190612335565b61060e576040517f90b8ec1800000000000000000000000000000000000000000000000000000000815260040160405180910390fd5b827feec2f3feb835e2f2fd44281034b04700a1ddda63dd402949d470a25a7c40b36c8260000160009054906101000a900473ffffffffffffffffffffffffffffffffffffffff1684604051610664929190612362565b60405180910390a250610675611bf2565b5050565b60056020528060005260406000206000915054906101000a900460ff1681565b60036020528060005260406000206000915090508060000160009054906101000a900473ffffffffffffffffffffffffffffffffffffffff16908060010154908060020160009054906101000a900473ffffffffffffffffffffffffffffffffffffffff16908060030154908060040160009054906101000a900460ff16908060040160019054906101000a900460ff16905086565b610737611bfc565b600073ffffffffffffffffffffffffffffffffffffffff168373ffffffffffffffffffffffffffffffffffffffff16148061079e5750600073ffffffffffffffffffffffffffffffffffffffff168273ffffffffffffffffffffffffffffffffffffffff16145b156107d5576040517fe523909000000000000000000000000000000000000000000000000000000000815260040160405180910390fd5b6001600660008573ffffffffffffffffffffffffffffffffffffffff1673ffffffffffffffffffffffffffffffffffffffff16815260200190815260200160002060006101000a81548160ff0219169083151502179055508060ff16600760008573ffffffffffffffffffffffffffffffffffffffff1673ffffffffffffffffffffffffffffffffffffffff1681526020019081526020016000208190555060405180608001604052808373ffffffffffffffffffffffffffffffffffffffff1681526020014281526020016000815260200160011515815250600460008573ffffffffffffffffffffffffffffffffffffffff1673ffffffffffffffffffffffffffffffffffffffff16815260200190815260200160002060008201518160000160006101000a81548173ffffffffffffffffffffffffffffffffffffffff021916908373ffffffffffffffffffffffffffffffffffffffff160217905550602082015181600101556040820151816002015560608201518160030160006101000a81548160ff021916908315150217905550905050505050565b610979611bac565b600260009054906101000a900473ffffffffffffffffffffffffffffffffffffffff1673ffffffffffffffffffffffffffffffffffffffff163373ffffffffffffffffffffffffffffffffffffffff1614610a00576040517f344fd58600000000000000000000000000000000000000000000000000000000815260040160405180910390fd5b600660008373ffffffffffffffffffffffffffffffffffffffff1673ffffffffffffffffffffffffffffffffffffffff16815260200190815260200160002060009054906101000a900460ff16610a83576040517fe523909000000000000000000000000000000000000000000000000000000000815260040160405180910390fd5b60008103610abd576040517f3a23d82500000000000000000000000000000000000000000000000000000000815260040160405180910390fd5b610ac68261110f565b6040518060c001604052808373ffffffffffffffffffffffffffffffffffffffff1681526020018281526020018473ffffffffffffffffffffffffffffffffffffffff168152602001600460008573ffffffffffffffffffffffffffffffffffffffff1673ffffffffffffffffffffffffffffffffffffffff168152602001908152602001600020600201548152602001600115158152602001600015158152506003600086815260200190815260200160002060008201518160000160006101000a81548173ffffffffffffffffffffffffffffffffffffffff021916908373ffffffffffffffffffffffffffffffffffffffff1602179055506020820151816001015560408201518160020160006101000a81548173ffffffffffffffffffffffffffffffffffffffff021916908373ffffffffffffffffffffffffffffffffffffffff1602179055506060820151816003015560808201518160040160006101000a81548160ff02191690831515021790555060a08201518160040160016101000a81548160ff0219169083151502179055509050508173ffffffffffffffffffffffffffffffffffffffff166323b872dd8430846040518463ffffffff1660e01b8152600401610c9c939291906122d2565b6020604051808303816000875af1158015610cbb573d6000803e3d6000fd5b505050506040513d601f19601f82011682018060405250810190610cdf9190612335565b610d15576040517f90b8ec1800000000000000000000000000000000000000000000000000000000815260040160405180910390fd5b837feec2f3feb835e2f2fd44281034b04700a1ddda63dd402949d470a25a7c40b36c8383604051610d47929190612362565b60405180910390a2610d57611bf2565b50505050565b610d65611bfc565b610d6f6000611c83565b565b610d79611bfc565b600073ffffffffffffffffffffffffffffffffffffffff168173ffffffffffffffffffffffffffffffffffffffff1603610ddf576040517fe523909000000000000000000000000000000000000000000000000000000000815260040160405180910390fd5b80600260006101000a81548173ffffffffffffffffffffffffffffffffffffffff021916908373ffffffffffffffffffffffffffffffffffffffff16021790555050565b6000806003600084815260200190815260200160002090508060040160009054906101000a900460ff16610e83576040517fb4da1e3700000000000000000000000000000000000000000000000000000000815260040160405180910390fd5b6000600460008360000160009054906101000a900473ffffffffffffffffffffffffffffffffffffffff1673ffffffffffffffffffffffffffffffffffffffff1673ffffffffffffffffffffffffffffffffffffffff16815260200190815260200160002090506000600760008460000160009054906101000a900473ffffffffffffffffffffffffffffffffffffffff1673ffffffffffffffffffffffffffffffffffffffff1673ffffffffffffffffffffffffffffffffffffffff168152602001908152602001600020549050806008610f5f919061238b565b600a610f6b91906124f2565b81600a610f7891906124f2565b83600201548560010154610f8c919061253d565b610f9691906125ae565b610fa091906125ae565b9350505050919050565b6000600160009054906101000a900473ffffffffffffffffffffffffffffffffffffffff16905090565b60076020528060005260406000206000915090505481565b610ff4611d51565b600360008381526020019081526020016000206040518060c00160405290816000820160009054906101000a900473ffffffffffffffffffffffffffffffffffffffff1673ffffffffffffffffffffffffffffffffffffffff1673ffffffffffffffffffffffffffffffffffffffff168152602001600182015481526020016002820160009054906101000a900473ffffffffffffffffffffffffffffffffffffffff1673ffffffffffffffffffffffffffffffffffffffff1673ffffffffffffffffffffffffffffffffffffffff168152602001600382015481526020016004820160009054906101000a900460ff161515151581526020016004820160019054906101000a900460ff1615151515815250509050919050565b6000600460008373ffffffffffffffffffffffffffffffffffffffff1673ffffffffffffffffffffffffffffffffffffffff16815260200190815260200160002090508060030160009054906101000a900460ff1661119a576040517f52cc3f7d00000000000000000000000000000000000000000000000000000000815260040160405180910390fd5b6000808260000160009054906101000a900473ffffffffffffffffffffffffffffffffffffffff1673ffffffffffffffffffffffffffffffffffffffff1663feaf968c6040518163ffffffff1660e01b815260040160a060405180830381865afa15801561120c573d6000803e3d6000fd5b505050506040513d601f19601f82011682018060405250810190611230919061266c565b5093505092505060008213611271576040517f52cc3f7d00000000000000000000000000000000000000000000000000000000815260040160405180910390fd5b610e108142611280919061238b565b11156112b8576040517f19abf40e00000000000000000000000000000000000000000000000000000000815260040160405180910390fd5b8183600201819055504283600101819055508373ffffffffffffffffffffffffffffffffffffffff167f0d86730737b142fc160892fa8a0f2db687a92a0e294d1ad70624cf5acef03b84836040516113109190612092565b60405180910390a250505050565b60046020528060005260406000206000915090508060000160009054906101000a900473ffffffffffffffffffffffffffffffffffffffff16908060010154908060020154908060030160009054906101000a900460ff16905084565b60006003600083815260200190815260200160002060040160009054906101000a900460ff169050919050565b6113b0611bac565b600260009054906101000a900473ffffffffffffffffffffffffffffffffffffffff1673ffffffffffffffffffffffffffffffffffffffff163373ffffffffffffffffffffffffffffffffffffffff1614611437576040517f344fd58600000000000000000000000000000000000000000000000000000000815260040160405180910390fd5b60006003600084815260200190815260200160002090508060040160009054906101000a900460ff16611496576040517fb4da1e3700000000000000000000000000000000000000000000000000000000815260040160405180910390fd5b6114c38160000160009054906101000a900473ffffffffffffffffffffffffffffffffffffffff1661110f565b60006114ce84610e23565b905060006064606e856114e1919061253d565b6114eb91906125ae565b905080821115611527576040517f05c4d8ac00000000000000000000000000000000000000000000000000000000815260040160405180910390fd5b60006127106101f4856001015461153e919061253d565b61154891906125ae565b9050600081856001015461155c919061229e565b905060008560040160006101000a81548160ff02191690831515021790555060016005600089815260200190815260200160002060006101000a81548160ff0219169083151502179055508460000160009054906101000a900473ffffffffffffffffffffffffffffffffffffffff1673ffffffffffffffffffffffffffffffffffffffff1663a9059cbb33836040518363ffffffff1660e01b8152600401611606929190612362565b6020604051808303816000875af1158015611625573d6000803e3d6000fd5b505050506040513d601f19601f820116820180604052508101906116499190612335565b61167f576040517f90b8ec1800000000000000000000000000000000000000000000000000000000815260040160405180910390fd5b867fcafca847a6c6645c7dd7bb55a47759cd884f49bd6e8c273f4ee701e8b81bcda033836040516116b1929190612362565b60405180910390a250505050506116c6611bf2565b5050565b6000806003600085815260200190815260200160002090508060040160009054906101000a900460ff1661172a576040517fb4da1e3700000000000000000000000000000000000000000000000000000000815260040160405180910390fd5b6117578160000160009054906101000a900473ffffffffffffffffffffffffffffffffffffffff1661110f565b600061176285610e23565b905060006064607d86611775919061253d565b61177f91906125ae565b90506000818310159050801580156117a657508360040160019054906101000a900460ff16155b1561180c5760018460040160016101000a81548160ff021916908315150217905550867fd6fcd2d687f7c7d926229f9cdc1186ba2e2c45856d211c792d8e395593c7e4e184846117f6919061238b565b6040516118039190612092565b60405180910390a25b8094505050505092915050565b600260009054906101000a900473ffffffffffffffffffffffffffffffffffffffff1681565b60066020528060005260406000206000915054906101000a900460ff1681565b611867611bac565b600260009054906101000a900473ffffffffffffffffffffffffffffffffffffffff1673ffffffffffffffffffffffffffffffffffffffff163373ffffffffffffffffffffffffffffffffffffffff16146118ee576040517f344fd58600000000000000000000000000000000000000000000000000000000815260040160405180910390fd5b60006003600084815260200190815260200160002090508060040160009054906101000a900460ff1661194d576040517fb4da1e3700000000000000000000000000000000000000000000000000000000815260040160405180910390fd5b8173ffffffffffffffffffffffffffffffffffffffff168160020160009054906101000a900473ffffffffffffffffffffffffffffffffffffffff1673ffffffffffffffffffffffffffffffffffffffff16146119d6576040517f344fd58600000000000000000000000000000000000000000000000000000000815260040160405180910390fd5b60008160010154905060008260040160006101000a81548160ff021916908315150217905550600082600101819055508160000160009054906101000a900473ffffffffffffffffffffffffffffffffffffffff1673ffffffffffffffffffffffffffffffffffffffff1663a9059cbb84836040518363ffffffff1660e01b8152600401611a65929190612362565b6020604051808303816000875af1158015611a84573d6000803e3d6000fd5b505050506040513d601f19601f82011682018060405250810190611aa89190612335565b611ade576040517f90b8ec1800000000000000000000000000000000000000000000000000000000815260040160405180910390fd5b837f757b323b5139c5e30fe0a1c4b13e38dece5aad9273138c1e3d1ed9191c6e73b28483604051611b10929190612362565b60405180910390a25050611b22611bf2565b5050565b611b2e611bfc565b600073ffffffffffffffffffffffffffffffffffffffff168173ffffffffffffffffffffffffffffffffffffffff1603611ba05760006040517f1e4fbdf7000000000000000000000000000000000000000000000000000000008152600401611b9791906120ad565b60405180910390fd5b611ba981611c83565b50565b600260005403611be8576040517f3ee5aeb500000000000000000000000000000000000000000000000000000000815260040160405180910390fd5b6002600081905550565b6001600081905550565b611c04611d49565b73ffffffffffffffffffffffffffffffffffffffff16611c22610faa565b73ffffffffffffffffffffffffffffffffffffffff1614611c8157611c45611d49565b6040517f118cdaa7000000000000000000000000000000000000000000000000000000008152600401611c7891906120ad565b60405180910390fd5b565b6000600160009054906101000a900473ffffffffffffffffffffffffffffffffffffffff16905081600160006101000a81548173ffffffffffffffffffffffffffffffffffffffff021916908373ffffffffffffffffffffffffffffffffffffffff1602179055508173ffffffffffffffffffffffffffffffffffffffff168173ffffffffffffffffffffffffffffffffffffffff167f8be0079c531659141344cd1fd0a4f28419497f9722a3daafe3b4186f6b6457e060405160405180910390a35050565b600033905090565b6040518060c00160405280600073ffffffffffffffffffffffffffffffffffffffff16815260200160008152602001600073ffffffffffffffffffffffffffffffffffffffff168152602001600081526020016000151581526020016000151581525090565b600080fd5b6000819050919050565b611dcf81611dbc565b8114611dda57600080fd5b50565b600081359050611dec81611dc6565b92915050565b60008060408385031215611e0957611e08611db7565b5b6000611e1785828601611ddd565b9250506020611e2885828601611ddd565b9150509250929050565b600060208284031215611e4857611e47611db7565b5b6000611e5684828501611ddd565b91505092915050565b60008115159050919050565b611e7481611e5f565b82525050565b6000602082019050611e8f6000830184611e6b565b92915050565b600073ffffffffffffffffffffffffffffffffffffffff82169050919050565b6000611ec082611e95565b9050919050565b611ed081611eb5565b82525050565b611edf81611dbc565b82525050565b600060c082019050611efa6000830189611ec7565b611f076020830188611ed6565b611f146040830187611ec7565b611f216060830186611ed6565b611f2e6080830185611e6b565b611f3b60a0830184611e6b565b979650505050505050565b611f4f81611eb5565b8114611f5a57600080fd5b50565b600081359050611f6c81611f46565b92915050565b600060ff82169050919050565b611f8881611f72565b8114611f9357600080fd5b50565b600081359050611fa581611f7f565b92915050565b600080600060608486031215611fc457611fc3611db7565b5b6000611fd286828701611f5d565b9350506020611fe386828701611f5d565b9250506040611ff486828701611f96565b9150509250925092565b6000806000806080858703121561201857612017611db7565b5b600061202687828801611ddd565b945050602061203787828801611f5d565b935050604061204887828801611f5d565b925050606061205987828801611ddd565b91505092959194509250565b60006020828403121561207b5761207a611db7565b5b600061208984828501611f5d565b91505092915050565b60006020820190506120a76000830184611ed6565b92915050565b60006020820190506120c26000830184611ec7565b92915050565b6120d181611eb5565b82525050565b6120e081611dbc565b82525050565b6120ef81611e5f565b82525050565b60c08201600082015161210b60008501826120c8565b50602082015161211e60208501826120d7565b50604082015161213160408501826120c8565b50606082015161214460608501826120d7565b50608082015161215760808501826120e6565b5060a082015161216a60a08501826120e6565b50505050565b600060c08201905061218560008301846120f5565b92915050565b6000819050919050565b60006121b06121ab6121a684611e95565b61218b565b611e95565b9050919050565b60006121c282612195565b9050919050565b60006121d4826121b7565b9050919050565b6121e4816121c9565b82525050565b60006080820190506121ff60008301876121db565b61220c6020830186611ed6565b6122196040830185611ed6565b6122266060830184611e6b565b95945050505050565b6000806040838503121561224657612245611db7565b5b600061225485828601611ddd565b925050602061226585828601611f5d565b9150509250929050565b7f4e487b7100000000000000000000000000000000000000000000000000000000600052601160045260246000fd5b60006122a982611dbc565b91506122b483611dbc565b92508282019050808211156122cc576122cb61226f565b5b92915050565b60006060820190506122e76000830186611ec7565b6122f46020830185611ec7565b6123016040830184611ed6565b949350505050565b61231281611e5f565b811461231d57600080fd5b50565b60008151905061232f81612309565b92915050565b60006020828403121561234b5761234a611db7565b5b600061235984828501612320565b91505092915050565b60006040820190506123776000830185611ec7565b6123846020830184611ed6565b9392505050565b600061239682611dbc565b91506123a183611dbc565b92508282039050818111156123b9576123b861226f565b5b92915050565b60008160011c9050919050565b6000808291508390505b6001851115612416578086048111156123f2576123f161226f565b5b60018516156124015780820291505b808102905061240f856123bf565b94506123d6565b94509492505050565b60008261242f57600190506124eb565b8161243d57600090506124eb565b8160018114612453576002811461245d5761248c565b60019150506124eb565b60ff84111561246f5761246e61226f565b5b8360020a9150848211156124865761248561226f565b5b506124eb565b5060208310610133831016604e8410600b84101617156124c15782820a9050838111156124bc576124bb61226f565b5b6124eb565b6124ce84848460016123cc565b925090508184048111156124e5576124e461226f565b5b81810290505b9392505050565b60006124fd82611dbc565b915061250883611dbc565b92506125357fffffffffffffffffffffffffffffffffffffffffffffffffffffffffffffffff848461241f565b905092915050565b600061254882611dbc565b915061255383611dbc565b925082820261256181611dbc565b915082820484148315176125785761257761226f565b5b5092915050565b7f4e487b7100000000000000000000000000000000000000000000000000000000600052601260045260246000fd5b60006125b982611dbc565b91506125c483611dbc565b9250826125d4576125d361257f565b5b828204905092915050565b600069ffffffffffffffffffff82169050919050565b6125fe816125df565b811461260957600080fd5b50565b60008151905061261b816125f5565b92915050565b6000819050919050565b61263481612621565b811461263f57600080fd5b50565b6000815190506126518161262b565b92915050565b60008151905061266681611dc6565b92915050565b600080600080600060a0868803121561268857612687611db7565b5b60006126968882890161260c565b95505060206126a788828901612642565b94505060406126b888828901612657565b93505060606126c988828901612657565b92505060806126da8882890161260c565b915050929550929590935056fea2646970667358221220890359560195709585a1d199d3e802649bda74e9b2bb62c58ef1b9d6915b0edc64736f6c634300081c0033","opcodes":"PUSH1 0x80 PUSH1 0x40 MSTORE CALLVALUE DUP1 ISZERO PUSH2 0x10 JUMPI PUSH1 0x0 DUP1 REVERT JUMPDEST POP CALLER PUSH1 0x1 PUSH1 0x0 DUP2 SWAP1 SSTORE POP PUSH1 0x0 PUSH20 0xFFFFFFFFFFFFFFFFFFFFFFFFFFFFFFFFFFFFFFFF AND DUP2 PUSH20 0xFFFFFFFFFFFFFFFFFFFFFFFFFFFFFFFFFFFFFFFF AND SUB PUSH2 0x8C JUMPI PUSH1 0x0 PUSH1 0x40 MLOAD PUSH32 0x1E4FBDF700000000000000000000000000000000000000000000000000000000 DUP2 MSTORE PUSH1 0x4 ADD PUSH2 0x83 SWAP2 SWAP1 PUSH2 0x1A8 JUMP JUMPDEST PUSH1 0x40 MLOAD DUP1 SWAP2 SUB SWAP1 REVERT JUMPDEST PUSH2 0x9B DUP2 PUSH2 0xA1 PUSH1 0x20 SHL PUSH1 0x20 SHR JUMP JUMPDEST POP PUSH2 0x1C3 JUMP JUMPDEST PUSH1 0x0 PUSH1 0x1 PUSH1 0x0 SWAP1 SLOAD SWAP1 PUSH2 0x100 EXP SWAP1 DIV PUSH20 0xFFFFFFFFFFFFFFFFFFFFFFFFFFFFFFFFFFFFFFFF AND SWAP1 POP DUP2 PUSH1 0x1 PUSH1 0x0 PUSH2 0x100 EXP DUP2 SLOAD DUP2 PUSH20 0xFFFFFFFFFFFFFFFFFFFFFFFFFFFFFFFFFFFFFFFF MUL NOT AND SWAP1 DUP4 PUSH20 0xFFFFFFFFFFFFFFFFFFFFFFFFFFFFFFFFFFFFFFFF AND MUL OR SWAP1 SSTORE POP DUP2 PUSH20 0xFFFFFFFFFFFFFFFFFFFFFFFFFFFFFFFFFFFFFFFF AND DUP2 PUSH20 0xFFFFFFFFFFFFFFFFFFFFFFFFFFFFFFFFFFFFFFFF AND PUSH32 0x8BE0079C531659141344CD1FD0A4F28419497F9722A3DAAFE3B4186F6B6457E0 PUSH1 0x40 MLOAD PUSH1 0x40 MLOAD DUP1 SWAP2 SUB SWAP1 LOG3 POP POP JUMP JUMPDEST PUSH1 0x0 PUSH20 0xFFFFFFFFFFFFFFFFFFFFFFFFFFFFFFFFFFFFFFFF DUP3 AND SWAP1 POP SWAP2 SWAP1 POP JUMP JUMPDEST PUSH1 0x0 PUSH2 0x192 DUP3 PUSH2 0x167 JUMP JUMPDEST SWAP1 POP SWAP2 SWAP1 POP JUMP JUMPDEST PUSH2 0x1A2 DUP2 PUSH2 0x187 JUMP JUMPDEST DUP3 MSTORE POP POP JUMP JUMPDEST PUSH1 0x0 PUSH1 0x20 DUP3 ADD SWAP1 POP PUSH2 0x1BD PUSH1 0x0 DUP4 ADD DUP5 PUSH2 0x199 JUMP JUMPDEST SWAP3 SWAP2 POP POP JUMP JUMPDEST PUSH2 0x271D DUP1 PUSH2 0x1D2 PUSH1 0x0 CODECOPY PUSH1 0x0 RETURN INVALID PUSH1 0x80 PUSH1 0x40 MSTORE CALLVALUE DUP1 ISZERO PUSH2 0x10 JUMPI PUSH1 0x0 DUP1 REVERT JUMPDEST POP PUSH1 0x4 CALLDATASIZE LT PUSH2 0x12C JUMPI PUSH1 0x0 CALLDATALOAD PUSH1 0xE0 SHR DUP1 PUSH4 0x934B5D13 GT PUSH2 0xAD JUMPI DUP1 PUSH4 0xA98C7F5F GT PUSH2 0x71 JUMPI DUP1 PUSH4 0xA98C7F5F EQ PUSH2 0x359 JUMPI DUP1 PUSH4 0xABC8C7AF EQ PUSH2 0x389 JUMPI DUP1 PUSH4 0xDAF9C210 EQ PUSH2 0x3A7 JUMPI DUP1 PUSH4 0xE563ABB5 EQ PUSH2 0x3D7 JUMPI DUP1 PUSH4 0xF2FDE38B EQ PUSH2 0x3F3 JUMPI PUSH2 0x12C JUMP JUMPDEST DUP1 PUSH4 0x934B5D13 EQ PUSH2 0x28E JUMPI DUP1 PUSH4 0x96E85CED EQ PUSH2 0x2BE JUMPI DUP1 PUSH4 0x9DCB511A EQ PUSH2 0x2DA JUMPI DUP1 PUSH4 0x9E741429 EQ PUSH2 0x30D JUMPI DUP1 PUSH4 0xA61F31A4 EQ PUSH2 0x33D JUMPI PUSH2 0x12C JUMP JUMPDEST DUP1 PUSH4 0x715018A6 GT PUSH2 0xF4 JUMPI DUP1 PUSH4 0x715018A6 EQ PUSH2 0x1EA JUMPI DUP1 PUSH4 0x73AD6C2D EQ PUSH2 0x1F4 JUMPI DUP1 PUSH4 0x82FEE08F EQ PUSH2 0x210 JUMPI DUP1 PUSH4 0x8DA5CB5B EQ PUSH2 0x240 JUMPI DUP1 PUSH4 0x8EE573AC EQ PUSH2 0x25E JUMPI PUSH2 0x12C JUMP JUMPDEST DUP1 PUSH4 0xF257D8E EQ PUSH2 0x131 JUMPI DUP1 PUSH4 0x1C01AAAB EQ PUSH2 0x14D JUMPI DUP1 PUSH4 0x24C1173B EQ PUSH2 0x17D JUMPI DUP1 PUSH4 0x499DD056 EQ PUSH2 0x1B2 JUMPI DUP1 PUSH4 0x6C4C0B1F EQ PUSH2 0x1CE JUMPI JUMPDEST PUSH1 0x0 DUP1 REVERT JUMPDEST PUSH2 0x14B PUSH1 0x4 DUP1 CALLDATASIZE SUB DUP2 ADD SWAP1 PUSH2 0x146 SWAP2 SWAP1 PUSH2 0x1DF2 JUMP JUMPDEST PUSH2 0x40F JUMP JUMPDEST STOP JUMPDEST PUSH2 0x167 PUSH1 0x4 DUP1 CALLDATASIZE SUB DUP2 ADD SWAP1 PUSH2 0x162 SWAP2 SWAP1 PUSH2 0x1E32 JUMP JUMPDEST PUSH2 0x679 JUMP JUMPDEST PUSH1 0x40 MLOAD PUSH2 0x174 SWAP2 SWAP1 PUSH2 0x1E7A JUMP JUMPDEST PUSH1 0x40 MLOAD DUP1 SWAP2 SUB SWAP1 RETURN JUMPDEST PUSH2 0x197 PUSH1 0x4 DUP1 CALLDATASIZE SUB DUP2 ADD SWAP1 PUSH2 0x192 SWAP2 SWAP1 PUSH2 0x1E32 JUMP JUMPDEST PUSH2 0x699 JUMP JUMPDEST PUSH1 0x40 MLOAD PUSH2 0x1A9 SWAP7 SWAP6 SWAP5 SWAP4 SWAP3 SWAP2 SWAP1 PUSH2 0x1EE5 JUMP JUMPDEST PUSH1 0x40 MLOAD DUP1 SWAP2 SUB SWAP1 RETURN JUMPDEST PUSH2 0x1CC PUSH1 0x4 DUP1 CALLDATASIZE SUB DUP2 ADD SWAP1 PUSH2 0x1C7 SWAP2 SWAP1 PUSH2 0x1FAB JUMP JUMPDEST PUSH2 0x72F JUMP JUMPDEST STOP JUMPDEST PUSH2 0x1E8 PUSH1 0x4 DUP1 CALLDATASIZE SUB DUP2 ADD SWAP1 PUSH2 0x1E3 SWAP2 SWAP1 PUSH2 0x1FFE JUMP JUMPDEST PUSH2 0x971 JUMP JUMPDEST STOP JUMPDEST PUSH2 0x1F2 PUSH2 0xD5D JUMP JUMPDEST STOP JUMPDEST PUSH2 0x20E PUSH1 0x4 DUP1 CALLDATASIZE SUB DUP2 ADD SWAP1 PUSH2 0x209 SWAP2 SWAP1 PUSH2 0x2065 JUMP JUMPDEST PUSH2 0xD71 JUMP JUMPDEST STOP JUMPDEST PUSH2 0x22A PUSH1 0x4 DUP1 CALLDATASIZE SUB DUP2 ADD SWAP1 PUSH2 0x225 SWAP2 SWAP1 PUSH2 0x1E32 JUMP JUMPDEST PUSH2 0xE23 JUMP JUMPDEST PUSH1 0x40 MLOAD PUSH2 0x237 SWAP2 SWAP1 PUSH2 0x2092 JUMP JUMPDEST PUSH1 0x40 MLOAD DUP1 SWAP2 SUB SWAP1 RETURN JUMPDEST PUSH2 0x248 PUSH2 0xFAA JUMP JUMPDEST PUSH1 0x40 MLOAD PUSH2 0x255 SWAP2 SWAP1 PUSH2 0x20AD JUMP JUMPDEST PUSH1 0x40 MLOAD DUP1 SWAP2 SUB SWAP1 RETURN JUMPDEST PUSH2 0x278 PUSH1 0x4 DUP1 CALLDATASIZE SUB DUP2 ADD SWAP1 PUSH2 0x273 SWAP2 SWAP1 PUSH2 0x2065 JUMP JUMPDEST PUSH2 0xFD4 JUMP JUMPDEST PUSH1 0x40 MLOAD PUSH2 0x285 SWAP2 SWAP1 PUSH2 0x2092 JUMP JUMPDEST PUSH1 0x40 MLOAD DUP1 SWAP2 SUB SWAP1 RETURN JUMPDEST PUSH2 0x2A8 PUSH1 0x4 DUP1 CALLDATASIZE SUB DUP2 ADD SWAP1 PUSH2 0x2A3 SWAP2 SWAP1 PUSH2 0x1E32 JUMP JUMPDEST PUSH2 0xFEC JUMP JUMPDEST PUSH1 0x40 MLOAD PUSH2 0x2B5 SWAP2 SWAP1 PUSH2 0x2170 JUMP JUMPDEST PUSH1 0x40 MLOAD DUP1 SWAP2 SUB SWAP1 RETURN JUMPDEST PUSH2 0x2D8 PUSH1 0x4 DUP1 CALLDATASIZE SUB DUP2 ADD SWAP1 PUSH2 0x2D3 SWAP2 SWAP1 PUSH2 0x2065 JUMP JUMPDEST PUSH2 0x110F JUMP JUMPDEST STOP JUMPDEST PUSH2 0x2F4 PUSH1 0x4 DUP1 CALLDATASIZE SUB DUP2 ADD SWAP1 PUSH2 0x2EF SWAP2 SWAP1 PUSH2 0x2065 JUMP JUMPDEST PUSH2 0x131E JUMP JUMPDEST PUSH1 0x40 MLOAD PUSH2 0x304 SWAP5 SWAP4 SWAP3 SWAP2 SWAP1 PUSH2 0x21EA JUMP JUMPDEST PUSH1 0x40 MLOAD DUP1 SWAP2 SUB SWAP1 RETURN JUMPDEST PUSH2 0x327 PUSH1 0x4 DUP1 CALLDATASIZE SUB DUP2 ADD SWAP1 PUSH2 0x322 SWAP2 SWAP1 PUSH2 0x1E32 JUMP JUMPDEST PUSH2 0x137B JUMP JUMPDEST PUSH1 0x40 MLOAD PUSH2 0x334 SWAP2 SWAP1 PUSH2 0x1E7A JUMP JUMPDEST PUSH1 0x40 MLOAD DUP1 SWAP2 SUB SWAP1 RETURN JUMPDEST PUSH2 0x357 PUSH1 0x4 DUP1 CALLDATASIZE SUB DUP2 ADD SWAP1 PUSH2 0x352 SWAP2 SWAP1 PUSH2 0x1DF2 JUMP JUMPDEST PUSH2 0x13A8 JUMP JUMPDEST STOP JUMPDEST PUSH2 0x373 PUSH1 0x4 DUP1 CALLDATASIZE SUB DUP2 ADD SWAP1 PUSH2 0x36E SWAP2 SWAP1 PUSH2 0x1DF2 JUMP JUMPDEST PUSH2 0x16CA JUMP JUMPDEST PUSH1 0x40 MLOAD PUSH2 0x380 SWAP2 SWAP1 PUSH2 0x1E7A JUMP JUMPDEST PUSH1 0x40 MLOAD DUP1 SWAP2 SUB SWAP1 RETURN JUMPDEST PUSH2 0x391 PUSH2 0x1819 JUMP JUMPDEST PUSH1 0x40 MLOAD PUSH2 0x39E SWAP2 SWAP1 PUSH2 0x20AD JUMP JUMPDEST PUSH1 0x40 MLOAD DUP1 SWAP2 SUB SWAP1 RETURN JUMPDEST PUSH2 0x3C1 PUSH1 0x4 DUP1 CALLDATASIZE SUB DUP2 ADD SWAP1 PUSH2 0x3BC SWAP2 SWAP1 PUSH2 0x2065 JUMP JUMPDEST PUSH2 0x183F JUMP JUMPDEST PUSH1 0x40 MLOAD PUSH2 0x3CE SWAP2 SWAP1 PUSH2 0x1E7A JUMP JUMPDEST PUSH1 0x40 MLOAD DUP1 SWAP2 SUB SWAP1 RETURN JUMPDEST PUSH2 0x3F1 PUSH1 0x4 DUP1 CALLDATASIZE SUB DUP2 ADD SWAP1 PUSH2 0x3EC SWAP2 SWAP1 PUSH2 0x222F JUMP JUMPDEST PUSH2 0x185F JUMP JUMPDEST STOP JUMPDEST PUSH2 0x40D PUSH1 0x4 DUP1 CALLDATASIZE SUB DUP2 ADD SWAP1 PUSH2 0x408 SWAP2 SWAP1 PUSH2 0x2065 JUMP JUMPDEST PUSH2 0x1B26 JUMP JUMPDEST STOP JUMPDEST PUSH2 0x417 PUSH2 0x1BAC JUMP JUMPDEST PUSH1 0x0 PUSH1 0x3 PUSH1 0x0 DUP5 DUP2 MSTORE PUSH1 0x20 ADD SWAP1 DUP2 MSTORE PUSH1 0x20 ADD PUSH1 0x0 KECCAK256 SWAP1 POP DUP1 PUSH1 0x4 ADD PUSH1 0x0 SWAP1 SLOAD SWAP1 PUSH2 0x100 EXP SWAP1 DIV PUSH1 0xFF AND PUSH2 0x476 JUMPI PUSH1 0x40 MLOAD PUSH32 0xB4DA1E3700000000000000000000000000000000000000000000000000000000 DUP2 MSTORE PUSH1 0x4 ADD PUSH1 0x40 MLOAD DUP1 SWAP2 SUB SWAP1 REVERT JUMPDEST DUP1 PUSH1 0x2 ADD PUSH1 0x0 SWAP1 SLOAD SWAP1 PUSH2 0x100 EXP SWAP1 DIV PUSH20 0xFFFFFFFFFFFFFFFFFFFFFFFFFFFFFFFFFFFFFFFF AND PUSH20 0xFFFFFFFFFFFFFFFFFFFFFFFFFFFFFFFFFFFFFFFF AND CALLER PUSH20 0xFFFFFFFFFFFFFFFFFFFFFFFFFFFFFFFFFFFFFFFF AND EQ PUSH2 0x4FF JUMPI PUSH1 0x40 MLOAD PUSH32 0x344FD58600000000000000000000000000000000000000000000000000000000 DUP2 MSTORE PUSH1 0x4 ADD PUSH1 0x40 MLOAD DUP1 SWAP2 SUB SWAP1 REVERT JUMPDEST DUP2 DUP2 PUSH1 0x1 ADD SLOAD PUSH2 0x50F SWAP2 SWAP1 PUSH2 0x229E JUMP JUMPDEST DUP2 PUSH1 0x1 ADD DUP2 SWAP1 SSTORE POP PUSH1 0x0 DUP2 PUSH1 0x4 ADD PUSH1 0x1 PUSH2 0x100 EXP DUP2 SLOAD DUP2 PUSH1 0xFF MUL NOT AND SWAP1 DUP4 ISZERO ISZERO MUL OR SWAP1 SSTORE POP DUP1 PUSH1 0x0 ADD PUSH1 0x0 SWAP1 SLOAD SWAP1 PUSH2 0x100 EXP SWAP1 DIV PUSH20 0xFFFFFFFFFFFFFFFFFFFFFFFFFFFFFFFFFFFFFFFF AND PUSH20 0xFFFFFFFFFFFFFFFFFFFFFFFFFFFFFFFFFFFFFFFF AND PUSH4 0x23B872DD CALLER ADDRESS DUP6 PUSH1 0x40 MLOAD DUP5 PUSH4 0xFFFFFFFF AND PUSH1 0xE0 SHL DUP2 MSTORE PUSH1 0x4 ADD PUSH2 0x595 SWAP4 SWAP3 SWAP2 SWAP1 PUSH2 0x22D2 JUMP JUMPDEST PUSH1 0x20 PUSH1 0x40 MLOAD DUP1 DUP4 SUB DUP2 PUSH1 0x0 DUP8 GAS CALL ISZERO DUP1 ISZERO PUSH2 0x5B4 JUMPI RETURNDATASIZE PUSH1 0x0 DUP1 RETURNDATACOPY RETURNDATASIZE PUSH1 0x0 REVERT JUMPDEST POP POP POP POP PUSH1 0x40 MLOAD RETURNDATASIZE PUSH1 0x1F NOT PUSH1 0x1F DUP3 ADD AND DUP3 ADD DUP1 PUSH1 0x40 MSTORE POP DUP2 ADD SWAP1 PUSH2 0x5D8 SWAP2 SWAP1 PUSH2 0x2335 JUMP JUMPDEST PUSH2 0x60E JUMPI PUSH1 0x40 MLOAD PUSH32 0x90B8EC1800000000000000000000000000000000000000000000000000000000 DUP2 MSTORE PUSH1 0x4 ADD PUSH1 0x40 MLOAD DUP1 SWAP2 SUB SWAP1 REVERT JUMPDEST DUP3 PUSH32 0xEEC2F3FEB835E2F2FD44281034B04700A1DDDA63DD402949D470A25A7C40B36C DUP3 PUSH1 0x0 ADD PUSH1 0x0 SWAP1 SLOAD SWAP1 PUSH2 0x100 EXP SWAP1 DIV PUSH20 0xFFFFFFFFFFFFFFFFFFFFFFFFFFFFFFFFFFFFFFFF AND DUP5 PUSH1 0x40 MLOAD PUSH2 0x664 SWAP3 SWAP2 SWAP1 PUSH2 0x2362 JUMP JUMPDEST PUSH1 0x40 MLOAD DUP1 SWAP2 SUB SWAP1 LOG2 POP PUSH2 0x675 PUSH2 0x1BF2 JUMP JUMPDEST POP POP JUMP JUMPDEST PUSH1 0x5 PUSH1 0x20 MSTORE DUP1 PUSH1 0x0 MSTORE PUSH1 0x40 PUSH1 0x0 KECCAK256 PUSH1 0x0 SWAP2 POP SLOAD SWAP1 PUSH2 0x100 EXP SWAP1 DIV PUSH1 0xFF AND DUP2 JUMP JUMPDEST PUSH1 0x3 PUSH1 0x20 MSTORE DUP1 PUSH1 0x0 MSTORE PUSH1 0x40 PUSH1 0x0 KECCAK256 PUSH1 0x0 SWAP2 POP SWAP1 POP DUP1 PUSH1 0x0 ADD PUSH1 0x0 SWAP1 SLOAD SWAP1 PUSH2 0x100 EXP SWAP1 DIV PUSH20 0xFFFFFFFFFFFFFFFFFFFFFFFFFFFFFFFFFFFFFFFF AND SWAP1 DUP1 PUSH1 0x1 ADD SLOAD SWAP1 DUP1 PUSH1 0x2 ADD PUSH1 0x0 SWAP1 SLOAD SWAP1 PUSH2 0x100 EXP SWAP1 DIV PUSH20 0xFFFFFFFFFFFFFFFFFFFFFFFFFFFFFFFFFFFFFFFF AND SWAP1 DUP1 PUSH1 0x3 ADD SLOAD SWAP1 DUP1 PUSH1 0x4 ADD PUSH1 0x0 SWAP1 SLOAD SWAP1 PUSH2 0x100 EXP SWAP1 DIV PUSH1 0xFF AND SWAP1 DUP1 PUSH1 0x4 ADD PUSH1 0x1 SWAP1 SLOAD SWAP1 PUSH2 0x100 EXP SWAP1 DIV PUSH1 0xFF AND SWAP1 POP DUP7 JUMP JUMPDEST PUSH2 0x737 PUSH2 0x1BFC JUMP JUMPDEST PUSH1 0x0 PUSH20 0xFFFFFFFFFFFFFFFFFFFFFFFFFFFFFFFFFFFFFFFF AND DUP4 PUSH20 0xFFFFFFFFFFFFFFFFFFFFFFFFFFFFFFFFFFFFFFFF AND EQ DUP1 PUSH2 0x79E JUMPI POP PUSH1 0x0 PUSH20 0xFFFFFFFFFFFFFFFFFFFFFFFFFFFFFFFFFFFFFFFF AND DUP3 PUSH20 0xFFFFFFFFFFFFFFFFFFFFFFFFFFFFFFFFFFFFFFFF AND EQ JUMPDEST ISZERO PUSH2 0x7D5 JUMPI PUSH1 0x40 MLOAD PUSH32 0xE523909000000000000000000000000000000000000000000000000000000000 DUP2 MSTORE PUSH1 0x4 ADD PUSH1 0x40 MLOAD DUP1 SWAP2 SUB SWAP1 REVERT JUMPDEST PUSH1 0x1 PUSH1 0x6 PUSH1 0x0 DUP6 PUSH20 0xFFFFFFFFFFFFFFFFFFFFFFFFFFFFFFFFFFFFFFFF AND PUSH20 0xFFFFFFFFFFFFFFFFFFFFFFFFFFFFFFFFFFFFFFFF AND DUP2 MSTORE PUSH1 0x20 ADD SWAP1 DUP2 MSTORE PUSH1 0x20 ADD PUSH1 0x0 KECCAK256 PUSH1 0x0 PUSH2 0x100 EXP DUP2 SLOAD DUP2 PUSH1 0xFF MUL NOT AND SWAP1 DUP4 ISZERO ISZERO MUL OR SWAP1 SSTORE POP DUP1 PUSH1 0xFF AND PUSH1 0x7 PUSH1 0x0 DUP6 PUSH20 0xFFFFFFFFFFFFFFFFFFFFFFFFFFFFFFFFFFFFFFFF AND PUSH20 0xFFFFFFFFFFFFFFFFFFFFFFFFFFFFFFFFFFFFFFFF AND DUP2 MSTORE PUSH1 0x20 ADD SWAP1 DUP2 MSTORE PUSH1 0x20 ADD PUSH1 0x0 KECCAK256 DUP2 SWAP1 SSTORE POP PUSH1 0x40 MLOAD DUP1 PUSH1 0x80 ADD PUSH1 0x40 MSTORE DUP1 DUP4 PUSH20 0xFFFFFFFFFFFFFFFFFFFFFFFFFFFFFFFFFFFFFFFF AND DUP2 MSTORE PUSH1 0x20 ADD TIMESTAMP DUP2 MSTORE PUSH1 0x20 ADD PUSH1 0x0 DUP2 MSTORE PUSH1 0x20 ADD PUSH1 0x1 ISZERO ISZERO DUP2 MSTORE POP PUSH1 0x4 PUSH1 0x0 DUP6 PUSH20 0xFFFFFFFFFFFFFFFFFFFFFFFFFFFFFFFFFFFFFFFF AND PUSH20 0xFFFFFFFFFFFFFFFFFFFFFFFFFFFFFFFFFFFFFFFF AND DUP2 MSTORE PUSH1 0x20 ADD SWAP1 DUP2 MSTORE PUSH1 0x20 ADD PUSH1 0x0 KECCAK256 PUSH1 0x0 DUP3 ADD MLOAD DUP2 PUSH1 0x0 ADD PUSH1 0x0 PUSH2 0x100 EXP DUP2 SLOAD DUP2 PUSH20 0xFFFFFFFFFFFFFFFFFFFFFFFFFFFFFFFFFFFFFFFF MUL NOT AND SWAP1 DUP4 PUSH20 0xFFFFFFFFFFFFFFFFFFFFFFFFFFFFFFFFFFFFFFFF AND MUL OR SWAP1 SSTORE POP PUSH1 0x20 DUP3 ADD MLOAD DUP2 PUSH1 0x1 ADD SSTORE PUSH1 0x40 DUP3 ADD MLOAD DUP2 PUSH1 0x2 ADD SSTORE PUSH1 0x60 DUP3 ADD MLOAD DUP2 PUSH1 0x3 ADD PUSH1 0x0 PUSH2 0x100 EXP DUP2 SLOAD DUP2 PUSH1 0xFF MUL NOT AND SWAP1 DUP4 ISZERO ISZERO MUL OR SWAP1 SSTORE POP SWAP1 POP POP POP POP POP JUMP JUMPDEST PUSH2 0x979 PUSH2 0x1BAC JUMP JUMPDEST PUSH1 0x2 PUSH1 0x0 SWAP1 SLOAD SWAP1 PUSH2 0x100 EXP SWAP1 DIV PUSH20 0xFFFFFFFFFFFFFFFFFFFFFFFFFFFFFFFFFFFFFFFF AND PUSH20 0xFFFFFFFFFFFFFFFFFFFFFFFFFFFFFFFFFFFFFFFF AND CALLER PUSH20 0xFFFFFFFFFFFFFFFFFFFFFFFFFFFFFFFFFFFFFFFF AND EQ PUSH2 0xA00 JUMPI PUSH1 0x40 MLOAD PUSH32 0x344FD58600000000000000000000000000000000000000000000000000000000 DUP2 MSTORE PUSH1 0x4 ADD PUSH1 0x40 MLOAD DUP1 SWAP2 SUB SWAP1 REVERT JUMPDEST PUSH1 0x6 PUSH1 0x0 DUP4 PUSH20 0xFFFFFFFFFFFFFFFFFFFFFFFFFFFFFFFFFFFFFFFF AND PUSH20 0xFFFFFFFFFFFFFFFFFFFFFFFFFFFFFFFFFFFFFFFF AND DUP2 MSTORE PUSH1 0x20 ADD SWAP1 DUP2 MSTORE PUSH1 0x20 ADD PUSH1 0x0 KECCAK256 PUSH1 0x0 SWAP1 SLOAD SWAP1 PUSH2 0x100 EXP SWAP1 DIV PUSH1 0xFF AND PUSH2 0xA83 JUMPI PUSH1 0x40 MLOAD PUSH32 0xE523909000000000000000000000000000000000000000000000000000000000 DUP2 MSTORE PUSH1 0x4 ADD PUSH1 0x40 MLOAD DUP1 SWAP2 SUB SWAP1 REVERT JUMPDEST PUSH1 0x0 DUP2 SUB PUSH2 0xABD JUMPI PUSH1 0x40 MLOAD PUSH32 0x3A23D82500000000000000000000000000000000000000000000000000000000 DUP2 MSTORE PUSH1 0x4 ADD PUSH1 0x40 MLOAD DUP1 SWAP2 SUB SWAP1 REVERT JUMPDEST PUSH2 0xAC6 DUP3 PUSH2 0x110F JUMP JUMPDEST PUSH1 0x40 MLOAD DUP1 PUSH1 0xC0 ADD PUSH1 0x40 MSTORE DUP1 DUP4 PUSH20 0xFFFFFFFFFFFFFFFFFFFFFFFFFFFFFFFFFFFFFFFF AND DUP2 MSTORE PUSH1 0x20 ADD DUP3 DUP2 MSTORE PUSH1 0x20 ADD DUP5 PUSH20 0xFFFFFFFFFFFFFFFFFFFFFFFFFFFFFFFFFFFFFFFF AND DUP2 MSTORE PUSH1 0x20 ADD PUSH1 0x4 PUSH1 0x0 DUP6 PUSH20 0xFFFFFFFFFFFFFFFFFFFFFFFFFFFFFFFFFFFFFFFF AND PUSH20 0xFFFFFFFFFFFFFFFFFFFFFFFFFFFFFFFFFFFFFFFF AND DUP2 MSTORE PUSH1 0x20 ADD SWAP1 DUP2 MSTORE PUSH1 0x20 ADD PUSH1 0x0 KECCAK256 PUSH1 0x2 ADD SLOAD DUP2 MSTORE PUSH1 0x20 ADD PUSH1 0x1 ISZERO ISZERO DUP2 MSTORE PUSH1 0x20 ADD PUSH1 0x0 ISZERO ISZERO DUP2 MSTORE POP PUSH1 0x3 PUSH1 0x0 DUP7 DUP2 MSTORE PUSH1 0x20 ADD SWAP1 DUP2 MSTORE PUSH1 0x20 ADD PUSH1 0x0 KECCAK256 PUSH1 0x0 DUP3 ADD MLOAD DUP2 PUSH1 0x0 ADD PUSH1 0x0 PUSH2 0x100 EXP DUP2 SLOAD DUP2 PUSH20 0xFFFFFFFFFFFFFFFFFFFFFFFFFFFFFFFFFFFFFFFF MUL NOT AND SWAP1 DUP4 PUSH20 0xFFFFFFFFFFFFFFFFFFFFFFFFFFFFFFFFFFFFFFFF AND MUL OR SWAP1 SSTORE POP PUSH1 0x20 DUP3 ADD MLOAD DUP2 PUSH1 0x1 ADD SSTORE PUSH1 0x40 DUP3 ADD MLOAD DUP2 PUSH1 0x2 ADD PUSH1 0x0 PUSH2 0x100 EXP DUP2 SLOAD DUP2 PUSH20 0xFFFFFFFFFFFFFFFFFFFFFFFFFFFFFFFFFFFFFFFF MUL NOT AND SWAP1 DUP4 PUSH20 0xFFFFFFFFFFFFFFFFFFFFFFFFFFFFFFFFFFFFFFFF AND MUL OR SWAP1 SSTORE POP PUSH1 0x60 DUP3 ADD MLOAD DUP2 PUSH1 0x3 ADD SSTORE PUSH1 0x80 DUP3 ADD MLOAD DUP2 PUSH1 0x4 ADD PUSH1 0x0 PUSH2 0x100 EXP DUP2 SLOAD DUP2 PUSH1 0xFF MUL NOT AND SWAP1 DUP4 ISZERO ISZERO MUL OR SWAP1 SSTORE POP PUSH1 0xA0 DUP3 ADD MLOAD DUP2 PUSH1 0x4 ADD PUSH1 0x1 PUSH2 0x100 EXP DUP2 SLOAD DUP2 PUSH1 0xFF MUL NOT AND SWAP1 DUP4 ISZERO ISZERO MUL OR SWAP1 SSTORE POP SWAP1 POP POP DUP2 PUSH20 0xFFFFFFFFFFFFFFFFFFFFFFFFFFFFFFFFFFFFFFFF AND PUSH4 0x23B872DD DUP5 ADDRESS DUP5 PUSH1 0x40 MLOAD DUP5 PUSH4 0xFFFFFFFF AND PUSH1 0xE0 SHL DUP2 MSTORE PUSH1 0x4 ADD PUSH2 0xC9C SWAP4 SWAP3 SWAP2 SWAP1 PUSH2 0x22D2 JUMP JUMPDEST PUSH1 0x20 PUSH1 0x40 MLOAD DUP1 DUP4 SUB DUP2 PUSH1 0x0 DUP8 GAS CALL ISZERO DUP1 ISZERO PUSH2 0xCBB JUMPI RETURNDATASIZE PUSH1 0x0 DUP1 RETURNDATACOPY RETURNDATASIZE PUSH1 0x0 REVERT JUMPDEST POP POP POP POP PUSH1 0x40 MLOAD RETURNDATASIZE PUSH1 0x1F NOT PUSH1 0x1F DUP3 ADD AND DUP3 ADD DUP1 PUSH1 0x40 MSTORE POP DUP2 ADD SWAP1 PUSH2 0xCDF SWAP2 SWAP1 PUSH2 0x2335 JUMP JUMPDEST PUSH2 0xD15 JUMPI PUSH1 0x40 MLOAD PUSH32 0x90B8EC1800000000000000000000000000000000000000000000000000000000 DUP2 MSTORE PUSH1 0x4 ADD PUSH1 0x40 MLOAD DUP1 SWAP2 SUB SWAP1 REVERT JUMPDEST DUP4 PUSH32 0xEEC2F3FEB835E2F2FD44281034B04700A1DDDA63DD402949D470A25A7C40B36C DUP4 DUP4 PUSH1 0x40 MLOAD PUSH2 0xD47 SWAP3 SWAP2 SWAP1 PUSH2 0x2362 JUMP JUMPDEST PUSH1 0x40 MLOAD DUP1 SWAP2 SUB SWAP1 LOG2 PUSH2 0xD57 PUSH2 0x1BF2 JUMP JUMPDEST POP POP POP POP JUMP JUMPDEST PUSH2 0xD65 PUSH2 0x1BFC JUMP JUMPDEST PUSH2 0xD6F PUSH1 0x0 PUSH2 0x1C83 JUMP JUMPDEST JUMP JUMPDEST PUSH2 0xD79 PUSH2 0x1BFC JUMP JUMPDEST PUSH1 0x0 PUSH20 0xFFFFFFFFFFFFFFFFFFFFFFFFFFFFFFFFFFFFFFFF AND DUP2 PUSH20 0xFFFFFFFFFFFFFFFFFFFFFFFFFFFFFFFFFFFFFFFF AND SUB PUSH2 0xDDF JUMPI PUSH1 0x40 MLOAD PUSH32 0xE523909000000000000000000000000000000000000000000000000000000000 DUP2 MSTORE PUSH1 0x4 ADD PUSH1 0x40 MLOAD DUP1 SWAP2 SUB SWAP1 REVERT JUMPDEST DUP1 PUSH1 0x2 PUSH1 0x0 PUSH2 0x100 EXP DUP2 SLOAD DUP2 PUSH20 0xFFFFFFFFFFFFFFFFFFFFFFFFFFFFFFFFFFFFFFFF MUL NOT AND SWAP1 DUP4 PUSH20 0xFFFFFFFFFFFFFFFFFFFFFFFFFFFFFFFFFFFFFFFF AND MUL OR SWAP1 SSTORE POP POP JUMP JUMPDEST PUSH1 0x0 DUP1 PUSH1 0x3 PUSH1 0x0 DUP5 DUP2 MSTORE PUSH1 0x20 ADD SWAP1 DUP2 MSTORE PUSH1 0x20 ADD PUSH1 0x0 KECCAK256 SWAP1 POP DUP1 PUSH1 0x4 ADD PUSH1 0x0 SWAP1 SLOAD SWAP1 PUSH2 0x100 EXP SWAP1 DIV PUSH1 0xFF AND PUSH2 0xE83 JUMPI PUSH1 0x40 MLOAD PUSH32 0xB4DA1E3700000000000000000000000000000000000000000000000000000000 DUP2 MSTORE PUSH1 0x4 ADD PUSH1 0x40 MLOAD DUP1 SWAP2 SUB SWAP1 REVERT JUMPDEST PUSH1 0x0 PUSH1 0x4 PUSH1 0x0 DUP4 PUSH1 0x0 ADD PUSH1 0x0 SWAP1 SLOAD SWAP1 PUSH2 0x100 EXP SWAP1 DIV PUSH20 0xFFFFFFFFFFFFFFFFFFFFFFFFFFFFFFFFFFFFFFFF AND PUSH20 0xFFFFFFFFFFFFFFFFFFFFFFFFFFFFFFFFFFFFFFFF AND PUSH20 0xFFFFFFFFFFFFFFFFFFFFFFFFFFFFFFFFFFFFFFFF AND DUP2 MSTORE PUSH1 0x20 ADD SWAP1 DUP2 MSTORE PUSH1 0x20 ADD PUSH1 0x0 KECCAK256 SWAP1 POP PUSH1 0x0 PUSH1 0x7 PUSH1 0x0 DUP5 PUSH1 0x0 ADD PUSH1 0x0 SWAP1 SLOAD SWAP1 PUSH2 0x100 EXP SWAP1 DIV PUSH20 0xFFFFFFFFFFFFFFFFFFFFFFFFFFFFFFFFFFFFFFFF AND PUSH20 0xFFFFFFFFFFFFFFFFFFFFFFFFFFFFFFFFFFFFFFFF AND PUSH20 0xFFFFFFFFFFFFFFFFFFFFFFFFFFFFFFFFFFFFFFFF AND DUP2 MSTORE PUSH1 0x20 ADD SWAP1 DUP2 MSTORE PUSH1 0x20 ADD PUSH1 0x0 KECCAK256 SLOAD SWAP1 POP DUP1 PUSH1 0x8 PUSH2 0xF5F SWAP2 SWAP1 PUSH2 0x238B JUMP JUMPDEST PUSH1 0xA PUSH2 0xF6B SWAP2 SWAP1 PUSH2 0x24F2 JUMP JUMPDEST DUP2 PUSH1 0xA PUSH2 0xF78 SWAP2 SWAP1 PUSH2 0x24F2 JUMP JUMPDEST DUP4 PUSH1 0x2 ADD SLOAD DUP6 PUSH1 0x1 ADD SLOAD PUSH2 0xF8C SWAP2 SWAP1 PUSH2 0x253D JUMP JUMPDEST PUSH2 0xF96 SWAP2 SWAP1 PUSH2 0x25AE JUMP JUMPDEST PUSH2 0xFA0 SWAP2 SWAP1 PUSH2 0x25AE JUMP JUMPDEST SWAP4 POP POP POP POP SWAP2 SWAP1 POP JUMP JUMPDEST PUSH1 0x0 PUSH1 0x1 PUSH1 0x0 SWAP1 SLOAD SWAP1 PUSH2 0x100 EXP SWAP1 DIV PUSH20 0xFFFFFFFFFFFFFFFFFFFFFFFFFFFFFFFFFFFFFFFF AND SWAP1 POP SWAP1 JUMP JUMPDEST PUSH1 0x7 PUSH1 0x20 MSTORE DUP1 PUSH1 0x0 MSTORE PUSH1 0x40 PUSH1 0x0 KECCAK256 PUSH1 0x0 SWAP2 POP SWAP1 POP SLOAD DUP2 JUMP JUMPDEST PUSH2 0xFF4 PUSH2 0x1D51 JUMP JUMPDEST PUSH1 0x3 PUSH1 0x0 DUP4 DUP2 MSTORE PUSH1 0x20 ADD SWAP1 DUP2 MSTORE PUSH1 0x20 ADD PUSH1 0x0 KECCAK256 PUSH1 0x40 MLOAD DUP1 PUSH1 0xC0 ADD PUSH1 0x40 MSTORE SWAP1 DUP2 PUSH1 0x0 DUP3 ADD PUSH1 0x0 SWAP1 SLOAD SWAP1 PUSH2 0x100 EXP SWAP1 DIV PUSH20 0xFFFFFFFFFFFFFFFFFFFFFFFFFFFFFFFFFFFFFFFF AND PUSH20 0xFFFFFFFFFFFFFFFFFFFFFFFFFFFFFFFFFFFFFFFF AND PUSH20 0xFFFFFFFFFFFFFFFFFFFFFFFFFFFFFFFFFFFFFFFF AND DUP2 MSTORE PUSH1 0x20 ADD PUSH1 0x1 DUP3 ADD SLOAD DUP2 MSTORE PUSH1 0x20 ADD PUSH1 0x2 DUP3 ADD PUSH1 0x0 SWAP1 SLOAD SWAP1 PUSH2 0x100 EXP SWAP1 DIV PUSH20 0xFFFFFFFFFFFFFFFFFFFFFFFFFFFFFFFFFFFFFFFF AND PUSH20 0xFFFFFFFFFFFFFFFFFFFFFFFFFFFFFFFFFFFFFFFF AND PUSH20 0xFFFFFFFFFFFFFFFFFFFFFFFFFFFFFFFFFFFFFFFF AND DUP2 MSTORE PUSH1 0x20 ADD PUSH1 0x3 DUP3 ADD SLOAD DUP2 MSTORE PUSH1 0x20 ADD PUSH1 0x4 DUP3 ADD PUSH1 0x0 SWAP1 SLOAD SWAP1 PUSH2 0x100 EXP SWAP1 DIV PUSH1 0xFF AND ISZERO ISZERO ISZERO ISZERO DUP2 MSTORE PUSH1 0x20 ADD PUSH1 0x4 DUP3 ADD PUSH1 0x1 SWAP1 SLOAD SWAP1 PUSH2 0x100 EXP SWAP1 DIV PUSH1 0xFF AND ISZERO ISZERO ISZERO ISZERO DUP2 MSTORE POP POP SWAP1 POP SWAP2 SWAP1 POP JUMP JUMPDEST PUSH1 0x0 PUSH1 0x4 PUSH1 0x0 DUP4 PUSH20 0xFFFFFFFFFFFFFFFFFFFFFFFFFFFFFFFFFFFFFFFF AND PUSH20 0xFFFFFFFFFFFFFFFFFFFFFFFFFFFFFFFFFFFFFFFF AND DUP2 MSTORE PUSH1 0x20 ADD SWAP1 DUP2 MSTORE PUSH1 0x20 ADD PUSH1 0x0 KECCAK256 SWAP1 POP DUP1 PUSH1 0x3 ADD PUSH1 0x0 SWAP1 SLOAD SWAP1 PUSH2 0x100 EXP SWAP1 DIV PUSH1 0xFF AND PUSH2 0x119A JUMPI PUSH1 0x40 MLOAD PUSH32 0x52CC3F7D00000000000000000000000000000000000000000000000000000000 DUP2 MSTORE PUSH1 0x4 ADD PUSH1 0x40 MLOAD DUP1 SWAP2 SUB SWAP1 REVERT JUMPDEST PUSH1 0x0 DUP1 DUP3 PUSH1 0x0 ADD PUSH1 0x0 SWAP1 SLOAD SWAP1 PUSH2 0x100 EXP SWAP1 DIV PUSH20 0xFFFFFFFFFFFFFFFFFFFFFFFFFFFFFFFFFFFFFFFF AND PUSH20 0xFFFFFFFFFFFFFFFFFFFFFFFFFFFFFFFFFFFFFFFF AND PUSH4 0xFEAF968C PUSH1 0x40 MLOAD DUP2 PUSH4 0xFFFFFFFF AND PUSH1 0xE0 SHL DUP2 MSTORE PUSH1 0x4 ADD PUSH1 0xA0 PUSH1 0x40 MLOAD DUP1 DUP4 SUB DUP2 DUP7 GAS STATICCALL ISZERO DUP1 ISZERO PUSH2 0x120C JUMPI RETURNDATASIZE PUSH1 0x0 DUP1 RETURNDATACOPY RETURNDATASIZE PUSH1 0x0 REVERT JUMPDEST POP POP POP POP PUSH1 0x40 MLOAD RETURNDATASIZE PUSH1 0x1F NOT PUSH1 0x1F DUP3 ADD AND DUP3 ADD DUP1 PUSH1 0x40 MSTORE POP DUP2 ADD SWAP1 PUSH2 0x1230 SWAP2 SWAP1 PUSH2 0x266C JUMP JUMPDEST POP SWAP4 POP POP SWAP3 POP POP PUSH1 0x0 DUP3 SGT PUSH2 0x1271 JUMPI PUSH1 0x40 MLOAD PUSH32 0x52CC3F7D00000000000000000000000000000000000000000000000000000000 DUP2 MSTORE PUSH1 0x4 ADD PUSH1 0x40 MLOAD DUP1 SWAP2 SUB SWAP1 REVERT JUMPDEST PUSH2 0xE10 DUP2 TIMESTAMP PUSH2 0x1280 SWAP2 SWAP1 PUSH2 0x238B JUMP JUMPDEST GT ISZERO PUSH2 0x12B8 JUMPI PUSH1 0x40 MLOAD PUSH32 0x19ABF40E00000000000000000000000000000000000000000000000000000000 DUP2 MSTORE PUSH1 0x4 ADD PUSH1 0x40 MLOAD DUP1 SWAP2 SUB SWAP1 REVERT JUMPDEST DUP2 DUP4 PUSH1 0x2 ADD DUP2 SWAP1 SSTORE POP TIMESTAMP DUP4 PUSH1 0x1 ADD DUP2 SWAP1 SSTORE POP DUP4 PUSH20 0xFFFFFFFFFFFFFFFFFFFFFFFFFFFFFFFFFFFFFFFF AND PUSH32 0xD86730737B142FC160892FA8A0F2DB687A92A0E294D1AD70624CF5ACEF03B84 DUP4 PUSH1 0x40 MLOAD PUSH2 0x1310 SWAP2 SWAP1 PUSH2 0x2092 JUMP JUMPDEST PUSH1 0x40 MLOAD DUP1 SWAP2 SUB SWAP1 LOG2 POP POP POP POP JUMP JUMPDEST PUSH1 0x4 PUSH1 0x20 MSTORE DUP1 PUSH1 0x0 MSTORE PUSH1 0x40 PUSH1 0x0 KECCAK256 PUSH1 0x0 SWAP2 POP SWAP1 POP DUP1 PUSH1 0x0 ADD PUSH1 0x0 SWAP1 SLOAD SWAP1 PUSH2 0x100 EXP SWAP1 DIV PUSH20 0xFFFFFFFFFFFFFFFFFFFFFFFFFFFFFFFFFFFFFFFF AND SWAP1 DUP1 PUSH1 0x1 ADD SLOAD SWAP1 DUP1 PUSH1 0x2 ADD SLOAD SWAP1 DUP1 PUSH1 0x3 ADD PUSH1 0x0 SWAP1 SLOAD SWAP1 PUSH2 0x100 EXP SWAP1 DIV PUSH1 0xFF AND SWAP1 POP DUP5 JUMP JUMPDEST PUSH1 0x0 PUSH1 0x3 PUSH1 0x0 DUP4 DUP2 MSTORE PUSH1 0x20 ADD SWAP1 DUP2 MSTORE PUSH1 0x20 ADD PUSH1 0x0 KECCAK256 PUSH1 0x4 ADD PUSH1 0x0 SWAP1 SLOAD SWAP1 PUSH2 0x100 EXP SWAP1 DIV PUSH1 0xFF AND SWAP1 POP SWAP2 SWAP1 POP JUMP JUMPDEST PUSH2 0x13B0 PUSH2 0x1BAC JUMP JUMPDEST PUSH1 0x2 PUSH1 0x0 SWAP1 SLOAD SWAP1 PUSH2 0x100 EXP SWAP1 DIV PUSH20 0xFFFFFFFFFFFFFFFFFFFFFFFFFFFFFFFFFFFFFFFF AND PUSH20 0xFFFFFFFFFFFFFFFFFFFFFFFFFFFFFFFFFFFFFFFF AND CALLER PUSH20 0xFFFFFFFFFFFFFFFFFFFFFFFFFFFFFFFFFFFFFFFF AND EQ PUSH2 0x1437 JUMPI PUSH1 0x40 MLOAD PUSH32 0x344FD58600000000000000000000000000000000000000000000000000000000 DUP2 MSTORE PUSH1 0x4 ADD PUSH1 0x40 MLOAD DUP1 SWAP2 SUB SWAP1 REVERT JUMPDEST PUSH1 0x0 PUSH1 0x3 PUSH1 0x0 DUP5 DUP2 MSTORE PUSH1 0x20 ADD SWAP1 DUP2 MSTORE PUSH1 0x20 ADD PUSH1 0x0 KECCAK256 SWAP1 POP DUP1 PUSH1 0x4 ADD PUSH1 0x0 SWAP1 SLOAD SWAP1 PUSH2 0x100 EXP SWAP1 DIV PUSH1 0xFF AND PUSH2 0x1496 JUMPI PUSH1 0x40 MLOAD PUSH32 0xB4DA1E3700000000000000000000000000000000000000000000000000000000 DUP2 MSTORE PUSH1 0x4 ADD PUSH1 0x40 MLOAD DUP1 SWAP2 SUB SWAP1 REVERT JUMPDEST PUSH2 0x14C3 DUP2 PUSH1 0x0 ADD PUSH1 0x0 SWAP1 SLOAD SWAP1 PUSH2 0x100 EXP SWAP1 DIV PUSH20 0xFFFFFFFFFFFFFFFFFFFFFFFFFFFFFFFFFFFFFFFF AND PUSH2 0x110F JUMP JUMPDEST PUSH1 0x0 PUSH2 0x14CE DUP5 PUSH2 0xE23 JUMP JUMPDEST SWAP1 POP PUSH1 0x0 PUSH1 0x64 PUSH1 0x6E DUP6 PUSH2 0x14E1 SWAP2 SWAP1 PUSH2 0x253D JUMP JUMPDEST PUSH2 0x14EB SWAP2 SWAP1 PUSH2 0x25AE JUMP JUMPDEST SWAP1 POP DUP1 DUP3 GT ISZERO PUSH2 0x1527 JUMPI PUSH1 0x40 MLOAD PUSH32 0x5C4D8AC00000000000000000000000000000000000000000000000000000000 DUP2 MSTORE PUSH1 0x4 ADD PUSH1 0x40 MLOAD DUP1 SWAP2 SUB SWAP1 REVERT JUMPDEST PUSH1 0x0 PUSH2 0x2710 PUSH2 0x1F4 DUP6 PUSH1 0x1 ADD SLOAD PUSH2 0x153E SWAP2 SWAP1 PUSH2 0x253D JUMP JUMPDEST PUSH2 0x1548 SWAP2 SWAP1 PUSH2 0x25AE JUMP JUMPDEST SWAP1 POP PUSH1 0x0 DUP2 DUP6 PUSH1 0x1 ADD SLOAD PUSH2 0x155C SWAP2 SWAP1 PUSH2 0x229E JUMP JUMPDEST SWAP1 POP PUSH1 0x0 DUP6 PUSH1 0x4 ADD PUSH1 0x0 PUSH2 0x100 EXP DUP2 SLOAD DUP2 PUSH1 0xFF MUL NOT AND SWAP1 DUP4 ISZERO ISZERO MUL OR SWAP1 SSTORE POP PUSH1 0x1 PUSH1 0x5 PUSH1 0x0 DUP10 DUP2 MSTORE PUSH1 0x20 ADD SWAP1 DUP2 MSTORE PUSH1 0x20 ADD PUSH1 0x0 KECCAK256 PUSH1 0x0 PUSH2 0x100 EXP DUP2 SLOAD DUP2 PUSH1 0xFF MUL NOT AND SWAP1 DUP4 ISZERO ISZERO MUL OR SWAP1 SSTORE POP DUP5 PUSH1 0x0 ADD PUSH1 0x0 SWAP1 SLOAD SWAP1 PUSH2 0x100 EXP SWAP1 DIV PUSH20 0xFFFFFFFFFFFFFFFFFFFFFFFFFFFFFFFFFFFFFFFF AND PUSH20 0xFFFFFFFFFFFFFFFFFFFFFFFFFFFFFFFFFFFFFFFF AND PUSH4 0xA9059CBB CALLER DUP4 PUSH1 0x40 MLOAD DUP4 PUSH4 0xFFFFFFFF AND PUSH1 0xE0 SHL DUP2 MSTORE PUSH1 0x4 ADD PUSH2 0x1606 SWAP3 SWAP2 SWAP1 PUSH2 0x2362 JUMP JUMPDEST PUSH1 0x20 PUSH1 0x40 MLOAD DUP1 DUP4 SUB DUP2 PUSH1 0x0 DUP8 GAS CALL ISZERO DUP1 ISZERO PUSH2 0x1625 JUMPI RETURNDATASIZE PUSH1 0x0 DUP1 RETURNDATACOPY RETURNDATASIZE PUSH1 0x0 REVERT JUMPDEST POP POP POP POP PUSH1 0x40 MLOAD RETURNDATASIZE PUSH1 0x1F NOT PUSH1 0x1F DUP3 ADD AND DUP3 ADD DUP1 PUSH1 0x40 MSTORE POP DUP2 ADD SWAP1 PUSH2 0x1649 SWAP2 SWAP1 PUSH2 0x2335 JUMP JUMPDEST PUSH2 0x167F JUMPI PUSH1 0x40 MLOAD PUSH32 0x90B8EC1800000000000000000000000000000000000000000000000000000000 DUP2 MSTORE PUSH1 0x4 ADD PUSH1 0x40 MLOAD DUP1 SWAP2 SUB SWAP1 REVERT JUMPDEST DUP7 PUSH32 0xCAFCA847A6C6645C7DD7BB55A47759CD884F49BD6E8C273F4EE701E8B81BCDA0 CALLER DUP4 PUSH1 0x40 MLOAD PUSH2 0x16B1 SWAP3 SWAP2 SWAP1 PUSH2 0x2362 JUMP JUMPDEST PUSH1 0x40 MLOAD DUP1 SWAP2 SUB SWAP1 LOG2 POP POP POP POP POP PUSH2 0x16C6 PUSH2 0x1BF2 JUMP JUMPDEST POP POP JUMP JUMPDEST PUSH1 0x0 DUP1 PUSH1 0x3 PUSH1 0x0 DUP6 DUP2 MSTORE PUSH1 0x20 ADD SWAP1 DUP2 MSTORE PUSH1 0x20 ADD PUSH1 0x0 KECCAK256 SWAP1 POP DUP1 PUSH1 0x4 ADD PUSH1 0x0 SWAP1 SLOAD SWAP1 PUSH2 0x100 EXP SWAP1 DIV PUSH1 0xFF AND PUSH2 0x172A JUMPI PUSH1 0x40 MLOAD PUSH32 0xB4DA1E3700000000000000000000000000000000000000000000000000000000 DUP2 MSTORE PUSH1 0x4 ADD PUSH1 0x40 MLOAD DUP1 SWAP2 SUB SWAP1 REVERT JUMPDEST PUSH2 0x1757 DUP2 PUSH1 0x0 ADD PUSH1 0x0 SWAP1 SLOAD SWAP1 PUSH2 0x100 EXP SWAP1 DIV PUSH20 0xFFFFFFFFFFFFFFFFFFFFFFFFFFFFFFFFFFFFFFFF AND PUSH2 0x110F JUMP JUMPDEST PUSH1 0x0 PUSH2 0x1762 DUP6 PUSH2 0xE23 JUMP JUMPDEST SWAP1 POP PUSH1 0x0 PUSH1 0x64 PUSH1 0x7D DUP7 PUSH2 0x1775 SWAP2 SWAP1 PUSH2 0x253D JUMP JUMPDEST PUSH2 0x177F SWAP2 SWAP1 PUSH2 0x25AE JUMP JUMPDEST SWAP1 POP PUSH1 0x0 DUP2 DUP4 LT ISZERO SWAP1 POP DUP1 ISZERO DUP1 ISZERO PUSH2 0x17A6 JUMPI POP DUP4 PUSH1 0x4 ADD PUSH1 0x1 SWAP1 SLOAD SWAP1 PUSH2 0x100 EXP SWAP1 DIV PUSH1 0xFF AND ISZERO JUMPDEST ISZERO PUSH2 0x180C JUMPI PUSH1 0x1 DUP5 PUSH1 0x4 ADD PUSH1 0x1 PUSH2 0x100 EXP DUP2 SLOAD DUP2 PUSH1 0xFF MUL NOT AND SWAP1 DUP4 ISZERO ISZERO MUL OR SWAP1 SSTORE POP DUP7 PUSH32 0xD6FCD2D687F7C7D926229F9CDC1186BA2E2C45856D211C792D8E395593C7E4E1 DUP5 DUP5 PUSH2 0x17F6 SWAP2 SWAP1 PUSH2 0x238B JUMP JUMPDEST PUSH1 0x40 MLOAD PUSH2 0x1803 SWAP2 SWAP1 PUSH2 0x2092 JUMP JUMPDEST PUSH1 0x40 MLOAD DUP1 SWAP2 SUB SWAP1 LOG2 JUMPDEST DUP1 SWAP5 POP POP POP POP POP SWAP3 SWAP2 POP POP JUMP JUMPDEST PUSH1 0x2 PUSH1 0x0 SWAP1 SLOAD SWAP1 PUSH2 0x100 EXP SWAP1 DIV PUSH20 0xFFFFFFFFFFFFFFFFFFFFFFFFFFFFFFFFFFFFFFFF AND DUP2 JUMP JUMPDEST PUSH1 0x6 PUSH1 0x20 MSTORE DUP1 PUSH1 0x0 MSTORE PUSH1 0x40 PUSH1 0x0 KECCAK256 PUSH1 0x0 SWAP2 POP SLOAD SWAP1 PUSH2 0x100 EXP SWAP1 DIV PUSH1 0xFF AND DUP2 JUMP JUMPDEST PUSH2 0x1867 PUSH2 0x1BAC JUMP JUMPDEST PUSH1 0x2 PUSH1 0x0 SWAP1 SLOAD SWAP1 PUSH2 0x100 EXP SWAP1 DIV PUSH20 0xFFFFFFFFFFFFFFFFFFFFFFFFFFFFFFFFFFFFFFFF AND PUSH20 0xFFFFFFFFFFFFFFFFFFFFFFFFFFFFFFFFFFFFFFFF AND CALLER PUSH20 0xFFFFFFFFFFFFFFFFFFFFFFFFFFFFFFFFFFFFFFFF AND EQ PUSH2 0x18EE JUMPI PUSH1 0x40 MLOAD PUSH32 0x344FD58600000000000000000000000000000000000000000000000000000000 DUP2 MSTORE PUSH1 0x4 ADD PUSH1 0x40 MLOAD DUP1 SWAP2 SUB SWAP1 REVERT JUMPDEST PUSH1 0x0 PUSH1 0x3 PUSH1 0x0 DUP5 DUP2 MSTORE PUSH1 0x20 ADD SWAP1 DUP2 MSTORE PUSH1 0x20 ADD PUSH1 0x0 KECCAK256 SWAP1 POP DUP1 PUSH1 0x4 ADD PUSH1 0x0 SWAP1 SLOAD SWAP1 PUSH2 0x100 EXP SWAP1 DIV PUSH1 0xFF AND PUSH2 0x194D JUMPI PUSH1 0x40 MLOAD PUSH32 0xB4DA1E3700000000000000000000000000000000000000000000000000000000 DUP2 MSTORE PUSH1 0x4 ADD PUSH1 0x40 MLOAD DUP1 SWAP2 SUB SWAP1 REVERT JUMPDEST DUP2 PUSH20 0xFFFFFFFFFFFFFFFFFFFFFFFFFFFFFFFFFFFFFFFF AND DUP2 PUSH1 0x2 ADD PUSH1 0x0 SWAP1 SLOAD SWAP1 PUSH2 0x100 EXP SWAP1 DIV PUSH20 0xFFFFFFFFFFFFFFFFFFFFFFFFFFFFFFFFFFFFFFFF AND PUSH20 0xFFFFFFFFFFFFFFFFFFFFFFFFFFFFFFFFFFFFFFFF AND EQ PUSH2 0x19D6 JUMPI PUSH1 0x40 MLOAD PUSH32 0x344FD58600000000000000000000000000000000000000000000000000000000 DUP2 MSTORE PUSH1 0x4 ADD PUSH1 0x40 MLOAD DUP1 SWAP2 SUB SWAP1 REVERT JUMPDEST PUSH1 0x0 DUP2 PUSH1 0x1 ADD SLOAD SWAP1 POP PUSH1 0x0 DUP3 PUSH1 0x4 ADD PUSH1 0x0 PUSH2 0x100 EXP DUP2 SLOAD DUP2 PUSH1 0xFF MUL NOT AND SWAP1 DUP4 ISZERO ISZERO MUL OR SWAP1 SSTORE POP PUSH1 0x0 DUP3 PUSH1 0x1 ADD DUP2 SWAP1 SSTORE POP DUP2 PUSH1 0x0 ADD PUSH1 0x0 SWAP1 SLOAD SWAP1 PUSH2 0x100 EXP SWAP1 DIV PUSH20 0xFFFFFFFFFFFFFFFFFFFFFFFFFFFFFFFFFFFFFFFF AND PUSH20 0xFFFFFFFFFFFFFFFFFFFFFFFFFFFFFFFFFFFFFFFF AND PUSH4 0xA9059CBB DUP5 DUP4 PUSH1 0x40 MLOAD DUP4 PUSH4 0xFFFFFFFF AND PUSH1 0xE0 SHL DUP2 MSTORE PUSH1 0x4 ADD PUSH2 0x1A65 SWAP3 SWAP2 SWAP1 PUSH2 0x2362 JUMP JUMPDEST PUSH1 0x20 PUSH1 0x40 MLOAD DUP1 DUP4 SUB DUP2 PUSH1 0x0 DUP8 GAS CALL ISZERO DUP1 ISZERO PUSH2 0x1A84 JUMPI RETURNDATASIZE PUSH1 0x0 DUP1 RETURNDATACOPY RETURNDATASIZE PUSH1 0x0 REVERT JUMPDEST POP POP POP POP PUSH1 0x40 MLOAD RETURNDATASIZE PUSH1 0x1F NOT PUSH1 0x1F DUP3 ADD AND DUP3 ADD DUP1 PUSH1 0x40 MSTORE POP DUP2 ADD SWAP1 PUSH2 0x1AA8 SWAP2 SWAP1 PUSH2 0x2335 JUMP JUMPDEST PUSH2 0x1ADE JUMPI PUSH1 0x40 MLOAD PUSH32 0x90B8EC1800000000000000000000000000000000000000000000000000000000 DUP2 MSTORE PUSH1 0x4 ADD PUSH1 0x40 MLOAD DUP1 SWAP2 SUB SWAP1 REVERT JUMPDEST DUP4 PUSH32 0x757B323B5139C5E30FE0A1C4B13E38DECE5AAD9273138C1E3D1ED9191C6E73B2 DUP5 DUP4 PUSH1 0x40 MLOAD PUSH2 0x1B10 SWAP3 SWAP2 SWAP1 PUSH2 0x2362 JUMP JUMPDEST PUSH1 0x40 MLOAD DUP1 SWAP2 SUB SWAP1 LOG2 POP POP PUSH2 0x1B22 PUSH2 0x1BF2 JUMP JUMPDEST POP POP JUMP JUMPDEST PUSH2 0x1B2E PUSH2 0x1BFC JUMP JUMPDEST PUSH1 0x0 PUSH20 0xFFFFFFFFFFFFFFFFFFFFFFFFFFFFFFFFFFFFFFFF AND DUP2 PUSH20 0xFFFFFFFFFFFFFFFFFFFFFFFFFFFFFFFFFFFFFFFF AND SUB PUSH2 0x1BA0 JUMPI PUSH1 0x0 PUSH1 0x40 MLOAD PUSH32 0x1E4FBDF700000000000000000000000000000000000000000000000000000000 DUP2 MSTORE PUSH1 0x4 ADD PUSH2 0x1B97 SWAP2 SWAP1 PUSH2 0x20AD JUMP JUMPDEST PUSH1 0x40 MLOAD DUP1 SWAP2 SUB SWAP1 REVERT JUMPDEST PUSH2 0x1BA9 DUP2 PUSH2 0x1C83 JUMP JUMPDEST POP JUMP JUMPDEST PUSH1 0x2 PUSH1 0x0 SLOAD SUB PUSH2 0x1BE8 JUMPI PUSH1 0x40 MLOAD PUSH32 0x3EE5AEB500000000000000000000000000000000000000000000000000000000 DUP2 MSTORE PUSH1 0x4 ADD PUSH1 0x40 MLOAD DUP1 SWAP2 SUB SWAP1 REVERT JUMPDEST PUSH1 0x2 PUSH1 0x0 DUP2 SWAP1 SSTORE POP JUMP JUMPDEST PUSH1 0x1 PUSH1 0x0 DUP2 SWAP1 SSTORE POP JUMP JUMPDEST PUSH2 0x1C04 PUSH2 0x1D49 JUMP JUMPDEST PUSH20 0xFFFFFFFFFFFFFFFFFFFFFFFFFFFFFFFFFFFFFFFF AND PUSH2 0x1C22 PUSH2 0xFAA JUMP JUMPDEST PUSH20 0xFFFFFFFFFFFFFFFFFFFFFFFFFFFFFFFFFFFFFFFF AND EQ PUSH2 0x1C81 JUMPI PUSH2 0x1C45 PUSH2 0x1D49 JUMP JUMPDEST PUSH1 0x40 MLOAD PUSH32 0x118CDAA700000000000000000000000000000000000000000000000000000000 DUP2 MSTORE PUSH1 0x4 ADD PUSH2 0x1C78 SWAP2 SWAP1 PUSH2 0x20AD JUMP JUMPDEST PUSH1 0x40 MLOAD DUP1 SWAP2 SUB SWAP1 REVERT JUMPDEST JUMP JUMPDEST PUSH1 0x0 PUSH1 0x1 PUSH1 0x0 SWAP1 SLOAD SWAP1 PUSH2 0x100 EXP SWAP1 DIV PUSH20 0xFFFFFFFFFFFFFFFFFFFFFFFFFFFFFFFFFFFFFFFF AND SWAP1 POP DUP2 PUSH1 0x1 PUSH1 0x0 PUSH2 0x100 EXP DUP2 SLOAD DUP2 PUSH20 0xFFFFFFFFFFFFFFFFFFFFFFFFFFFFFFFFFFFFFFFF MUL NOT AND SWAP1 DUP4 PUSH20 0xFFFFFFFFFFFFFFFFFFFFFFFFFFFFFFFFFFFFFFFF AND MUL OR SWAP1 SSTORE POP DUP2 PUSH20 0xFFFFFFFFFFFFFFFFFFFFFFFFFFFFFFFFFFFFFFFF AND DUP2 PUSH20 0xFFFFFFFFFFFFFFFFFFFFFFFFFFFFFFFFFFFFFFFF AND PUSH32 0x8BE0079C531659141344CD1FD0A4F28419497F9722A3DAAFE3B4186F6B6457E0 PUSH1 0x40 MLOAD PUSH1 0x40 MLOAD DUP1 SWAP2 SUB SWAP1 LOG3 POP POP JUMP JUMPDEST PUSH1 0x0 CALLER SWAP1 POP SWAP1 JUMP JUMPDEST PUSH1 0x40 MLOAD DUP1 PUSH1 0xC0 ADD PUSH1 0x40 MSTORE DUP1 PUSH1 0x0 PUSH20 0xFFFFFFFFFFFFFFFFFFFFFFFFFFFFFFFFFFFFFFFF AND DUP2 MSTORE PUSH1 0x20 ADD PUSH1 0x0 DUP2 MSTORE PUSH1 0x20 ADD PUSH1 0x0 PUSH20 0xFFFFFFFFFFFFFFFFFFFFFFFFFFFFFFFFFFFFFFFF AND DUP2 MSTORE PUSH1 0x20 ADD PUSH1 0x0 DUP2 MSTORE PUSH1 0x20 ADD PUSH1 0x0 ISZERO ISZERO DUP2 MSTORE PUSH1 0x20 ADD PUSH1 0x0 ISZERO ISZERO DUP2 MSTORE POP SWAP1 JUMP JUMPDEST PUSH1 0x0 DUP1 REVERT JUMPDEST PUSH1 0x0 DUP2 SWAP1 POP SWAP2 SWAP1 POP JUMP JUMPDEST PUSH2 0x1DCF DUP2 PUSH2 0x1DBC JUMP JUMPDEST DUP2 EQ PUSH2 0x1DDA JUMPI PUSH1 0x0 DUP1 REVERT JUMPDEST POP JUMP JUMPDEST PUSH1 0x0 DUP2 CALLDATALOAD SWAP1 POP PUSH2 0x1DEC DUP2 PUSH2 0x1DC6 JUMP JUMPDEST SWAP3 SWAP2 POP POP JUMP JUMPDEST PUSH1 0x0 DUP1 PUSH1 0x40 DUP4 DUP6 SUB SLT ISZERO PUSH2 0x1E09 JUMPI PUSH2 0x1E08 PUSH2 0x1DB7 JUMP JUMPDEST JUMPDEST PUSH1 0x0 PUSH2 0x1E17 DUP6 DUP3 DUP7 ADD PUSH2 0x1DDD JUMP JUMPDEST SWAP3 POP POP PUSH1 0x20 PUSH2 0x1E28 DUP6 DUP3 DUP7 ADD PUSH2 0x1DDD JUMP JUMPDEST SWAP2 POP POP SWAP3 POP SWAP3 SWAP1 POP JUMP JUMPDEST PUSH1 0x0 PUSH1 0x20 DUP3 DUP5 SUB SLT ISZERO PUSH2 0x1E48 JUMPI PUSH2 0x1E47 PUSH2 0x1DB7 JUMP JUMPDEST JUMPDEST PUSH1 0x0 PUSH2 0x1E56 DUP5 DUP3 DUP6 ADD PUSH2 0x1DDD JUMP JUMPDEST SWAP2 POP POP SWAP3 SWAP2 POP POP JUMP JUMPDEST PUSH1 0x0 DUP2 ISZERO ISZERO SWAP1 POP SWAP2 SWAP1 POP JUMP JUMPDEST PUSH2 0x1E74 DUP2 PUSH2 0x1E5F JUMP JUMPDEST DUP3 MSTORE POP POP JUMP JUMPDEST PUSH1 0x0 PUSH1 0x20 DUP3 ADD SWAP1 POP PUSH2 0x1E8F PUSH1 0x0 DUP4 ADD DUP5 PUSH2 0x1E6B JUMP JUMPDEST SWAP3 SWAP2 POP POP JUMP JUMPDEST PUSH1 0x0 PUSH20 0xFFFFFFFFFFFFFFFFFFFFFFFFFFFFFFFFFFFFFFFF DUP3 AND SWAP1 POP SWAP2 SWAP1 POP JUMP JUMPDEST PUSH1 0x0 PUSH2 0x1EC0 DUP3 PUSH2 0x1E95 JUMP JUMPDEST SWAP1 POP SWAP2 SWAP1 POP JUMP JUMPDEST PUSH2 0x1ED0 DUP2 PUSH2 0x1EB5 JUMP JUMPDEST DUP3 MSTORE POP POP JUMP JUMPDEST PUSH2 0x1EDF DUP2 PUSH2 0x1DBC JUMP JUMPDEST DUP3 MSTORE POP POP JUMP JUMPDEST PUSH1 0x0 PUSH1 0xC0 DUP3 ADD SWAP1 POP PUSH2 0x1EFA PUSH1 0x0 DUP4 ADD DUP10 PUSH2 0x1EC7 JUMP JUMPDEST PUSH2 0x1F07 PUSH1 0x20 DUP4 ADD DUP9 PUSH2 0x1ED6 JUMP JUMPDEST PUSH2 0x1F14 PUSH1 0x40 DUP4 ADD DUP8 PUSH2 0x1EC7 JUMP JUMPDEST PUSH2 0x1F21 PUSH1 0x60 DUP4 ADD DUP7 PUSH2 0x1ED6 JUMP JUMPDEST PUSH2 0x1F2E PUSH1 0x80 DUP4 ADD DUP6 PUSH2 0x1E6B JUMP JUMPDEST PUSH2 0x1F3B PUSH1 0xA0 DUP4 ADD DUP5 PUSH2 0x1E6B JUMP JUMPDEST SWAP8 SWAP7 POP POP POP POP POP POP POP JUMP JUMPDEST PUSH2 0x1F4F DUP2 PUSH2 0x1EB5 JUMP JUMPDEST DUP2 EQ PUSH2 0x1F5A JUMPI PUSH1 0x0 DUP1 REVERT JUMPDEST POP JUMP JUMPDEST PUSH1 0x0 DUP2 CALLDATALOAD SWAP1 POP PUSH2 0x1F6C DUP2 PUSH2 0x1F46 JUMP JUMPDEST SWAP3 SWAP2 POP POP JUMP JUMPDEST PUSH1 0x0 PUSH1 0xFF DUP3 AND SWAP1 POP SWAP2 SWAP1 POP JUMP JUMPDEST PUSH2 0x1F88 DUP2 PUSH2 0x1F72 JUMP JUMPDEST DUP2 EQ PUSH2 0x1F93 JUMPI PUSH1 0x0 DUP1 REVERT JUMPDEST POP JUMP JUMPDEST PUSH1 0x0 DUP2 CALLDATALOAD SWAP1 POP PUSH2 0x1FA5 DUP2 PUSH2 0x1F7F JUMP JUMPDEST SWAP3 SWAP2 POP POP JUMP JUMPDEST PUSH1 0x0 DUP1 PUSH1 0x0 PUSH1 0x60 DUP5 DUP7 SUB SLT ISZERO PUSH2 0x1FC4 JUMPI PUSH2 0x1FC3 PUSH2 0x1DB7 JUMP JUMPDEST JUMPDEST PUSH1 0x0 PUSH2 0x1FD2 DUP7 DUP3 DUP8 ADD PUSH2 0x1F5D JUMP JUMPDEST SWAP4 POP POP PUSH1 0x20 PUSH2 0x1FE3 DUP7 DUP3 DUP8 ADD PUSH2 0x1F5D JUMP JUMPDEST SWAP3 POP POP PUSH1 0x40 PUSH2 0x1FF4 DUP7 DUP3 DUP8 ADD PUSH2 0x1F96 JUMP JUMPDEST SWAP2 POP POP SWAP3 POP SWAP3 POP SWAP3 JUMP JUMPDEST PUSH1 0x0 DUP1 PUSH1 0x0 DUP1 PUSH1 0x80 DUP6 DUP8 SUB SLT ISZERO PUSH2 0x2018 JUMPI PUSH2 0x2017 PUSH2 0x1DB7 JUMP JUMPDEST JUMPDEST PUSH1 0x0 PUSH2 0x2026 DUP8 DUP3 DUP9 ADD PUSH2 0x1DDD JUMP JUMPDEST SWAP5 POP POP PUSH1 0x20 PUSH2 0x2037 DUP8 DUP3 DUP9 ADD PUSH2 0x1F5D JUMP JUMPDEST SWAP4 POP POP PUSH1 0x40 PUSH2 0x2048 DUP8 DUP3 DUP9 ADD PUSH2 0x1F5D JUMP JUMPDEST SWAP3 POP POP PUSH1 0x60 PUSH2 0x2059 DUP8 DUP3 DUP9 ADD PUSH2 0x1DDD JUMP JUMPDEST SWAP2 POP POP SWAP3 SWAP6 SWAP2 SWAP5 POP SWAP3 POP JUMP JUMPDEST PUSH1 0x0 PUSH1 0x20 DUP3 DUP5 SUB SLT ISZERO PUSH2 0x207B JUMPI PUSH2 0x207A PUSH2 0x1DB7 JUMP JUMPDEST JUMPDEST PUSH1 0x0 PUSH2 0x2089 DUP5 DUP3 DUP6 ADD PUSH2 0x1F5D JUMP JUMPDEST SWAP2 POP POP SWAP3 SWAP2 POP POP JUMP JUMPDEST PUSH1 0x0 PUSH1 0x20 DUP3 ADD SWAP1 POP PUSH2 0x20A7 PUSH1 0x0 DUP4 ADD DUP5 PUSH2 0x1ED6 JUMP JUMPDEST SWAP3 SWAP2 POP POP JUMP JUMPDEST PUSH1 0x0 PUSH1 0x20 DUP3 ADD SWAP1 POP PUSH2 0x20C2 PUSH1 0x0 DUP4 ADD DUP5 PUSH2 0x1EC7 JUMP JUMPDEST SWAP3 SWAP2 POP POP JUMP JUMPDEST PUSH2 0x20D1 DUP2 PUSH2 0x1EB5 JUMP JUMPDEST DUP3 MSTORE POP POP JUMP JUMPDEST PUSH2 0x20E0 DUP2 PUSH2 0x1DBC JUMP JUMPDEST DUP3 MSTORE POP POP JUMP JUMPDEST PUSH2 0x20EF DUP2 PUSH2 0x1E5F JUMP JUMPDEST DUP3 MSTORE POP POP JUMP JUMPDEST PUSH1 0xC0 DUP3 ADD PUSH1 0x0 DUP3 ADD MLOAD PUSH2 0x210B PUSH1 0x0 DUP6 ADD DUP3 PUSH2 0x20C8 JUMP JUMPDEST POP PUSH1 0x20 DUP3 ADD MLOAD PUSH2 0x211E PUSH1 0x20 DUP6 ADD DUP3 PUSH2 0x20D7 JUMP JUMPDEST POP PUSH1 0x40 DUP3 ADD MLOAD PUSH2 0x2131 PUSH1 0x40 DUP6 ADD DUP3 PUSH2 0x20C8 JUMP JUMPDEST POP PUSH1 0x60 DUP3 ADD MLOAD PUSH2 0x2144 PUSH1 0x60 DUP6 ADD DUP3 PUSH2 0x20D7 JUMP JUMPDEST POP PUSH1 0x80 DUP3 ADD MLOAD PUSH2 0x2157 PUSH1 0x80 DUP6 ADD DUP3 PUSH2 0x20E6 JUMP JUMPDEST POP PUSH1 0xA0 DUP3 ADD MLOAD PUSH2 0x216A PUSH1 0xA0 DUP6 ADD DUP3 PUSH2 0x20E6 JUMP JUMPDEST POP POP POP POP JUMP JUMPDEST PUSH1 0x0 PUSH1 0xC0 DUP3 ADD SWAP1 POP PUSH2 0x2185 PUSH1 0x0 DUP4 ADD DUP5 PUSH2 0x20F5 JUMP JUMPDEST SWAP3 SWAP2 POP POP JUMP JUMPDEST PUSH1 0x0 DUP2 SWAP1 POP SWAP2 SWAP1 POP JUMP JUMPDEST PUSH1 0x0 PUSH2 0x21B0 PUSH2 0x21AB PUSH2 0x21A6 DUP5 PUSH2 0x1E95 JUMP JUMPDEST PUSH2 0x218B JUMP JUMPDEST PUSH2 0x1E95 JUMP JUMPDEST SWAP1 POP SWAP2 SWAP1 POP JUMP JUMPDEST PUSH1 0x0 PUSH2 0x21C2 DUP3 PUSH2 0x2195 JUMP JUMPDEST SWAP1 POP SWAP2 SWAP1 POP JUMP JUMPDEST PUSH1 0x0 PUSH2 0x21D4 DUP3 PUSH2 0x21B7 JUMP JUMPDEST SWAP1 POP SWAP2 SWAP1 POP JUMP JUMPDEST PUSH2 0x21E4 DUP2 PUSH2 0x21C9 JUMP JUMPDEST DUP3 MSTORE POP POP JUMP JUMPDEST PUSH1 0x0 PUSH1 0x80 DUP3 ADD SWAP1 POP PUSH2 0x21FF PUSH1 0x0 DUP4 ADD DUP8 PUSH2 0x21DB JUMP JUMPDEST PUSH2 0x220C PUSH1 0x20 DUP4 ADD DUP7 PUSH2 0x1ED6 JUMP JUMPDEST PUSH2 0x2219 PUSH1 0x40 DUP4 ADD DUP6 PUSH2 0x1ED6 JUMP JUMPDEST PUSH2 0x2226 PUSH1 0x60 DUP4 ADD DUP5 PUSH2 0x1E6B JUMP JUMPDEST SWAP6 SWAP5 POP POP POP POP POP JUMP JUMPDEST PUSH1 0x0 DUP1 PUSH1 0x40 DUP4 DUP6 SUB SLT ISZERO PUSH2 0x2246 JUMPI PUSH2 0x2245 PUSH2 0x1DB7 JUMP JUMPDEST JUMPDEST PUSH1 0x0 PUSH2 0x2254 DUP6 DUP3 DUP7 ADD PUSH2 0x1DDD JUMP JUMPDEST SWAP3 POP POP PUSH1 0x20 PUSH2 0x2265 DUP6 DUP3 DUP7 ADD PUSH2 0x1F5D JUMP JUMPDEST SWAP2 POP POP SWAP3 POP SWAP3 SWAP1 POP JUMP JUMPDEST PUSH32 0x4E487B7100000000000000000000000000000000000000000000000000000000 PUSH1 0x0 MSTORE PUSH1 0x11 PUSH1 0x4 MSTORE PUSH1 0x24 PUSH1 0x0 REVERT JUMPDEST PUSH1 0x0 PUSH2 0x22A9 DUP3 PUSH2 0x1DBC JUMP JUMPDEST SWAP2 POP PUSH2 0x22B4 DUP4 PUSH2 0x1DBC JUMP JUMPDEST SWAP3 POP DUP3 DUP3 ADD SWAP1 POP DUP1 DUP3 GT ISZERO PUSH2 0x22CC JUMPI PUSH2 0x22CB PUSH2 0x226F JUMP JUMPDEST JUMPDEST SWAP3 SWAP2 POP POP JUMP JUMPDEST PUSH1 0x0 PUSH1 0x60 DUP3 ADD SWAP1 POP PUSH2 0x22E7 PUSH1 0x0 DUP4 ADD DUP7 PUSH2 0x1EC7 JUMP JUMPDEST PUSH2 0x22F4 PUSH1 0x20 DUP4 ADD DUP6 PUSH2 0x1EC7 JUMP JUMPDEST PUSH2 0x2301 PUSH1 0x40 DUP4 ADD DUP5 PUSH2 0x1ED6 JUMP JUMPDEST SWAP5 SWAP4 POP POP POP POP JUMP JUMPDEST PUSH2 0x2312 DUP2 PUSH2 0x1E5F JUMP JUMPDEST DUP2 EQ PUSH2 0x231D JUMPI PUSH1 0x0 DUP1 REVERT JUMPDEST POP JUMP JUMPDEST PUSH1 0x0 DUP2 MLOAD SWAP1 POP PUSH2 0x232F DUP2 PUSH2 0x2309 JUMP JUMPDEST SWAP3 SWAP2 POP POP JUMP JUMPDEST PUSH1 0x0 PUSH1 0x20 DUP3 DUP5 SUB SLT ISZERO PUSH2 0x234B JUMPI PUSH2 0x234A PUSH2 0x1DB7 JUMP JUMPDEST JUMPDEST PUSH1 0x0 PUSH2 0x2359 DUP5 DUP3 DUP6 ADD PUSH2 0x2320 JUMP JUMPDEST SWAP2 POP POP SWAP3 SWAP2 POP POP JUMP JUMPDEST PUSH1 0x0 PUSH1 0x40 DUP3 ADD SWAP1 POP PUSH2 0x2377 PUSH1 0x0 DUP4 ADD DUP6 PUSH2 0x1EC7 JUMP JUMPDEST PUSH2 0x2384 PUSH1 0x20 DUP4 ADD DUP5 PUSH2 0x1ED6 JUMP JUMPDEST SWAP4 SWAP3 POP POP POP JUMP JUMPDEST PUSH1 0x0 PUSH2 0x2396 DUP3 PUSH2 0x1DBC JUMP JUMPDEST SWAP2 POP PUSH2 0x23A1 DUP4 PUSH2 0x1DBC JUMP JUMPDEST SWAP3 POP DUP3 DUP3 SUB SWAP1 POP DUP2 DUP2 GT ISZERO PUSH2 0x23B9 JUMPI PUSH2 0x23B8 PUSH2 0x226F JUMP JUMPDEST JUMPDEST SWAP3 SWAP2 POP POP JUMP JUMPDEST PUSH1 0x0 DUP2 PUSH1 0x1 SHR SWAP1 POP SWAP2 SWAP1 POP JUMP JUMPDEST PUSH1 0x0 DUP1 DUP3 SWAP2 POP DUP4 SWAP1 POP JUMPDEST PUSH1 0x1 DUP6 GT ISZERO PUSH2 0x2416 JUMPI DUP1 DUP7 DIV DUP2 GT ISZERO PUSH2 0x23F2 JUMPI PUSH2 0x23F1 PUSH2 0x226F JUMP JUMPDEST JUMPDEST PUSH1 0x1 DUP6 AND ISZERO PUSH2 0x2401 JUMPI DUP1 DUP3 MUL SWAP2 POP JUMPDEST DUP1 DUP2 MUL SWAP1 POP PUSH2 0x240F DUP6 PUSH2 0x23BF JUMP JUMPDEST SWAP5 POP PUSH2 0x23D6 JUMP JUMPDEST SWAP5 POP SWAP5 SWAP3 POP POP POP JUMP JUMPDEST PUSH1 0x0 DUP3 PUSH2 0x242F JUMPI PUSH1 0x1 SWAP1 POP PUSH2 0x24EB JUMP JUMPDEST DUP2 PUSH2 0x243D JUMPI PUSH1 0x0 SWAP1 POP PUSH2 0x24EB JUMP JUMPDEST DUP2 PUSH1 0x1 DUP2 EQ PUSH2 0x2453 JUMPI PUSH1 0x2 DUP2 EQ PUSH2 0x245D JUMPI PUSH2 0x248C JUMP JUMPDEST PUSH1 0x1 SWAP2 POP POP PUSH2 0x24EB JUMP JUMPDEST PUSH1 0xFF DUP5 GT ISZERO PUSH2 0x246F JUMPI PUSH2 0x246E PUSH2 0x226F JUMP JUMPDEST JUMPDEST DUP4 PUSH1 0x2 EXP SWAP2 POP DUP5 DUP3 GT ISZERO PUSH2 0x2486 JUMPI PUSH2 0x2485 PUSH2 0x226F JUMP JUMPDEST JUMPDEST POP PUSH2 0x24EB JUMP JUMPDEST POP PUSH1 0x20 DUP4 LT PUSH2 0x133 DUP4 LT AND PUSH1 0x4E DUP5 LT PUSH1 0xB DUP5 LT AND OR ISZERO PUSH2 0x24C1 JUMPI DUP3 DUP3 EXP SWAP1 POP DUP4 DUP2 GT ISZERO PUSH2 0x24BC JUMPI PUSH2 0x24BB PUSH2 0x226F JUMP JUMPDEST JUMPDEST PUSH2 0x24EB JUMP JUMPDEST PUSH2 0x24CE DUP5 DUP5 DUP5 PUSH1 0x1 PUSH2 0x23CC JUMP JUMPDEST SWAP3 POP SWAP1 POP DUP2 DUP5 DIV DUP2 GT ISZERO PUSH2 0x24E5 JUMPI PUSH2 0x24E4 PUSH2 0x226F JUMP JUMPDEST JUMPDEST DUP2 DUP2 MUL SWAP1 POP JUMPDEST SWAP4 SWAP3 POP POP POP JUMP JUMPDEST PUSH1 0x0 PUSH2 0x24FD DUP3 PUSH2 0x1DBC JUMP JUMPDEST SWAP2 POP PUSH2 0x2508 DUP4 PUSH2 0x1DBC JUMP JUMPDEST SWAP3 POP PUSH2 0x2535 PUSH32 0xFFFFFFFFFFFFFFFFFFFFFFFFFFFFFFFFFFFFFFFFFFFFFFFFFFFFFFFFFFFFFFFF DUP5 DUP5 PUSH2 0x241F JUMP JUMPDEST SWAP1 POP SWAP3 SWAP2 POP POP JUMP JUMPDEST PUSH1 0x0 PUSH2 0x2548 DUP3 PUSH2 0x1DBC JUMP JUMPDEST SWAP2 POP PUSH2 0x2553 DUP4 PUSH2 0x1DBC JUMP JUMPDEST SWAP3 POP DUP3 DUP3 MUL PUSH2 0x2561 DUP2 PUSH2 0x1DBC JUMP JUMPDEST SWAP2 POP DUP3 DUP3 DIV DUP5 EQ DUP4 ISZERO OR PUSH2 0x2578 JUMPI PUSH2 0x2577 PUSH2 0x226F JUMP JUMPDEST JUMPDEST POP SWAP3 SWAP2 POP POP JUMP JUMPDEST PUSH32 0x4E487B7100000000000000000000000000000000000000000000000000000000 PUSH1 0x0 MSTORE PUSH1 0x12 PUSH1 0x4 MSTORE PUSH1 0x24 PUSH1 0x0 REVERT JUMPDEST PUSH1 0x0 PUSH2 0x25B9 DUP3 PUSH2 0x1DBC JUMP JUMPDEST SWAP2 POP PUSH2 0x25C4 DUP4 PUSH2 0x1DBC JUMP JUMPDEST SWAP3 POP DUP3 PUSH2 0x25D4 JUMPI PUSH2 0x25D3 PUSH2 0x257F JUMP JUMPDEST JUMPDEST DUP3 DUP3 DIV SWAP1 POP SWAP3 SWAP2 POP POP JUMP JUMPDEST PUSH1 0x0 PUSH10 0xFFFFFFFFFFFFFFFFFFFF DUP3 AND SWAP1 POP SWAP2 SWAP1 POP JUMP JUMPDEST PUSH2 0x25FE DUP2 PUSH2 0x25DF JUMP JUMPDEST DUP2 EQ PUSH2 0x2609 JUMPI PUSH1 0x0 DUP1 REVERT JUMPDEST POP JUMP JUMPDEST PUSH1 0x0 DUP2 MLOAD SWAP1 POP PUSH2 0x261B DUP2 PUSH2 0x25F5 JUMP JUMPDEST SWAP3 SWAP2 POP POP JUMP JUMPDEST PUSH1 0x0 DUP2 SWAP1 POP SWAP2 SWAP1 POP JUMP JUMPDEST PUSH2 0x2634 DUP2 PUSH2 0x2621 JUMP JUMPDEST DUP2 EQ PUSH2 0x263F JUMPI PUSH1 0x0 DUP1 REVERT JUMPDEST POP JUMP JUMPDEST PUSH1 0x0 DUP2 MLOAD SWAP1 POP PUSH2 0x2651 DUP2 PUSH2 0x262B JUMP JUMPDEST SWAP3 SWAP2 POP POP JUMP JUMPDEST PUSH1 0x0 DUP2 MLOAD SWAP1 POP PUSH2 0x2666 DUP2 PUSH2 0x1DC6 JUMP JUMPDEST SWAP3 SWAP2 POP POP JUMP JUMPDEST PUSH1 0x0 DUP1 PUSH1 0x0 DUP1 PUSH1 0x0 PUSH1 0xA0 DUP7 DUP9 SUB SLT ISZERO PUSH2 0x2688 JUMPI PUSH2 0x2687 PUSH2 0x1DB7 JUMP JUMPDEST JUMPDEST PUSH1 0x0 PUSH2 0x2696 DUP9 DUP3 DUP10 ADD PUSH2 0x260C JUMP JUMPDEST SWAP6 POP POP PUSH1 0x20 PUSH2 0x26A7 DUP9 DUP3 DUP10 ADD PUSH2 0x2642 JUMP JUMPDEST SWAP5 POP POP PUSH1 0x40 PUSH2 0x26B8 DUP9 DUP3 DUP10 ADD PUSH2 0x2657 JUMP JUMPDEST SWAP4 POP POP PUSH1 0x60 PUSH2 0x26C9 DUP9 DUP3 DUP10 ADD PUSH2 0x2657 JUMP JUMPDEST SWAP3 POP POP PUSH1 0x80 PUSH2 0x26DA DUP9 DUP3 DUP10 ADD PUSH2 0x260C JUMP JUMPDEST SWAP2 POP POP SWAP3 SWAP6 POP SWAP3 SWAP6 SWAP1 SWAP4 POP JUMP INVALID LOG2 PUSH5 0x6970667358 0x22 SLT KECCAK256 DUP10 SUB MSIZE JUMP ADD SWAP6 PUSH17 0x9585A1D199D3E802649BDA74E9B2BB62C5 DUP15 CALL 0xB9 0xD6 SWAP2 JUMPDEST 0xE 0xDC PUSH5 0x736F6C6343 STOP ADDMOD SHR STOP CALLER "},"methodIdentifiers":{"checkCollateralization(uint256,uint256)":"a98c7f5f","collaterals(uint256)":"24c1173b","getCollateralInfo(uint256)":"934b5d13","getCollateralValue(uint256)":"82fee08f","initializeLoan(uint256,address,address,uint256)":"6c4c0b1f","isCollateralActive(uint256)":"9e741429","liquidateCollateral(uint256,uint256)":"a61f31a4","liquidatedLoans(uint256)":"1c01aaab","marketplace()":"abc8c7af","owner()":"8da5cb5b","priceFeeds(address)":"9dcb511a","releaseLoanCollateral(uint256,address)":"e563abb5","renounceOwnership()":"715018a6","setMarketplace(address)":"73ad6c2d","setTokenPriceFeed(address,address,uint8)":"499dd056","tokenDecimals(address)":"8ee573ac","topUpCollateral(uint256,uint256)":"0f257d8e","transferOwnership(address)":"f2fde38b","updatePrice(address)":"96e85ced","whitelistedTokens(address)":"daf9c210"}}}}}