{
  "_format": "hh-sol-artifact-1",
  "contractName": "P2PLendingMarketplace",
  "sourceName": "contracts/p2plendMarketplace.sol",
  "abi": [
    {
      "inputs": [
        {
          "internalType": "address",
          "name": "_stablecoin",
          "type": "address"
        },
        {
          "internalType": "address",
          "name": "_collateralManager",
          "type": "address"
        }
      ],
      "stateMutability": "nonpayable",
      "type": "constructor"
    },
    {
      "inputs": [],
      "name": "BadGracePeriod",
      "type": "error"
    },
    {
      "inputs": [],
      "name": "CollateralCheckFailed",
      "type": "error"
    },
    {
      "inputs": [],
      "name": "InvalidParams",
      "type": "error"
    },
    {
      "inputs": [],
      "name": "LoanInactive",
      "type": "error"
    },
    {
      "inputs": [
        {
          "internalType": "address",
          "name": "owner",
          "type": "address"
        }
      ],
      "name": "OwnableInvalidOwner",
      "type": "error"
    },
    {
      "inputs": [
        {
          "internalType": "address",
          "name": "account",
          "type": "address"
        }
      ],
      "name": "OwnableUnauthorizedAccount",
      "type": "error"
    },
    {
      "inputs": [],
      "name": "ReentrancyGuardReentrantCall",
      "type": "error"
    },
    {
      "inputs": [],
      "name": "RepayFailed",
      "type": "error"
    },
    {
      "inputs": [],
      "name": "TransferFailed",
      "type": "error"
    },
    {
      "inputs": [],
      "name": "Unauthorized",
      "type": "error"
    },
    {
      "anonymous": false,
      "inputs": [
        {
          "indexed": true,
          "internalType": "uint256",
          "name": "id",
          "type": "uint256"
        },
        {
          "indexed": false,
          "internalType": "uint256",
          "name": "endTime",
          "type": "uint256"
        }
      ],
      "name": "GracePeriodSet",
      "type": "event"
    },
    {
      "anonymous": false,
      "inputs": [
        {
          "indexed": true,
          "internalType": "uint256",
          "name": "id",
          "type": "uint256"
        },
        {
          "indexed": true,
          "internalType": "address",
          "name": "user",
          "type": "address"
        },
        {
          "indexed": false,
          "internalType": "uint256",
          "name": "amount",
          "type": "uint256"
        },
        {
          "indexed": false,
          "internalType": "uint16",
          "name": "rate",
          "type": "uint16"
        },
        {
          "indexed": false,
          "internalType": "bool",
          "name": "isLender",
          "type": "bool"
        }
      ],
      "name": "ListingCreated",
      "type": "event"
    },
    {
      "anonymous": false,
      "inputs": [
        {
          "indexed": true,
          "internalType": "uint256",
          "name": "id",
          "type": "uint256"
        },
        {
          "indexed": true,
          "internalType": "address",
          "name": "liquidator",
          "type": "address"
        }
      ],
      "name": "LoanLiquidated",
      "type": "event"
    },
    {
      "anonymous": false,
      "inputs": [
        {
          "indexed": true,
          "internalType": "uint256",
          "name": "id",
          "type": "uint256"
        },
        {
          "indexed": true,
          "internalType": "address",
          "name": "lender",
          "type": "address"
        },
        {
          "indexed": true,
          "internalType": "address",
          "name": "borrower",
          "type": "address"
        },
        {
          "indexed": false,
          "internalType": "uint256",
          "name": "amount",
          "type": "uint256"
        }
      ],
      "name": "LoanMatched",
      "type": "event"
    },
    {
      "anonymous": false,
      "inputs": [
        {
          "indexed": true,
          "internalType": "uint256",
          "name": "id",
          "type": "uint256"
        },
        {
          "indexed": false,
          "internalType": "uint256",
          "name": "amount",
          "type": "uint256"
        },
        {
          "indexed": false,
          "internalType": "uint256",
          "name": "interest",
          "type": "uint256"
        }
      ],
      "name": "LoanRepaid",
      "type": "event"
    },
    {
      "anonymous": false,
      "inputs": [
        {
          "indexed": true,
          "internalType": "address",
          "name": "previousOwner",
          "type": "address"
        },
        {
          "indexed": true,
          "internalType": "address",
          "name": "newOwner",
          "type": "address"
        }
      ],
      "name": "OwnershipTransferred",
      "type": "event"
    },
    {
      "inputs": [
        {
          "internalType": "uint256",
          "name": "",
          "type": "uint256"
        }
      ],
      "name": "borrowerListings",
      "outputs": [
        {
          "internalType": "address",
          "name": "borrower",
          "type": "address"
        },
        {
          "internalType": "uint256",
          "name": "amount",
          "type": "uint256"
        },
        {
          "internalType": "uint16",
          "name": "maxInterestRate",
          "type": "uint16"
        },
        {
          "internalType": "uint32",
          "name": "duration",
          "type": "uint32"
        },
        {
          "internalType": "address",
          "name": "collateralToken",
          "type": "address"
        },
        {
          "internalType": "uint256",
          "name": "collateralAmount",
          "type": "uint256"
        },
        {
          "internalType": "bool",
          "name": "isActive",
          "type": "bool"
        }
      ],
      "stateMutability": "view",
      "type": "function"
    },
    {
      "inputs": [],
      "name": "collateralManager",
      "outputs": [
        {
          "internalType": "contract ICollateralManager",
          "name": "",
          "type": "address"
        }
      ],
      "stateMutability": "view",
      "type": "function"
    },
    {
      "inputs": [
        {
          "internalType": "uint256",
          "name": "amount",
          "type": "uint256"
        },
        {
          "internalType": "uint16",
          "name": "maxInterestRate",
          "type": "uint16"
        },
        {
          "internalType": "uint32",
          "name": "duration",
          "type": "uint32"
        },
        {
          "internalType": "address",
          "name": "collateralToken",
          "type": "address"
        },
        {
          "internalType": "uint256",
          "name": "collateralAmount",
          "type": "uint256"
        }
      ],
      "name": "createBorrowerListing",
      "outputs": [
        {
          "internalType": "uint256",
          "name": "",
          "type": "uint256"
        }
      ],
      "stateMutability": "nonpayable",
      "type": "function"
    },
    {
      "inputs": [
        {
          "internalType": "uint256",
          "name": "amount",
          "type": "uint256"
        },
        {
          "internalType": "uint16",
          "name": "minInterestRate",
          "type": "uint16"
        },
        {
          "internalType": "uint32",
          "name": "maxDuration",
          "type": "uint32"
        },
        {
          "internalType": "address[]",
          "name": "acceptedTokens",
          "type": "address[]"
        },
        {
          "internalType": "uint16",
          "name": "minCollateralRatio",
          "type": "uint16"
        }
      ],
      "name": "createLenderListing",
      "outputs": [
        {
          "internalType": "uint256",
          "name": "",
          "type": "uint256"
        }
      ],
      "stateMutability": "nonpayable",
      "type": "function"
    },
    {
      "inputs": [
        {
          "internalType": "uint256",
          "name": "loanId",
          "type": "uint256"
        }
      ],
      "name": "getLoan",
      "outputs": [
        {
          "components": [
            {
              "internalType": "address",
              "name": "lender",
              "type": "address"
            },
            {
              "internalType": "address",
              "name": "borrower",
              "type": "address"
            },
            {
              "internalType": "uint256",
              "name": "amount",
              "type": "uint256"
            },
            {
              "internalType": "uint16",
              "name": "interestRate",
              "type": "uint16"
            },
            {
              "internalType": "uint32",
              "name": "duration",
              "type": "uint32"
            },
            {
              "internalType": "uint256",
              "name": "startTime",
              "type": "uint256"
            },
            {
              "internalType": "uint256",
              "name": "gracePeriodEnd",
              "type": "uint256"
            },
            {
              "internalType": "uint256",
              "name": "lastInterestUpdate",
              "type": "uint256"
            },
            {
              "internalType": "uint256",
              "name": "accumulatedInterest",
              "type": "uint256"
            },
            {
              "internalType": "address",
              "name": "collateralToken",
              "type": "address"
            },
            {
              "internalType": "uint256",
              "name": "collateralAmount",
              "type": "uint256"
            },
            {
              "internalType": "bool",
              "name": "isActive",
              "type": "bool"
            }
          ],
          "internalType": "struct P2PLendingMarketplace.Loan",
          "name": "",
          "type": "tuple"
        }
      ],
      "stateMutability": "view",
      "type": "function"
    },
    {
      "inputs": [
        {
          "internalType": "address",
          "name": "user",
          "type": "address"
        }
      ],
      "name": "getUserStats",
      "outputs": [
        {
          "components": [
            {
              "internalType": "uint256",
              "name": "activeLoans",
              "type": "uint256"
            },
            {
              "internalType": "uint256",
              "name": "totalInterest",
              "type": "uint256"
            },
            {
              "internalType": "uint256",
              "name": "reputation",
              "type": "uint256"
            }
          ],
          "internalType": "struct P2PLendingMarketplace.UserStats",
          "name": "",
          "type": "tuple"
        }
      ],
      "stateMutability": "view",
      "type": "function"
    },
    {
      "inputs": [
        {
          "internalType": "uint256",
          "name": "",
          "type": "uint256"
        }
      ],
      "name": "lenderListings",
      "outputs": [
        {
          "internalType": "address",
          "name": "lender",
          "type": "address"
        },
        {
          "internalType": "uint256",
          "name": "amount",
          "type": "uint256"
        },
        {
          "internalType": "uint16",
          "name": "minInterestRate",
          "type": "uint16"
        },
        {
          "internalType": "uint32",
          "name": "maxDuration",
          "type": "uint32"
        },
        {
          "internalType": "uint16",
          "name": "minCollateralRatio",
          "type": "uint16"
        },
        {
          "internalType": "bool",
          "name": "isActive",
          "type": "bool"
        }
      ],
      "stateMutability": "view",
      "type": "function"
    },
    {
      "inputs": [
        {
          "internalType": "uint256",
          "name": "loanId",
          "type": "uint256"
        }
      ],
      "name": "liquidateLoan",
      "outputs": [],
      "stateMutability": "nonpayable",
      "type": "function"
    },
    {
      "inputs": [
        {
          "internalType": "uint256",
          "name": "",
          "type": "uint256"
        }
      ],
      "name": "loans",
      "outputs": [
        {
          "internalType": "address",
          "name": "lender",
          "type": "address"
        },
        {
          "internalType": "address",
          "name": "borrower",
          "type": "address"
        },
        {
          "internalType": "uint256",
          "name": "amount",
          "type": "uint256"
        },
        {
          "internalType": "uint16",
          "name": "interestRate",
          "type": "uint16"
        },
        {
          "internalType": "uint32",
          "name": "duration",
          "type": "uint32"
        },
        {
          "internalType": "uint256",
          "name": "startTime",
          "type": "uint256"
        },
        {
          "internalType": "uint256",
          "name": "gracePeriodEnd",
          "type": "uint256"
        },
        {
          "internalType": "uint256",
          "name": "lastInterestUpdate",
          "type": "uint256"
        },
        {
          "internalType": "uint256",
          "name": "accumulatedInterest",
          "type": "uint256"
        },
        {
          "internalType": "address",
          "name": "collateralToken",
          "type": "address"
        },
        {
          "internalType": "uint256",
          "name": "collateralAmount",
          "type": "uint256"
        },
        {
          "internalType": "bool",
          "name": "isActive",
          "type": "bool"
        }
      ],
      "stateMutability": "view",
      "type": "function"
    },
    {
      "inputs": [
        {
          "internalType": "uint256",
          "name": "lenderListingId",
          "type": "uint256"
        },
        {
          "internalType": "uint256",
          "name": "borrowerListingId",
          "type": "uint256"
        }
      ],
      "name": "matchLoan",
      "outputs": [],
      "stateMutability": "nonpayable",
      "type": "function"
    },
    {
      "inputs": [],
      "name": "owner",
      "outputs": [
        {
          "internalType": "address",
          "name": "",
          "type": "address"
        }
      ],
      "stateMutability": "view",
      "type": "function"
    },
    {
      "inputs": [],
      "name": "renounceOwnership",
      "outputs": [],
      "stateMutability": "nonpayable",
      "type": "function"
    },
    {
      "inputs": [
        {
          "internalType": "uint256",
          "name": "loanId",
          "type": "uint256"
        }
      ],
      "name": "repayLoan",
      "outputs": [],
      "stateMutability": "nonpayable",
      "type": "function"
    },
    {
      "inputs": [
        {
          "internalType": "uint256",
          "name": "loanId",
          "type": "uint256"
        },
        {
          "internalType": "uint256",
          "name": "gracePeriod",
          "type": "uint256"
        }
      ],
      "name": "setGracePeriod",
      "outputs": [],
      "stateMutability": "nonpayable",
      "type": "function"
    },
    {
      "inputs": [],
      "name": "stablecoin",
      "outputs": [
        {
          "internalType": "contract IERC20",
          "name": "",
          "type": "address"
        }
      ],
      "stateMutability": "view",
      "type": "function"
    },
    {
      "inputs": [],
      "name": "totalVolume",
      "outputs": [
        {
          "internalType": "uint256",
          "name": "",
          "type": "uint256"
        }
      ],
      "stateMutability": "view",
      "type": "function"
    },
    {
      "inputs": [
        {
          "internalType": "address",
          "name": "newOwner",
          "type": "address"
        }
      ],
      "name": "transferOwnership",
      "outputs": [],
      "stateMutability": "nonpayable",
      "type": "function"
    },
    {
      "inputs": [
        {
          "internalType": "address",
          "name": "",
          "type": "address"
        }
      ],
      "name": "userStats",
      "outputs": [
        {
          "internalType": "uint256",
          "name": "activeLoans",
          "type": "uint256"
        },
        {
          "internalType": "uint256",
          "name": "totalInterest",
          "type": "uint256"
        },
        {
          "internalType": "uint256",
          "name": "reputation",
          "type": "uint256"
        }
      ],
      "stateMutability": "view",
      "type": "function"
    }
  ],
  "bytecode": "0x60c060405234801561001057600080fd5b50604051613315380380613315833981810160405281019061003291906102f3565b336001600081905550600073ffffffffffffffffffffffffffffffffffffffff168173ffffffffffffffffffffffffffffffffffffffff16036100ad5760006040517f1e4fbdf70000000000000000000000000000000000000000000000000000000081526004016100a49190610342565b60405180910390fd5b6100bc816101ca60201b60201c565b50600073ffffffffffffffffffffffffffffffffffffffff168273ffffffffffffffffffffffffffffffffffffffff1614806101245750600073ffffffffffffffffffffffffffffffffffffffff168173ffffffffffffffffffffffffffffffffffffffff16145b1561015b576040517fa86b651200000000000000000000000000000000000000000000000000000000815260040160405180910390fd5b8173ffffffffffffffffffffffffffffffffffffffff1660a08173ffffffffffffffffffffffffffffffffffffffff16815250508073ffffffffffffffffffffffffffffffffffffffff1660808173ffffffffffffffffffffffffffffffffffffffff1681525050505061035d565b6000600160009054906101000a900473ffffffffffffffffffffffffffffffffffffffff16905081600160006101000a81548173ffffffffffffffffffffffffffffffffffffffff021916908373ffffffffffffffffffffffffffffffffffffffff1602179055508173ffffffffffffffffffffffffffffffffffffffff168173ffffffffffffffffffffffffffffffffffffffff167f8be0079c531659141344cd1fd0a4f28419497f9722a3daafe3b4186f6b6457e060405160405180910390a35050565b600080fd5b600073ffffffffffffffffffffffffffffffffffffffff82169050919050565b60006102c082610295565b9050919050565b6102d0816102b5565b81146102db57600080fd5b50565b6000815190506102ed816102c7565b92915050565b6000806040838503121561030a57610309610290565b5b6000610318858286016102de565b9250506020610329858286016102de565b9150509250929050565b61033c816102b5565b82525050565b60006020820190506103576000830184610333565b92915050565b60805160a051612f626103b360003960008181610d41015281816113a90152818161174e0152611ddf01526000818161056901528181610e3b01528181610f870152818161104a0152611d020152612f626000f3fe608060405234801561001057600080fd5b50600436106101165760003560e01c80638a65d874116100a2578063d7b42c0511610071578063d7b42c0514610300578063e1ec3c6814610330578063e2576d4f1461036b578063e9cbd82214610387578063f2fde38b146103a557610116565b80638a65d874146102785780638da5cb5b146102aa578063ab7b1c89146102c8578063ccdd9f5d146102e457610116565b80635f81a57c116100e95780635f81a57c146101b5578063687b6bfe146101d3578063715018a61461020857806376aeb6ea1461021257806385d724cf1461024857610116565b80630dd187831461011b57806323be345c146101375780634e43603a14610155578063504006ca14610185575b600080fd5b61013560048036038101906101309190612426565b6103c1565b005b61013f610567565b60405161014c91906124e5565b60405180910390f35b61016f600480360381019061016a919061253e565b61058b565b60405161017c91906125bc565b60405180910390f35b61019f600480360381019061019a91906125d7565b610602565b6040516101ac9190612760565b60405180910390f35b6101bd6107cf565b6040516101ca919061278b565b60405180910390f35b6101ed60048036038101906101e891906125d7565b6107d5565b6040516101ff969594939291906127e2565b60405180910390f35b61021061086a565b005b61022c600480360381019061022791906125d7565b61087e565b60405161023f9796959493929190612843565b60405180910390f35b610262600480360381019061025d919061290a565b61092b565b60405161026f919061278b565b60405180910390f35b610292600480360381019061028d919061253e565b610bbd565b6040516102a193929190612985565b60405180910390f35b6102b2610be7565b6040516102bf91906129bc565b60405180910390f35b6102e260048036038101906102dd91906125d7565b610c11565b005b6102fe60048036038101906102f991906125d7565b610f1e565b005b61031a60048036038101906103159190612a3c565b611160565b604051610327919061278b565b60405180910390f35b61034a600480360381019061034591906125d7565b6114e7565b6040516103629c9b9a99989796959493929190612ad6565b60405180910390f35b61038560048036038101906103809190612426565b6115d2565b005b61038f61174c565b60405161039c9190612bb1565b60405180910390f35b6103bf60048036038101906103ba919061253e565b611770565b005b6103c96117f6565b60006002600084815260200190815260200160002090506000600360008481526020019081526020016000209050610401828261183c565b610437576040517fa86b651200000000000000000000000000000000000000000000000000000000815260040160405180910390fd5b600061044383836119e4565b905061044f8183611d00565b60008360020160086101000a81548160ff02191690831515021790555060008260040160006101000a81548160ff02191690831515021790555081600101546008600082825461049f9190612bfb565b925050819055508160000160009054906101000a900473ffffffffffffffffffffffffffffffffffffffff1673ffffffffffffffffffffffffffffffffffffffff168360000160009054906101000a900473ffffffffffffffffffffffffffffffffffffffff1673ffffffffffffffffffffffffffffffffffffffff16827fd17221acccb920b5acea49569051e981e9118f7bdaaa30763a7e65f36a35bd468560010154604051610550919061278b565b60405180910390a4505050610563611edd565b5050565b7f000000000000000000000000000000000000000000000000000000000000000081565b61059361226f565b600560008373ffffffffffffffffffffffffffffffffffffffff1673ffffffffffffffffffffffffffffffffffffffff16815260200190815260200160002060405180606001604052908160008201548152602001600182015481526020016002820154815250509050919050565b61060a612290565b60046000838152602001908152602001600020604051806101800160405290816000820160009054906101000a900473ffffffffffffffffffffffffffffffffffffffff1673ffffffffffffffffffffffffffffffffffffffff1673ffffffffffffffffffffffffffffffffffffffff1681526020016001820160009054906101000a900473ffffffffffffffffffffffffffffffffffffffff1673ffffffffffffffffffffffffffffffffffffffff1673ffffffffffffffffffffffffffffffffffffffff168152602001600282015481526020016003820160009054906101000a900461ffff1661ffff1661ffff1681526020016003820160029054906101000a900463ffffffff1663ffffffff1663ffffffff168152602001600482015481526020016005820154815260200160068201548152602001600782015481526020016008820160009054906101000a900473ffffffffffffffffffffffffffffffffffffffff1673ffffffffffffffffffffffffffffffffffffffff1673ffffffffffffffffffffffffffffffffffffffff16815260200160098201548152602001600a820160009054906101000a900460ff1615151515815250509050919050565b60085481565b60026020528060005260406000206000915090508060000160009054906101000a900473ffffffffffffffffffffffffffffffffffffffff16908060010154908060020160009054906101000a900461ffff16908060020160029054906101000a900463ffffffff16908060020160069054906101000a900461ffff16908060020160089054906101000a900460ff16905086565b610872611ee7565b61087c6000611f6e565b565b60036020528060005260406000206000915090508060000160009054906101000a900473ffffffffffffffffffffffffffffffffffffffff16908060010154908060020160009054906101000a900461ffff16908060020160029054906101000a900463ffffffff16908060020160069054906101000a900473ffffffffffffffffffffffffffffffffffffffff16908060030154908060040160009054906101000a900460ff16905087565b60006109356117f6565b600086148061094d5750610bb861ffff168561ffff16115b8061096157506301e133808463ffffffff16115b806109745750620151808463ffffffff16105b156109ab576040517fa86b651200000000000000000000000000000000000000000000000000000000815260040160405180910390fd5b6000600660008154809291906109c090612c2f565b9190505590506040518060e001604052803373ffffffffffffffffffffffffffffffffffffffff1681526020018881526020018761ffff1681526020018663ffffffff1681526020018573ffffffffffffffffffffffffffffffffffffffff168152602001848152602001600115158152506003600083815260200190815260200160002060008201518160000160006101000a81548173ffffffffffffffffffffffffffffffffffffffff021916908373ffffffffffffffffffffffffffffffffffffffff1602179055506020820151816001015560408201518160020160006101000a81548161ffff021916908361ffff16021790555060608201518160020160026101000a81548163ffffffff021916908363ffffffff16021790555060808201518160020160066101000a81548173ffffffffffffffffffffffffffffffffffffffff021916908373ffffffffffffffffffffffffffffffffffffffff16021790555060a0820151816003015560c08201518160040160006101000a81548160ff0219169083151502179055509050503373ffffffffffffffffffffffffffffffffffffffff16817ff7652e386d88bd9e292988ce0bc6be708fad28e5f40b567918200bf94505e24089896000604051610ba093929190612c77565b60405180910390a380915050610bb4611edd565b95945050505050565b60056020528060005260406000206000915090508060000154908060010154908060020154905083565b6000600160009054906101000a900473ffffffffffffffffffffffffffffffffffffffff16905090565b610c196117f6565b600060046000838152602001908152602001600020905080600a0160009054906101000a900460ff16610c78576040517f5aec606200000000000000000000000000000000000000000000000000000000815260040160405180910390fd5b8060010160009054906101000a900473ffffffffffffffffffffffffffffffffffffffff1673ffffffffffffffffffffffffffffffffffffffff163373ffffffffffffffffffffffffffffffffffffffff1614610d01576040517f82b4290000000000000000000000000000000000000000000000000000000000815260040160405180910390fd5b610d0a82612034565b600081600701548260020154610d209190612bfb565b9050600082600a0160006101000a81548160ff0219169083151502179055507f000000000000000000000000000000000000000000000000000000000000000073ffffffffffffffffffffffffffffffffffffffff166323b872dd338460000160009054906101000a900473ffffffffffffffffffffffffffffffffffffffff16846040518463ffffffff1660e01b8152600401610dc093929190612cae565b6020604051808303816000875af1158015610ddf573d6000803e3d6000fd5b505050506040513d601f19601f82011682018060405250810190610e039190612d11565b610e39576040517f9e703a0500000000000000000000000000000000000000000000000000000000815260040160405180910390fd5b7f000000000000000000000000000000000000000000000000000000000000000073ffffffffffffffffffffffffffffffffffffffff1663e563abb584336040518363ffffffff1660e01b8152600401610e94929190612d3e565b600060405180830381600087803b158015610eae57600080fd5b505af1158015610ec2573d6000803e3d6000fd5b50505050610ecf826120ee565b827fd9cfbcfb9ae5d65b8d34072de4575f602ee25cf3715bc05c291701fe9e258f9a83600201548460070154604051610f09929190612d67565b60405180910390a25050610f1b611edd565b50565b610f266117f6565b600060046000838152602001908152602001600020905080600a0160009054906101000a900460ff16610f85576040517f5aec606200000000000000000000000000000000000000000000000000000000815260040160405180910390fd5b7f000000000000000000000000000000000000000000000000000000000000000073ffffffffffffffffffffffffffffffffffffffff1663a98c7f5f8383600201546040518363ffffffff1660e01b8152600401610fe4929190612d67565b6020604051808303816000875af1158015611003573d6000803e3d6000fd5b505050506040513d601f19601f820116820180604052508101906110279190612d11565b61112257600081600a0160006101000a81548160ff0219169083151502179055507f000000000000000000000000000000000000000000000000000000000000000073ffffffffffffffffffffffffffffffffffffffff1663a61f31a48383600201546040518363ffffffff1660e01b81526004016110a7929190612d67565b600060405180830381600087803b1580156110c157600080fd5b505af11580156110d5573d6000803e3d6000fd5b505050503373ffffffffffffffffffffffffffffffffffffffff16827f73de9acc561f27528ab0a3b5dd63fefb4e59f95575891299a6f862a78779817660405160405180910390a3611154565b6040517ff882d95b00000000000000000000000000000000000000000000000000000000815260040160405180910390fd5b5061115d611edd565b50565b600061116a6117f6565b60008714806111825750610bb861ffff168661ffff16115b8061119657506301e133808563ffffffff16115b806111a95750620151808563ffffffff16105b156111e0576040517fa86b651200000000000000000000000000000000000000000000000000000000815260040160405180910390fd5b6000600660008154809291906111f590612c2f565b9190505590506040518060e001604052803373ffffffffffffffffffffffffffffffffffffffff1681526020018981526020018861ffff1681526020018763ffffffff1681526020018461ffff168152602001600115158152602001868680806020026020016040519081016040528093929190818152602001838360200280828437600081840152601f19601f820116905080830192505050505050508152506002600083815260200190815260200160002060008201518160000160006101000a81548173ffffffffffffffffffffffffffffffffffffffff021916908373ffffffffffffffffffffffffffffffffffffffff1602179055506020820151816001015560408201518160020160006101000a81548161ffff021916908361ffff16021790555060608201518160020160026101000a81548163ffffffff021916908363ffffffff16021790555060808201518160020160066101000a81548161ffff021916908361ffff16021790555060a08201518160020160086101000a81548160ff02191690831515021790555060c08201518160030190805190602001906113a392919061233f565b509050507f000000000000000000000000000000000000000000000000000000000000000073ffffffffffffffffffffffffffffffffffffffff166323b872dd33308b6040518463ffffffff1660e01b815260040161140493929190612cae565b6020604051808303816000875af1158015611423573d6000803e3d6000fd5b505050506040513d601f19601f820116820180604052508101906114479190612d11565b61147d576040517f90b8ec1800000000000000000000000000000000000000000000000000000000815260040160405180910390fd5b3373ffffffffffffffffffffffffffffffffffffffff16817ff7652e386d88bd9e292988ce0bc6be708fad28e5f40b567918200bf94505e2408a8a60016040516114c993929190612c77565b60405180910390a3809150506114dd611edd565b9695505050505050565b60046020528060005260406000206000915090508060000160009054906101000a900473ffffffffffffffffffffffffffffffffffffffff16908060010160009054906101000a900473ffffffffffffffffffffffffffffffffffffffff16908060020154908060030160009054906101000a900461ffff16908060030160029054906101000a900463ffffffff16908060040154908060050154908060060154908060070154908060080160009054906101000a900473ffffffffffffffffffffffffffffffffffffffff169080600901549080600a0160009054906101000a900460ff1690508c565b60006004600084815260200190815260200160002090508060000160009054906101000a900473ffffffffffffffffffffffffffffffffffffffff1673ffffffffffffffffffffffffffffffffffffffff163373ffffffffffffffffffffffffffffffffffffffff1614611672576040517f82b4290000000000000000000000000000000000000000000000000000000000815260040160405180910390fd5b80600a0160009054906101000a900460ff166116ba576040517f5aec606200000000000000000000000000000000000000000000000000000000815260040160405180910390fd5b62278d008211156116f7576040517ffdd275d000000000000000000000000000000000000000000000000000000000815260040160405180910390fd5b81426117039190612bfb565b8160050181905550827f8a7a5c9c34210b39b0dd6c746e4824f7af2a84c059d4dcbc168a2036d26df990826005015460405161173f919061278b565b60405180910390a2505050565b7f000000000000000000000000000000000000000000000000000000000000000081565b611778611ee7565b600073ffffffffffffffffffffffffffffffffffffffff168173ffffffffffffffffffffffffffffffffffffffff16036117ea5760006040517f1e4fbdf70000000000000000000000000000000000000000000000000000000081526004016117e191906129bc565b60405180910390fd5b6117f381611f6e565b50565b600260005403611832576040517f3ee5aeb500000000000000000000000000000000000000000000000000000000815260040160405180910390fd5b6002600081905550565b60008260020160089054906101000a900460ff16158061186b57508160040160009054906101000a900460ff16155b1561187957600090506119de565b8260020160009054906101000a900461ffff1661ffff168260020160009054906101000a900461ffff1661ffff1610156118b657600090506119de565b8260020160029054906101000a900463ffffffff1663ffffffff168260020160029054906101000a900463ffffffff1663ffffffff1611156118fb57600090506119de565b82600101548260010154111561191457600090506119de565b600080600090505b84600301805490508110156119d8578360020160069054906101000a900473ffffffffffffffffffffffffffffffffffffffff1673ffffffffffffffffffffffffffffffffffffffff1685600301828154811061197c5761197b612d90565b5b9060005260206000200160009054906101000a900473ffffffffffffffffffffffffffffffffffffffff1673ffffffffffffffffffffffffffffffffffffffff16036119cb57600191506119d8565b808060010191505061191c565b50809150505b92915050565b600080600760008154809291906119fa90612c2f565b9190505590506040518061018001604052808560000160009054906101000a900473ffffffffffffffffffffffffffffffffffffffff1673ffffffffffffffffffffffffffffffffffffffff1681526020018460000160009054906101000a900473ffffffffffffffffffffffffffffffffffffffff1673ffffffffffffffffffffffffffffffffffffffff168152602001846001015481526020018560020160009054906101000a900461ffff1661ffff1681526020018460020160029054906101000a900463ffffffff1663ffffffff1681526020014281526020018460020160029054906101000a900463ffffffff1663ffffffff1642611afe9190612bfb565b8152602001428152602001600081526020018460020160069054906101000a900473ffffffffffffffffffffffffffffffffffffffff1673ffffffffffffffffffffffffffffffffffffffff16815260200184600301548152602001600115158152506004600083815260200190815260200160002060008201518160000160006101000a81548173ffffffffffffffffffffffffffffffffffffffff021916908373ffffffffffffffffffffffffffffffffffffffff16021790555060208201518160010160006101000a81548173ffffffffffffffffffffffffffffffffffffffff021916908373ffffffffffffffffffffffffffffffffffffffff1602179055506040820151816002015560608201518160030160006101000a81548161ffff021916908361ffff16021790555060808201518160030160026101000a81548163ffffffff021916908363ffffffff16021790555060a0820151816004015560c0820151816005015560e0820151816006015561010082015181600701556101208201518160080160006101000a81548173ffffffffffffffffffffffffffffffffffffffff021916908373ffffffffffffffffffffffffffffffffffffffff160217905550610140820151816009015561016082015181600a0160006101000a81548160ff0219169083151502179055509050508091505092915050565b7f000000000000000000000000000000000000000000000000000000000000000073ffffffffffffffffffffffffffffffffffffffff16636c4c0b1f838360000160009054906101000a900473ffffffffffffffffffffffffffffffffffffffff168460020160069054906101000a900473ffffffffffffffffffffffffffffffffffffffff1685600301546040518563ffffffff1660e01b8152600401611dab9493929190612dbf565b600060405180830381600087803b158015611dc557600080fd5b505af1158015611dd9573d6000803e3d6000fd5b505050507f000000000000000000000000000000000000000000000000000000000000000073ffffffffffffffffffffffffffffffffffffffff1663a9059cbb8260000160009054906101000a900473ffffffffffffffffffffffffffffffffffffffff1683600101546040518363ffffffff1660e01b8152600401611e60929190612e04565b6020604051808303816000875af1158015611e7f573d6000803e3d6000fd5b505050506040513d601f19601f82011682018060405250810190611ea39190612d11565b611ed9576040517f90b8ec1800000000000000000000000000000000000000000000000000000000815260040160405180910390fd5b5050565b6001600081905550565b611eef612267565b73ffffffffffffffffffffffffffffffffffffffff16611f0d610be7565b73ffffffffffffffffffffffffffffffffffffffff1614611f6c57611f30612267565b6040517f118cdaa7000000000000000000000000000000000000000000000000000000008152600401611f6391906129bc565b60405180910390fd5b565b6000600160009054906101000a900473ffffffffffffffffffffffffffffffffffffffff16905081600160006101000a81548173ffffffffffffffffffffffffffffffffffffffff021916908373ffffffffffffffffffffffffffffffffffffffff1602179055508173ffffffffffffffffffffffffffffffffffffffff168173ffffffffffffffffffffffffffffffffffffffff167f8be0079c531659141344cd1fd0a4f28419497f9722a3daafe3b4186f6b6457e060405160405180910390a35050565b6000600460008381526020019081526020016000209050600081600601544261205d9190612e2d565b90506000810361206e5750506120eb565b600061271061ffff166301e13380838560030160009054906101000a900461ffff1661ffff1686600201546120a39190612e61565b6120ad9190612e61565b6120b79190612ed2565b6120c19190612ed2565b9050808360070160008282546120d79190612bfb565b925050819055504283600601819055505050505b50565b6000600560008360010160009054906101000a900473ffffffffffffffffffffffffffffffffffffffff1673ffffffffffffffffffffffffffffffffffffffff1673ffffffffffffffffffffffffffffffffffffffff16815260200190815260200160002090506000600560008460000160009054906101000a900473ffffffffffffffffffffffffffffffffffffffff1673ffffffffffffffffffffffffffffffffffffffff1673ffffffffffffffffffffffffffffffffffffffff16815260200190815260200160002090508160000160008154809291906121d190612f03565b919050555082600701548260010160008282546121ee9190612bfb565b9250508190555081600201600081548092919061220a90612c2f565b919050555080600001600081548092919061222490612f03565b919050555082600701548160010160008282546122419190612bfb565b9250508190555080600201600081548092919061225d90612c2f565b9190505550505050565b600033905090565b60405180606001604052806000815260200160008152602001600081525090565b604051806101800160405280600073ffffffffffffffffffffffffffffffffffffffff168152602001600073ffffffffffffffffffffffffffffffffffffffff16815260200160008152602001600061ffff168152602001600063ffffffff16815260200160008152602001600081526020016000815260200160008152602001600073ffffffffffffffffffffffffffffffffffffffff168152602001600081526020016000151581525090565b8280548282559060005260206000209081019282156123b8579160200282015b828111156123b75782518260006101000a81548173ffffffffffffffffffffffffffffffffffffffff021916908373ffffffffffffffffffffffffffffffffffffffff1602179055509160200191906001019061235f565b5b5090506123c591906123c9565b5090565b5b808211156123e25760008160009055506001016123ca565b5090565b600080fd5b600080fd5b6000819050919050565b612403816123f0565b811461240e57600080fd5b50565b600081359050612420816123fa565b92915050565b6000806040838503121561243d5761243c6123e6565b5b600061244b85828601612411565b925050602061245c85828601612411565b9150509250929050565b600073ffffffffffffffffffffffffffffffffffffffff82169050919050565b6000819050919050565b60006124ab6124a66124a184612466565b612486565b612466565b9050919050565b60006124bd82612490565b9050919050565b60006124cf826124b2565b9050919050565b6124df816124c4565b82525050565b60006020820190506124fa60008301846124d6565b92915050565b600061250b82612466565b9050919050565b61251b81612500565b811461252657600080fd5b50565b60008135905061253881612512565b92915050565b600060208284031215612554576125536123e6565b5b600061256284828501612529565b91505092915050565b612574816123f0565b82525050565b606082016000820151612590600085018261256b565b5060208201516125a3602085018261256b565b5060408201516125b6604085018261256b565b50505050565b60006060820190506125d1600083018461257a565b92915050565b6000602082840312156125ed576125ec6123e6565b5b60006125fb84828501612411565b91505092915050565b61260d81612500565b82525050565b600061ffff82169050919050565b61262a81612613565b82525050565b600063ffffffff82169050919050565b61264981612630565b82525050565b60008115159050919050565b6126648161264f565b82525050565b610180820160008201516126816000850182612604565b5060208201516126946020850182612604565b5060408201516126a7604085018261256b565b5060608201516126ba6060850182612621565b5060808201516126cd6080850182612640565b5060a08201516126e060a085018261256b565b5060c08201516126f360c085018261256b565b5060e082015161270660e085018261256b565b5061010082015161271b61010085018261256b565b50610120820151612730610120850182612604565b5061014082015161274561014085018261256b565b5061016082015161275a61016085018261265b565b50505050565b600061018082019050612776600083018461266a565b92915050565b612785816123f0565b82525050565b60006020820190506127a0600083018461277c565b92915050565b6127af81612500565b82525050565b6127be81612613565b82525050565b6127cd81612630565b82525050565b6127dc8161264f565b82525050565b600060c0820190506127f760008301896127a6565b612804602083018861277c565b61281160408301876127b5565b61281e60608301866127c4565b61282b60808301856127b5565b61283860a08301846127d3565b979650505050505050565b600060e082019050612858600083018a6127a6565b612865602083018961277c565b61287260408301886127b5565b61287f60608301876127c4565b61288c60808301866127a6565b61289960a083018561277c565b6128a660c08301846127d3565b98975050505050505050565b6128bb81612613565b81146128c657600080fd5b50565b6000813590506128d8816128b2565b92915050565b6128e781612630565b81146128f257600080fd5b50565b600081359050612904816128de565b92915050565b600080600080600060a08688031215612926576129256123e6565b5b600061293488828901612411565b9550506020612945888289016128c9565b9450506040612956888289016128f5565b935050606061296788828901612529565b925050608061297888828901612411565b9150509295509295909350565b600060608201905061299a600083018661277c565b6129a7602083018561277c565b6129b4604083018461277c565b949350505050565b60006020820190506129d160008301846127a6565b92915050565b600080fd5b600080fd5b600080fd5b60008083601f8401126129fc576129fb6129d7565b5b8235905067ffffffffffffffff811115612a1957612a186129dc565b5b602083019150836020820283011115612a3557612a346129e1565b5b9250929050565b60008060008060008060a08789031215612a5957612a586123e6565b5b6000612a6789828a01612411565b9650506020612a7889828a016128c9565b9550506040612a8989828a016128f5565b945050606087013567ffffffffffffffff811115612aaa57612aa96123eb565b5b612ab689828a016129e6565b93509350506080612ac989828a016128c9565b9150509295509295509295565b600061018082019050612aec600083018f6127a6565b612af9602083018e6127a6565b612b06604083018d61277c565b612b13606083018c6127b5565b612b20608083018b6127c4565b612b2d60a083018a61277c565b612b3a60c083018961277c565b612b4760e083018861277c565b612b5561010083018761277c565b612b636101208301866127a6565b612b7161014083018561277c565b612b7f6101608301846127d3565b9d9c50505050505050505050505050565b6000612b9b826124b2565b9050919050565b612bab81612b90565b82525050565b6000602082019050612bc66000830184612ba2565b92915050565b7f4e487b7100000000000000000000000000000000000000000000000000000000600052601160045260246000fd5b6000612c06826123f0565b9150612c11836123f0565b9250828201905080821115612c2957612c28612bcc565b5b92915050565b6000612c3a826123f0565b91507fffffffffffffffffffffffffffffffffffffffffffffffffffffffffffffffff8203612c6c57612c6b612bcc565b5b600182019050919050565b6000606082019050612c8c600083018661277c565b612c9960208301856127b5565b612ca660408301846127d3565b949350505050565b6000606082019050612cc360008301866127a6565b612cd060208301856127a6565b612cdd604083018461277c565b949350505050565b612cee8161264f565b8114612cf957600080fd5b50565b600081519050612d0b81612ce5565b92915050565b600060208284031215612d2757612d266123e6565b5b6000612d3584828501612cfc565b91505092915050565b6000604082019050612d53600083018561277c565b612d6060208301846127a6565b9392505050565b6000604082019050612d7c600083018561277c565b612d89602083018461277c565b9392505050565b7f4e487b7100000000000000000000000000000000000000000000000000000000600052603260045260246000fd5b6000608082019050612dd4600083018761277c565b612de160208301866127a6565b612dee60408301856127a6565b612dfb606083018461277c565b95945050505050565b6000604082019050612e1960008301856127a6565b612e26602083018461277c565b9392505050565b6000612e38826123f0565b9150612e43836123f0565b9250828203905081811115612e5b57612e5a612bcc565b5b92915050565b6000612e6c826123f0565b9150612e77836123f0565b9250828202612e85816123f0565b91508282048414831517612e9c57612e9b612bcc565b5b5092915050565b7f4e487b7100000000000000000000000000000000000000000000000000000000600052601260045260246000fd5b6000612edd826123f0565b9150612ee8836123f0565b925082612ef857612ef7612ea3565b5b828204905092915050565b6000612f0e826123f0565b915060008203612f2157612f20612bcc565b5b60018203905091905056fea2646970667358221220a8226735eb826d2caface00ec8b17d25ba9cbbd9eb3714293fb1ba7d0224fbc564736f6c634300081c0033",
  "linkReferences": {},
  "deployedLinkReferences": {}
}