{
  "_format": "hh-sol-artifact-1",
  "contractName": "P2PLendingMarketplace",
  "sourceName": "contracts/p2plendMarketplace.sol",
  "abi": [
    {
      "inputs": [
        {
          "internalType": "address",
          "name": "_collateralManager",
          "type": "address"
        }
      ],
      "stateMutability": "nonpayable",
      "type": "constructor"
    },
    {
      "inputs": [],
      "name": "BadGracePeriod",
      "type": "error"
    },
    {
      "inputs": [],
      "name": "CollateralCheckFailed",
      "type": "error"
    },
    {
      "inputs": [],
      "name": "InsufficientAmount",
      "type": "error"
    },
    {
      "inputs": [],
      "name": "InvalidCollateral",
      "type": "error"
    },
    {
      "inputs": [],
      "name": "InvalidParams",
      "type": "error"
    },
    {
      "inputs": [],
      "name": "LoanInactive",
      "type": "error"
    },
    {
      "inputs": [
        {
          "internalType": "address",
          "name": "owner",
          "type": "address"
        }
      ],
      "name": "OwnableInvalidOwner",
      "type": "error"
    },
    {
      "inputs": [
        {
          "internalType": "address",
          "name": "account",
          "type": "address"
        }
      ],
      "name": "OwnableUnauthorizedAccount",
      "type": "error"
    },
    {
      "inputs": [],
      "name": "ReentrancyGuardReentrantCall",
      "type": "error"
    },
    {
      "inputs": [],
      "name": "RepayFailed",
      "type": "error"
    },
    {
      "inputs": [],
      "name": "TransferFailed",
      "type": "error"
    },
    {
      "inputs": [],
      "name": "Unauthorized",
      "type": "error"
    },
    {
      "anonymous": false,
      "inputs": [
        {
          "indexed": true,
          "internalType": "uint256",
          "name": "id",
          "type": "uint256"
        },
        {
          "indexed": false,
          "internalType": "uint256",
          "name": "endTime",
          "type": "uint256"
        }
      ],
      "name": "GracePeriodSet",
      "type": "event"
    },
    {
      "anonymous": false,
      "inputs": [
        {
          "indexed": true,
          "internalType": "uint256",
          "name": "id",
          "type": "uint256"
        },
        {
          "indexed": true,
          "internalType": "address",
          "name": "user",
          "type": "address"
        },
        {
          "indexed": false,
          "internalType": "uint256",
          "name": "amount",
          "type": "uint256"
        },
        {
          "indexed": false,
          "internalType": "uint256",
          "name": "rate",
          "type": "uint256"
        },
        {
          "indexed": false,
          "internalType": "bool",
          "name": "isLender",
          "type": "bool"
        },
        {
          "indexed": false,
          "internalType": "address",
          "name": "token",
          "type": "address"
        }
      ],
      "name": "ListingCreated",
      "type": "event"
    },
    {
      "anonymous": false,
      "inputs": [
        {
          "indexed": true,
          "internalType": "uint256",
          "name": "id",
          "type": "uint256"
        },
        {
          "indexed": true,
          "internalType": "address",
          "name": "liquidator",
          "type": "address"
        }
      ],
      "name": "LoanLiquidated",
      "type": "event"
    },
    {
      "anonymous": false,
      "inputs": [
        {
          "indexed": true,
          "internalType": "uint256",
          "name": "id",
          "type": "uint256"
        },
        {
          "indexed": true,
          "internalType": "address",
          "name": "lender",
          "type": "address"
        },
        {
          "indexed": true,
          "internalType": "address",
          "name": "borrower",
          "type": "address"
        },
        {
          "indexed": false,
          "internalType": "uint256",
          "name": "amount",
          "type": "uint256"
        },
        {
          "indexed": false,
          "internalType": "address",
          "name": "token",
          "type": "address"
        }
      ],
      "name": "LoanMatched",
      "type": "event"
    },
    {
      "anonymous": false,
      "inputs": [
        {
          "indexed": true,
          "internalType": "uint256",
          "name": "id",
          "type": "uint256"
        },
        {
          "indexed": false,
          "internalType": "uint256",
          "name": "amount",
          "type": "uint256"
        },
        {
          "indexed": false,
          "internalType": "uint256",
          "name": "interest",
          "type": "uint256"
        },
        {
          "indexed": false,
          "internalType": "address",
          "name": "token",
          "type": "address"
        }
      ],
      "name": "LoanRepaid",
      "type": "event"
    },
    {
      "anonymous": false,
      "inputs": [
        {
          "indexed": true,
          "internalType": "address",
          "name": "previousOwner",
          "type": "address"
        },
        {
          "indexed": true,
          "internalType": "address",
          "name": "newOwner",
          "type": "address"
        }
      ],
      "name": "OwnershipTransferred",
      "type": "event"
    },
    {
      "anonymous": false,
      "inputs": [
        {
          "indexed": true,
          "internalType": "address",
          "name": "token",
          "type": "address"
        },
        {
          "indexed": false,
          "internalType": "bool",
          "name": "status",
          "type": "bool"
        }
      ],
      "name": "TokenStatusChanged",
      "type": "event"
    },
    {
      "stateMutability": "payable",
      "type": "fallback"
    },
    {
      "inputs": [],
      "name": "collateralManager",
      "outputs": [
        {
          "internalType": "contract ICollateralManager",
          "name": "",
          "type": "address"
        }
      ],
      "stateMutability": "view",
      "type": "function"
    },
    {
      "inputs": [
        {
          "internalType": "uint256",
          "name": "amount",
          "type": "uint256"
        },
        {
          "internalType": "uint256",
          "name": "maxInterestRate",
          "type": "uint256"
        },
        {
          "internalType": "uint256",
          "name": "duration",
          "type": "uint256"
        },
        {
          "internalType": "address",
          "name": "collateralToken",
          "type": "address"
        },
        {
          "internalType": "uint256",
          "name": "collateralAmount",
          "type": "uint256"
        },
        {
          "internalType": "address",
          "name": "lendingToken",
          "type": "address"
        }
      ],
      "name": "createBorrowerListing",
      "outputs": [
        {
          "internalType": "uint256",
          "name": "",
          "type": "uint256"
        }
      ],
      "stateMutability": "payable",
      "type": "function"
    },
    {
      "inputs": [
        {
          "internalType": "uint256",
          "name": "amount",
          "type": "uint256"
        },
        {
          "internalType": "uint256",
          "name": "minInterestRate",
          "type": "uint256"
        },
        {
          "internalType": "uint256",
          "name": "maxDuration",
          "type": "uint256"
        },
        {
          "internalType": "address[]",
          "name": "acceptedTokens",
          "type": "address[]"
        },
        {
          "internalType": "uint256",
          "name": "minCollateralRatio",
          "type": "uint256"
        },
        {
          "internalType": "address",
          "name": "lendingToken",
          "type": "address"
        }
      ],
      "name": "createLenderListing",
      "outputs": [
        {
          "internalType": "uint256",
          "name": "",
          "type": "uint256"
        }
      ],
      "stateMutability": "payable",
      "type": "function"
    },
    {
      "inputs": [
        {
          "internalType": "uint256",
          "name": "listingId",
          "type": "uint256"
        }
      ],
      "name": "getBorrowerListing",
      "outputs": [
        {
          "internalType": "address",
          "name": "borrower",
          "type": "address"
        },
        {
          "internalType": "uint256",
          "name": "amount",
          "type": "uint256"
        },
        {
          "internalType": "uint256",
          "name": "maxInterestRate",
          "type": "uint256"
        },
        {
          "internalType": "uint256",
          "name": "duration",
          "type": "uint256"
        },
        {
          "internalType": "address",
          "name": "collateralToken",
          "type": "address"
        },
        {
          "internalType": "uint256",
          "name": "collateralAmount",
          "type": "uint256"
        },
        {
          "internalType": "bool",
          "name": "isActive",
          "type": "bool"
        },
        {
          "internalType": "address",
          "name": "lendingToken",
          "type": "address"
        }
      ],
      "stateMutability": "view",
      "type": "function"
    },
    {
      "inputs": [
        {
          "internalType": "uint256",
          "name": "listingId",
          "type": "uint256"
        }
      ],
      "name": "getLenderListing",
      "outputs": [
        {
          "internalType": "address",
          "name": "lender",
          "type": "address"
        },
        {
          "internalType": "uint256",
          "name": "amount",
          "type": "uint256"
        },
        {
          "internalType": "uint256",
          "name": "minInterestRate",
          "type": "uint256"
        },
        {
          "internalType": "uint256",
          "name": "maxDuration",
          "type": "uint256"
        },
        {
          "internalType": "address[]",
          "name": "acceptedCollateralTokens",
          "type": "address[]"
        },
        {
          "internalType": "uint256",
          "name": "minCollateralRatio",
          "type": "uint256"
        },
        {
          "internalType": "bool",
          "name": "isActive",
          "type": "bool"
        },
        {
          "internalType": "address",
          "name": "lendingToken",
          "type": "address"
        }
      ],
      "stateMutability": "view",
      "type": "function"
    },
    {
      "inputs": [
        {
          "internalType": "uint256",
          "name": "loanId",
          "type": "uint256"
        }
      ],
      "name": "getLoan",
      "outputs": [
        {
          "components": [
            {
              "internalType": "address",
              "name": "lender",
              "type": "address"
            },
            {
              "internalType": "address",
              "name": "borrower",
              "type": "address"
            },
            {
              "internalType": "uint256",
              "name": "amount",
              "type": "uint256"
            },
            {
              "internalType": "uint256",
              "name": "interestRate",
              "type": "uint256"
            },
            {
              "internalType": "uint256",
              "name": "duration",
              "type": "uint256"
            },
            {
              "internalType": "uint256",
              "name": "startTime",
              "type": "uint256"
            },
            {
              "internalType": "uint256",
              "name": "gracePeriodEnd",
              "type": "uint256"
            },
            {
              "internalType": "uint256",
              "name": "lastInterestUpdate",
              "type": "uint256"
            },
            {
              "internalType": "uint256",
              "name": "accumulatedInterest",
              "type": "uint256"
            },
            {
              "internalType": "address",
              "name": "collateralToken",
              "type": "address"
            },
            {
              "internalType": "uint256",
              "name": "collateralAmount",
              "type": "uint256"
            },
            {
              "internalType": "bool",
              "name": "isActive",
              "type": "bool"
            },
            {
              "internalType": "address",
              "name": "lendingToken",
              "type": "address"
            }
          ],
          "internalType": "struct P2PLendingMarketplace.Loan",
          "name": "",
          "type": "tuple"
        }
      ],
      "stateMutability": "view",
      "type": "function"
    },
    {
      "inputs": [
        {
          "internalType": "uint256",
          "name": "loanId",
          "type": "uint256"
        }
      ],
      "name": "getLoanStatus",
      "outputs": [
        {
          "internalType": "bool",
          "name": "isActive",
          "type": "bool"
        },
        {
          "internalType": "bool",
          "name": "isOverdue",
          "type": "bool"
        },
        {
          "internalType": "uint256",
          "name": "totalDue",
          "type": "uint256"
        },
        {
          "internalType": "uint256",
          "name": "gracePeriodEnd",
          "type": "uint256"
        }
      ],
      "stateMutability": "view",
      "type": "function"
    },
    {
      "inputs": [
        {
          "internalType": "address",
          "name": "user",
          "type": "address"
        }
      ],
      "name": "getUserReputation",
      "outputs": [
        {
          "internalType": "uint256",
          "name": "",
          "type": "uint256"
        }
      ],
      "stateMutability": "view",
      "type": "function"
    },
    {
      "inputs": [
        {
          "internalType": "address",
          "name": "user",
          "type": "address"
        },
        {
          "internalType": "address",
          "name": "token",
          "type": "address"
        }
      ],
      "name": "getUserVolume",
      "outputs": [
        {
          "internalType": "uint256",
          "name": "",
          "type": "uint256"
        }
      ],
      "stateMutability": "view",
      "type": "function"
    },
    {
      "inputs": [
        {
          "internalType": "uint256",
          "name": "loanId",
          "type": "uint256"
        }
      ],
      "name": "liquidateLoan",
      "outputs": [],
      "stateMutability": "nonpayable",
      "type": "function"
    },
    {
      "inputs": [
        {
          "internalType": "uint256",
          "name": "lenderListingId",
          "type": "uint256"
        },
        {
          "internalType": "uint256",
          "name": "borrowerListingId",
          "type": "uint256"
        }
      ],
      "name": "matchLoan",
      "outputs": [],
      "stateMutability": "nonpayable",
      "type": "function"
    },
    {
      "inputs": [],
      "name": "owner",
      "outputs": [
        {
          "internalType": "address",
          "name": "",
          "type": "address"
        }
      ],
      "stateMutability": "view",
      "type": "function"
    },
    {
      "inputs": [],
      "name": "renounceOwnership",
      "outputs": [],
      "stateMutability": "nonpayable",
      "type": "function"
    },
    {
      "inputs": [
        {
          "internalType": "uint256",
          "name": "loanId",
          "type": "uint256"
        }
      ],
      "name": "repayLoan",
      "outputs": [],
      "stateMutability": "payable",
      "type": "function"
    },
    {
      "inputs": [
        {
          "internalType": "uint256",
          "name": "loanId",
          "type": "uint256"
        },
        {
          "internalType": "uint256",
          "name": "newEndTime",
          "type": "uint256"
        }
      ],
      "name": "setGracePeriod",
      "outputs": [],
      "stateMutability": "nonpayable",
      "type": "function"
    },
    {
      "inputs": [
        {
          "internalType": "address",
          "name": "token",
          "type": "address"
        },
        {
          "internalType": "bool",
          "name": "status",
          "type": "bool"
        }
      ],
      "name": "setTokenStatus",
      "outputs": [],
      "stateMutability": "nonpayable",
      "type": "function"
    },
    {
      "inputs": [
        {
          "internalType": "address",
          "name": "newOwner",
          "type": "address"
        }
      ],
      "name": "transferOwnership",
      "outputs": [],
      "stateMutability": "nonpayable",
      "type": "function"
    },
    {
      "stateMutability": "payable",
      "type": "receive"
    }
  ],
  "bytecode": "0x60a06040526040518060a001604052806127108152602001610bb8815260200162015180815260200162278d0081526020016301e1338081525060026000820151816000015560208201518160010155604082015181600201556060820151816003015560808201518160040155505034801561007b57600080fd5b50604051613ed9380380613ed9833981810160405281019061009d9190610349565b336001600081905550600073ffffffffffffffffffffffffffffffffffffffff168173ffffffffffffffffffffffffffffffffffffffff16036101185760006040517f1e4fbdf700000000000000000000000000000000000000000000000000000000815260040161010f9190610385565b60405180910390fd5b6101278161022060201b60201c565b50600073ffffffffffffffffffffffffffffffffffffffff168173ffffffffffffffffffffffffffffffffffffffff160361018e576040517fa86b651200000000000000000000000000000000000000000000000000000000815260040160405180910390fd5b8073ffffffffffffffffffffffffffffffffffffffff1660808173ffffffffffffffffffffffffffffffffffffffff16815250506001600d60008073ffffffffffffffffffffffffffffffffffffffff1673ffffffffffffffffffffffffffffffffffffffff16815260200190815260200160002060006101000a81548160ff021916908315150217905550506103a0565b6000600160009054906101000a900473ffffffffffffffffffffffffffffffffffffffff16905081600160006101000a81548173ffffffffffffffffffffffffffffffffffffffff021916908373ffffffffffffffffffffffffffffffffffffffff1602179055508173ffffffffffffffffffffffffffffffffffffffff168173ffffffffffffffffffffffffffffffffffffffff167f8be0079c531659141344cd1fd0a4f28419497f9722a3daafe3b4186f6b6457e060405160405180910390a35050565b600080fd5b600073ffffffffffffffffffffffffffffffffffffffff82169050919050565b6000610316826102eb565b9050919050565b6103268161030b565b811461033157600080fd5b50565b6000815190506103438161031d565b92915050565b60006020828403121561035f5761035e6102e6565b5b600061036d84828501610334565b91505092915050565b61037f8161030b565b82525050565b600060208201905061039a6000830184610376565b92915050565b608051613af46103e56000396000818161087101528181610b850152818161181b01528181611c1c01528181611cf801528181612621015261272e0152613af46000f3fe6080604052600436106101025760003560e01c80638da5cb5b11610095578063b6327a0911610064578063b6327a091461033e578063baccbfdb14610382578063ccdd9f5d146103bf578063e2576d4f146103e8578063f2fde38b1461041157610103565b80638da5cb5b1461028a57806392dc1a6d146102b5578063a2cffaee146102e5578063ab7b1c891461032257610103565b8063504006ca116100d1578063504006ca146101c2578063531c4639146101ff578063715018a61461022f5780638cad35d81461024657610103565b80630dd18783146101055780631c4fd41c1461012e57806323be345c1461016e5780634cd735481461019957610103565b5b005b34801561011157600080fd5b5061012c60048036038101906101279190612dae565b61043a565b005b34801561013a57600080fd5b5061015560048036038101906101509190612dee565b61081b565b6040516101659493929190612e45565b60405180910390f35b34801561017a57600080fd5b5061018361086f565b6040516101909190612f09565b60405180910390f35b3480156101a557600080fd5b506101c060048036038101906101bb9190612f8e565b610893565b005b3480156101ce57600080fd5b506101e960048036038101906101e49190612dee565b610944565b6040516101f69190613106565b60405180910390f35b61021960048036038101906102149190613122565b610b35565b60405161022691906131af565b60405180910390f35b34801561023b57600080fd5b50610244610f03565b005b34801561025257600080fd5b5061026d60048036038101906102689190612dee565b610f17565b604051610281989796959493929190613288565b60405180910390f35b34801561029657600080fd5b5061029f611052565b6040516102ac919061330d565b60405180910390f35b6102cf60048036038101906102ca919061338d565b61107c565b6040516102dc91906131af565b60405180910390f35b3480156102f157600080fd5b5061030c6004803603810190610307919061343c565b6113f3565b60405161031991906131af565b60405180910390f35b61033c60048036038101906103379190612dee565b61147a565b005b34801561034a57600080fd5b5061036560048036038101906103609190612dee565b611a59565b60405161037998979695949392919061347c565b60405180910390f35b34801561038e57600080fd5b506103a960048036038101906103a491906134fa565b611b2d565b6040516103b691906131af565b60405180910390f35b3480156103cb57600080fd5b506103e660048036038101906103e19190612dee565b611b76565b005b3480156103f457600080fd5b5061040f600480360381019061040a9190612dae565b611eea565b005b34801561041d57600080fd5b50610438600480360381019061043391906134fa565b61207c565b005b610442612102565b6000600760008481526020019081526020016000209050600060086000848152602001908152602001600020905061047a8282612148565b6104b0576040517fa86b651200000000000000000000000000000000000000000000000000000000815260040160405180910390fd5b60006104bc83836122a1565b905060008360050160006101000a81548160ff02191690831515021790555060008260060160006101000a81548160ff0219169083151502179055508160010154601060008460060160019054906101000a900473ffffffffffffffffffffffffffffffffffffffff1673ffffffffffffffffffffffffffffffffffffffff1673ffffffffffffffffffffffffffffffffffffffff168152602001908152602001600020600082825461056f9190613556565b925050819055508160010154600a60008560000160009054906101000a900473ffffffffffffffffffffffffffffffffffffffff1673ffffffffffffffffffffffffffffffffffffffff1673ffffffffffffffffffffffffffffffffffffffff16815260200190815260200160002060008460060160019054906101000a900473ffffffffffffffffffffffffffffffffffffffff1673ffffffffffffffffffffffffffffffffffffffff1673ffffffffffffffffffffffffffffffffffffffff168152602001908152602001600020600082825461064e9190613556565b925050819055508160010154600a60008460000160009054906101000a900473ffffffffffffffffffffffffffffffffffffffff1673ffffffffffffffffffffffffffffffffffffffff1673ffffffffffffffffffffffffffffffffffffffff16815260200190815260200160002060008460060160019054906101000a900473ffffffffffffffffffffffffffffffffffffffff1673ffffffffffffffffffffffffffffffffffffffff1673ffffffffffffffffffffffffffffffffffffffff168152602001908152602001600020600082825461072d9190613556565b925050819055508160000160009054906101000a900473ffffffffffffffffffffffffffffffffffffffff1673ffffffffffffffffffffffffffffffffffffffff168360000160009054906101000a900473ffffffffffffffffffffffffffffffffffffffff1673ffffffffffffffffffffffffffffffffffffffff16827fab21744031f5c621be88a5f609abdf3d9e0e33c1d721ab9092444f5ded52877085600101548660060160019054906101000a900473ffffffffffffffffffffffffffffffffffffffff1660405161080492919061358a565b60405180910390a450505061081761283a565b5050565b600080600080600060096000878152602001908152602001600020905080600b0160009054906101000a900460ff168160060154421161085a88612844565b83600601549450945094509450509193509193565b7f000000000000000000000000000000000000000000000000000000000000000081565b61089b6128db565b80600d60008473ffffffffffffffffffffffffffffffffffffffff1673ffffffffffffffffffffffffffffffffffffffff16815260200190815260200160002060006101000a81548160ff0219169083151502179055508173ffffffffffffffffffffffffffffffffffffffff167f0de9c5667496fd561ff9dfa59efdc1c76f7dbf3844adae3d14a3a14d563321b18260405161093891906135b3565b60405180910390a25050565b61094c612bfb565b60096000838152602001908152602001600020604051806101a00160405290816000820160009054906101000a900473ffffffffffffffffffffffffffffffffffffffff1673ffffffffffffffffffffffffffffffffffffffff1673ffffffffffffffffffffffffffffffffffffffff1681526020016001820160009054906101000a900473ffffffffffffffffffffffffffffffffffffffff1673ffffffffffffffffffffffffffffffffffffffff1673ffffffffffffffffffffffffffffffffffffffff168152602001600282015481526020016003820154815260200160048201548152602001600582015481526020016006820154815260200160078201548152602001600882015481526020016009820160009054906101000a900473ffffffffffffffffffffffffffffffffffffffff1673ffffffffffffffffffffffffffffffffffffffff1673ffffffffffffffffffffffffffffffffffffffff168152602001600a8201548152602001600b820160009054906101000a900460ff16151515158152602001600b820160019054906101000a900473ffffffffffffffffffffffffffffffffffffffff1673ffffffffffffffffffffffffffffffffffffffff1673ffffffffffffffffffffffffffffffffffffffff16815250509050919050565b6000610b3f612102565b610b4b87878785612962565b610b81576040517fa86b651200000000000000000000000000000000000000000000000000000000815260040160405180910390fd5b60007f000000000000000000000000000000000000000000000000000000000000000073ffffffffffffffffffffffffffffffffffffffff1663934b5d1360006040518263ffffffff1660e01b8152600401610bdd9190613609565b60e060405180830381865afa158015610bfa573d6000803e3d6000fd5b505050506040513d601f19601f82011682018060405250810190610c1e91906137a8565b90508060800151610c5b576040517fd1ef4cea00000000000000000000000000000000000000000000000000000000815260040160405180910390fd5b600073ffffffffffffffffffffffffffffffffffffffff168573ffffffffffffffffffffffffffffffffffffffff1603610cc957833414610cc8576040517f5945ea5600000000000000000000000000000000000000000000000000000000815260040160405180910390fd5b5b6000600e6000815480929190610cde906137d5565b9190505590506040518061010001604052803373ffffffffffffffffffffffffffffffffffffffff1681526020018a81526020018981526020018881526020018773ffffffffffffffffffffffffffffffffffffffff1681526020018681526020016001151581526020018573ffffffffffffffffffffffffffffffffffffffff168152506008600083815260200190815260200160002060008201518160000160006101000a81548173ffffffffffffffffffffffffffffffffffffffff021916908373ffffffffffffffffffffffffffffffffffffffff16021790555060208201518160010155604082015181600201556060820151816003015560808201518160040160006101000a81548173ffffffffffffffffffffffffffffffffffffffff021916908373ffffffffffffffffffffffffffffffffffffffff16021790555060a0820151816005015560c08201518160060160006101000a81548160ff02191690831515021790555060e08201518160060160016101000a81548173ffffffffffffffffffffffffffffffffffffffff021916908373ffffffffffffffffffffffffffffffffffffffff1602179055509050503373ffffffffffffffffffffffffffffffffffffffff16817fd8b1a6f6adb2ba05abf112c6f7eeb80c904cc39a0a50f4573eccd53b09f478778b8b600089604051610ee4949392919061381d565b60405180910390a38092505050610ef961283a565b9695505050505050565b610f0b6128db565b610f1560006129f8565b565b6000806000806060600080600080600760008b815260200190815260200160002090508060000160009054906101000a900473ffffffffffffffffffffffffffffffffffffffff168160010154826002015483600301548460060185600401548660050160009054906101000a900460ff168760050160019054906101000a900473ffffffffffffffffffffffffffffffffffffffff168380548060200260200160405190810160405280929190818152602001828054801561102f57602002820191906000526020600020905b8160009054906101000a900473ffffffffffffffffffffffffffffffffffffffff1673ffffffffffffffffffffffffffffffffffffffff1681526020019060010190808311610fe5575b505050505093509850985098509850985098509850985050919395975091939597565b6000600160009054906101000a900473ffffffffffffffffffffffffffffffffffffffff16905090565b6000611086612102565b61109288888885612962565b6110c8576040517fa86b651200000000000000000000000000000000000000000000000000000000815260040160405180910390fd5b6000600e60008154809291906110dd906137d5565b919050559050600073ffffffffffffffffffffffffffffffffffffffff168373ffffffffffffffffffffffffffffffffffffffff160361115557883414611150576040517f5945ea5600000000000000000000000000000000000000000000000000000000815260040160405180910390fd5b6111d3565b6000341115611190576040517fa86b651200000000000000000000000000000000000000000000000000000000815260040160405180910390fd5b61119c8333308c612abe565b6111d2576040517f90b8ec1800000000000000000000000000000000000000000000000000000000815260040160405180910390fd5b5b6040518061010001604052803373ffffffffffffffffffffffffffffffffffffffff1681526020018a81526020018981526020018881526020018581526020016001151581526020018473ffffffffffffffffffffffffffffffffffffffff168152602001878780806020026020016040519081016040528093929190818152602001838360200280828437600081840152601f19601f820116905080830192505050505050508152506007600083815260200190815260200160002060008201518160000160006101000a81548173ffffffffffffffffffffffffffffffffffffffff021916908373ffffffffffffffffffffffffffffffffffffffff1602179055506020820151816001015560408201518160020155606082015181600301556080820151816004015560a08201518160050160006101000a81548160ff02191690831515021790555060c08201518160050160016101000a81548173ffffffffffffffffffffffffffffffffffffffff021916908373ffffffffffffffffffffffffffffffffffffffff16021790555060e0820151816006019080519060200190611382929190612cbd565b509050503373ffffffffffffffffffffffffffffffffffffffff16817fd8b1a6f6adb2ba05abf112c6f7eeb80c904cc39a0a50f4573eccd53b09f478778b8b6001886040516113d4949392919061381d565b60405180910390a3809150506113e861283a565b979650505050505050565b6000600a60008473ffffffffffffffffffffffffffffffffffffffff1673ffffffffffffffffffffffffffffffffffffffff16815260200190815260200160002060008373ffffffffffffffffffffffffffffffffffffffff1673ffffffffffffffffffffffffffffffffffffffff16815260200190815260200160002054905092915050565b611482612102565b600060096000838152602001908152602001600020905080600b0160009054906101000a900460ff166114e1576040517f5aec606200000000000000000000000000000000000000000000000000000000815260040160405180910390fd5b3373ffffffffffffffffffffffffffffffffffffffff168160010160009054906101000a900473ffffffffffffffffffffffffffffffffffffffff1673ffffffffffffffffffffffffffffffffffffffff161461156a576040517f82b4290000000000000000000000000000000000000000000000000000000000815260040160405180910390fd5b600061157583612844565b9050600073ffffffffffffffffffffffffffffffffffffffff1682600b0160019054906101000a900473ffffffffffffffffffffffffffffffffffffffff1673ffffffffffffffffffffffffffffffffffffffff160361178e5780341015611609576040517f5945ea5600000000000000000000000000000000000000000000000000000000815260040160405180910390fd5b60008260000160009054906101000a900473ffffffffffffffffffffffffffffffffffffffff1673ffffffffffffffffffffffffffffffffffffffff168260405161165390613893565b60006040518083038185875af1925050503d8060008114611690576040519150601f19603f3d011682016040523d82523d6000602084013e611695565b606091505b50509050806116d0576040517f9e703a0500000000000000000000000000000000000000000000000000000000815260040160405180910390fd5b813411156117885760003373ffffffffffffffffffffffffffffffffffffffff1683346116fd91906138a8565b60405161170990613893565b60006040518083038185875af1925050503d8060008114611746576040519150601f19603f3d011682016040523d82523d6000602084013e61174b565b606091505b5050905080611786576040517f9e703a0500000000000000000000000000000000000000000000000000000000815260040160405180910390fd5b505b50611819565b6117e282600b0160019054906101000a900473ffffffffffffffffffffffffffffffffffffffff16338460000160009054906101000a900473ffffffffffffffffffffffffffffffffffffffff1684612abe565b611818576040517f9e703a0500000000000000000000000000000000000000000000000000000000815260040160405180910390fd5b5b7f000000000000000000000000000000000000000000000000000000000000000073ffffffffffffffffffffffffffffffffffffffff1663e563abb5848460010160009054906101000a900473ffffffffffffffffffffffffffffffffffffffff166040518363ffffffff1660e01b815260040161189892919061358a565b600060405180830381600087803b1580156118b257600080fd5b505af11580156118c6573d6000803e3d6000fd5b50505050600082600b0160006101000a81548160ff021916908315150217905550600c60008360010160009054906101000a900473ffffffffffffffffffffffffffffffffffffffff1673ffffffffffffffffffffffffffffffffffffffff1673ffffffffffffffffffffffffffffffffffffffff168152602001908152602001600020600081548092919061195b906138dc565b9190505550600b60008360010160009054906101000a900473ffffffffffffffffffffffffffffffffffffffff1673ffffffffffffffffffffffffffffffffffffffff1673ffffffffffffffffffffffffffffffffffffffff16815260200190815260200160002060008154809291906119d4906137d5565b9190505550827f772a8acedf6da852dd11449f3b12046bad09c088b862fa81ab1eeb3dd99d35548360020154846002015484611a1091906138a8565b85600b0160019054906101000a900473ffffffffffffffffffffffffffffffffffffffff16604051611a4493929190613905565b60405180910390a25050611a5661283a565b50565b6000806000806000806000806000600860008b815260200190815260200160002090508060000160009054906101000a900473ffffffffffffffffffffffffffffffffffffffff168160010154826002015483600301548460040160009054906101000a900473ffffffffffffffffffffffffffffffffffffffff1685600501548660060160009054906101000a900460ff168760060160019054906101000a900473ffffffffffffffffffffffffffffffffffffffff169850985098509850985098509850985050919395975091939597565b6000600b60008373ffffffffffffffffffffffffffffffffffffffff1673ffffffffffffffffffffffffffffffffffffffff168152602001908152602001600020549050919050565b611b7e612102565b600060096000838152602001908152602001600020905080600b0160009054906101000a900460ff16611bdd576040517f5aec606200000000000000000000000000000000000000000000000000000000815260040160405180910390fd5b80600601544211611c1a576040517f82b4290000000000000000000000000000000000000000000000000000000000815260040160405180910390fd5b7f000000000000000000000000000000000000000000000000000000000000000073ffffffffffffffffffffffffffffffffffffffff1663a98c7f5f83611c6085612844565b6040518363ffffffff1660e01b8152600401611c7d92919061393c565b6020604051808303816000875af1158015611c9c573d6000803e3d6000fd5b505050506040513d601f19601f82011682018060405250810190611cc09190613965565b611cf6576040517ff882d95b00000000000000000000000000000000000000000000000000000000815260040160405180910390fd5b7f000000000000000000000000000000000000000000000000000000000000000073ffffffffffffffffffffffffffffffffffffffff1663a61f31a483611d3c85612844565b6040518363ffffffff1660e01b8152600401611d5992919061393c565b600060405180830381600087803b158015611d7357600080fd5b505af1158015611d87573d6000803e3d6000fd5b50505050600081600b0160006101000a81548160ff021916908315150217905550600c60008260010160009054906101000a900473ffffffffffffffffffffffffffffffffffffffff1673ffffffffffffffffffffffffffffffffffffffff1673ffffffffffffffffffffffffffffffffffffffff1681526020019081526020016000206000815480929190611e1c906138dc565b9190505550600b60008260010160009054906101000a900473ffffffffffffffffffffffffffffffffffffffff1673ffffffffffffffffffffffffffffffffffffffff1673ffffffffffffffffffffffffffffffffffffffff1681526020019081526020016000206000815480929190611e95906138dc565b91905055503373ffffffffffffffffffffffffffffffffffffffff16827f73de9acc561f27528ab0a3b5dd63fefb4e59f95575891299a6f862a78779817660405160405180910390a350611ee761283a565b50565b611ef2612102565b600060096000848152602001908152602001600020905080600b0160009054906101000a900460ff16611f51576040517f5aec606200000000000000000000000000000000000000000000000000000000815260040160405180910390fd5b3373ffffffffffffffffffffffffffffffffffffffff168160000160009054906101000a900473ffffffffffffffffffffffffffffffffffffffff1673ffffffffffffffffffffffffffffffffffffffff1614611fda576040517f82b4290000000000000000000000000000000000000000000000000000000000815260040160405180910390fd5b60006002600301548260060154611ff19190613556565b90508083111561202d576040517ffdd275d000000000000000000000000000000000000000000000000000000000815260040160405180910390fd5b828260060181905550837f8a7a5c9c34210b39b0dd6c746e4824f7af2a84c059d4dcbc168a2036d26df9908460405161206691906131af565b60405180910390a2505061207861283a565b5050565b6120846128db565b600073ffffffffffffffffffffffffffffffffffffffff168173ffffffffffffffffffffffffffffffffffffffff16036120f65760006040517f1e4fbdf70000000000000000000000000000000000000000000000000000000081526004016120ed919061330d565b60405180910390fd5b6120ff816129f8565b50565b60026000540361213e576040517f3ee5aeb500000000000000000000000000000000000000000000000000000000815260040160405180910390fd5b6002600081905550565b60008260050160009054906101000a900460ff16158061217757508160060160009054906101000a900460ff16155b15612185576000905061229b565b82600201548260020154101561219e576000905061229b565b8260030154826003015411156121b7576000905061229b565b8260010154826001015411156121d0576000905061229b565b8260050160019054906101000a900473ffffffffffffffffffffffffffffffffffffffff1673ffffffffffffffffffffffffffffffffffffffff168260060160019054906101000a900473ffffffffffffffffffffffffffffffffffffffff1673ffffffffffffffffffffffffffffffffffffffff1614612254576000905061229b565b600080846006019050805460005b81811015612293576101008184012080548754810361228657600195505050612293565b5050600181019050612262565b505081925050505b92915050565b600080600f60008154809291906122b7906137d5565b919050559050604051806101a001604052808560000160009054906101000a900473ffffffffffffffffffffffffffffffffffffffff1673ffffffffffffffffffffffffffffffffffffffff1681526020018460000160009054906101000a900473ffffffffffffffffffffffffffffffffffffffff1673ffffffffffffffffffffffffffffffffffffffff16815260200184600101548152602001856002015481526020018460030154815260200142815260200184600301544261237d9190613556565b8152602001428152602001600081526020018460040160009054906101000a900473ffffffffffffffffffffffffffffffffffffffff1673ffffffffffffffffffffffffffffffffffffffff168152602001846005015481526020016001151581526020018460060160019054906101000a900473ffffffffffffffffffffffffffffffffffffffff1673ffffffffffffffffffffffffffffffffffffffff168152506009600083815260200190815260200160002060008201518160000160006101000a81548173ffffffffffffffffffffffffffffffffffffffff021916908373ffffffffffffffffffffffffffffffffffffffff16021790555060208201518160010160006101000a81548173ffffffffffffffffffffffffffffffffffffffff021916908373ffffffffffffffffffffffffffffffffffffffff16021790555060408201518160020155606082015181600301556080820151816004015560a0820151816005015560c0820151816006015560e0820151816007015561010082015181600801556101208201518160090160006101000a81548173ffffffffffffffffffffffffffffffffffffffff021916908373ffffffffffffffffffffffffffffffffffffffff16021790555061014082015181600a015561016082015181600b0160006101000a81548160ff02191690831515021790555061018082015181600b0160016101000a81548173ffffffffffffffffffffffffffffffffffffffff021916908373ffffffffffffffffffffffffffffffffffffffff160217905550905050600073ffffffffffffffffffffffffffffffffffffffff168360040160009054906101000a900473ffffffffffffffffffffffffffffffffffffffff1673ffffffffffffffffffffffffffffffffffffffff160361272c577f000000000000000000000000000000000000000000000000000000000000000073ffffffffffffffffffffffffffffffffffffffff1663b855032e8460050154838660000160009054906101000a900473ffffffffffffffffffffffffffffffffffffffff168760040160009054906101000a900473ffffffffffffffffffffffffffffffffffffffff1688600501548960060160019054906101000a900473ffffffffffffffffffffffffffffffffffffffff166040518763ffffffff1660e01b81526004016126f5959493929190613992565b6000604051808303818588803b15801561270e57600080fd5b505af1158015612722573d6000803e3d6000fd5b5050505050612830565b7f000000000000000000000000000000000000000000000000000000000000000073ffffffffffffffffffffffffffffffffffffffff1663b855032e828560000160009054906101000a900473ffffffffffffffffffffffffffffffffffffffff168660040160009054906101000a900473ffffffffffffffffffffffffffffffffffffffff1687600501548860060160019054906101000a900473ffffffffffffffffffffffffffffffffffffffff166040518663ffffffff1660e01b81526004016127fd959493929190613992565b600060405180830381600087803b15801561281757600080fd5b505af115801561282b573d6000803e3d6000fd5b505050505b8091505092915050565b6001600081905550565b600080600960008481526020019081526020016000209050600081600701544261286e91906138a8565b905060006301e1338060026000015461288791906139e5565b828460030154856002015461289c91906139e5565b6128a691906139e5565b6128b09190613a56565b905080836008015484600201546128c79190613556565b6128d19190613556565b9350505050919050565b6128e3612bf3565b73ffffffffffffffffffffffffffffffffffffffff16612901611052565b73ffffffffffffffffffffffffffffffffffffffff161461296057612924612bf3565b6040517f118cdaa7000000000000000000000000000000000000000000000000000000008152600401612957919061330d565b60405180910390fd5b565b6000808511801561297857506002600101548411155b8015612988575060028001548310155b801561299957506002600401548311155b80156129ee5750600d60008373ffffffffffffffffffffffffffffffffffffffff1673ffffffffffffffffffffffffffffffffffffffff16815260200190815260200160002060009054906101000a900460ff165b9050949350505050565b6000600160009054906101000a900473ffffffffffffffffffffffffffffffffffffffff16905081600160006101000a81548173ffffffffffffffffffffffffffffffffffffffff021916908373ffffffffffffffffffffffffffffffffffffffff1602179055508173ffffffffffffffffffffffffffffffffffffffff168173ffffffffffffffffffffffffffffffffffffffff167f8be0079c531659141344cd1fd0a4f28419497f9722a3daafe3b4186f6b6457e060405160405180910390a35050565b60008073ffffffffffffffffffffffffffffffffffffffff168573ffffffffffffffffffffffffffffffffffffffff1603612b685760008373ffffffffffffffffffffffffffffffffffffffff1683604051612b1990613893565b60006040518083038185875af1925050503d8060008114612b56576040519150601f19603f3d011682016040523d82523d6000602084013e612b5b565b606091505b5050905080915050612beb565b8473ffffffffffffffffffffffffffffffffffffffff166323b872dd8585856040518463ffffffff1660e01b8152600401612ba593929190613a87565b6020604051808303816000875af1158015612bc4573d6000803e3d6000fd5b505050506040513d601f19601f82011682018060405250810190612be89190613965565b90505b949350505050565b600033905090565b604051806101a00160405280600073ffffffffffffffffffffffffffffffffffffffff168152602001600073ffffffffffffffffffffffffffffffffffffffff16815260200160008152602001600081526020016000815260200160008152602001600081526020016000815260200160008152602001600073ffffffffffffffffffffffffffffffffffffffff16815260200160008152602001600015158152602001600073ffffffffffffffffffffffffffffffffffffffff1681525090565b828054828255906000526020600020908101928215612d36579160200282015b82811115612d355782518260006101000a81548173ffffffffffffffffffffffffffffffffffffffff021916908373ffffffffffffffffffffffffffffffffffffffff16021790555091602001919060010190612cdd565b5b509050612d439190612d47565b5090565b5b80821115612d60576000816000905550600101612d48565b5090565b6000604051905090565b600080fd5b600080fd5b6000819050919050565b612d8b81612d78565b8114612d9657600080fd5b50565b600081359050612da881612d82565b92915050565b60008060408385031215612dc557612dc4612d6e565b5b6000612dd385828601612d99565b9250506020612de485828601612d99565b9150509250929050565b600060208284031215612e0457612e03612d6e565b5b6000612e1284828501612d99565b91505092915050565b60008115159050919050565b612e3081612e1b565b82525050565b612e3f81612d78565b82525050565b6000608082019050612e5a6000830187612e27565b612e676020830186612e27565b612e746040830185612e36565b612e816060830184612e36565b95945050505050565b600073ffffffffffffffffffffffffffffffffffffffff82169050919050565b6000819050919050565b6000612ecf612eca612ec584612e8a565b612eaa565b612e8a565b9050919050565b6000612ee182612eb4565b9050919050565b6000612ef382612ed6565b9050919050565b612f0381612ee8565b82525050565b6000602082019050612f1e6000830184612efa565b92915050565b6000612f2f82612e8a565b9050919050565b612f3f81612f24565b8114612f4a57600080fd5b50565b600081359050612f5c81612f36565b92915050565b612f6b81612e1b565b8114612f7657600080fd5b50565b600081359050612f8881612f62565b92915050565b60008060408385031215612fa557612fa4612d6e565b5b6000612fb385828601612f4d565b9250506020612fc485828601612f79565b9150509250929050565b612fd781612f24565b82525050565b612fe681612d78565b82525050565b612ff581612e1b565b82525050565b6101a0820160008201516130126000850182612fce565b5060208201516130256020850182612fce565b5060408201516130386040850182612fdd565b50606082015161304b6060850182612fdd565b50608082015161305e6080850182612fdd565b5060a082015161307160a0850182612fdd565b5060c082015161308460c0850182612fdd565b5060e082015161309760e0850182612fdd565b506101008201516130ac610100850182612fdd565b506101208201516130c1610120850182612fce565b506101408201516130d6610140850182612fdd565b506101608201516130eb610160850182612fec565b50610180820151613100610180850182612fce565b50505050565b60006101a08201905061311c6000830184612ffb565b92915050565b60008060008060008060c0878903121561313f5761313e612d6e565b5b600061314d89828a01612d99565b965050602061315e89828a01612d99565b955050604061316f89828a01612d99565b945050606061318089828a01612f4d565b935050608061319189828a01612d99565b92505060a06131a289828a01612f4d565b9150509295509295509295565b60006020820190506131c46000830184612e36565b92915050565b6131d381612f24565b82525050565b600081519050919050565b600082825260208201905092915050565b6000819050602082019050919050565b60006132118383612fce565b60208301905092915050565b6000602082019050919050565b6000613235826131d9565b61323f81856131e4565b935061324a836131f5565b8060005b8381101561327b5781516132628882613205565b975061326d8361321d565b92505060018101905061324e565b5085935050505092915050565b60006101008201905061329e600083018b6131ca565b6132ab602083018a612e36565b6132b86040830189612e36565b6132c56060830188612e36565b81810360808301526132d7818761322a565b90506132e660a0830186612e36565b6132f360c0830185612e27565b61330060e08301846131ca565b9998505050505050505050565b600060208201905061332260008301846131ca565b92915050565b600080fd5b600080fd5b600080fd5b60008083601f84011261334d5761334c613328565b5b8235905067ffffffffffffffff81111561336a5761336961332d565b5b60208301915083602082028301111561338657613385613332565b5b9250929050565b600080600080600080600060c0888a0312156133ac576133ab612d6e565b5b60006133ba8a828b01612d99565b97505060206133cb8a828b01612d99565b96505060406133dc8a828b01612d99565b955050606088013567ffffffffffffffff8111156133fd576133fc612d73565b5b6134098a828b01613337565b9450945050608061341c8a828b01612d99565b92505060a061342d8a828b01612f4d565b91505092959891949750929550565b6000806040838503121561345357613452612d6e565b5b600061346185828601612f4d565b925050602061347285828601612f4d565b9150509250929050565b600061010082019050613492600083018b6131ca565b61349f602083018a612e36565b6134ac6040830189612e36565b6134b96060830188612e36565b6134c660808301876131ca565b6134d360a0830186612e36565b6134e060c0830185612e27565b6134ed60e08301846131ca565b9998505050505050505050565b6000602082840312156135105761350f612d6e565b5b600061351e84828501612f4d565b91505092915050565b7f4e487b7100000000000000000000000000000000000000000000000000000000600052601160045260246000fd5b600061356182612d78565b915061356c83612d78565b925082820190508082111561358457613583613527565b5b92915050565b600060408201905061359f6000830185612e36565b6135ac60208301846131ca565b9392505050565b60006020820190506135c86000830184612e27565b92915050565b6000819050919050565b60006135f36135ee6135e9846135ce565b612eaa565b612d78565b9050919050565b613603816135d8565b82525050565b600060208201905061361e60008301846135fa565b92915050565b600080fd5b6000601f19601f8301169050919050565b7f4e487b7100000000000000000000000000000000000000000000000000000000600052604160045260246000fd5b61367282613629565b810181811067ffffffffffffffff821117156136915761369061363a565b5b80604052505050565b60006136a4612d64565b90506136b08282613669565b919050565b6000815190506136c481612f36565b92915050565b6000815190506136d981612d82565b92915050565b6000815190506136ee81612f62565b92915050565b600060e0828403121561370a57613709613624565b5b61371460e061369a565b90506000613724848285016136b5565b6000830152506020613738848285016136ca565b602083015250604061374c848285016136b5565b6040830152506060613760848285016136ca565b6060830152506080613774848285016136df565b60808301525060a0613788848285016136df565b60a08301525060c061379c848285016136b5565b60c08301525092915050565b600060e082840312156137be576137bd612d6e565b5b60006137cc848285016136f4565b91505092915050565b60006137e082612d78565b91507fffffffffffffffffffffffffffffffffffffffffffffffffffffffffffffffff820361381257613811613527565b5b600182019050919050565b60006080820190506138326000830187612e36565b61383f6020830186612e36565b61384c6040830185612e27565b61385960608301846131ca565b95945050505050565b600081905092915050565b50565b600061387d600083613862565b91506138888261386d565b600082019050919050565b600061389e82613870565b9150819050919050565b60006138b382612d78565b91506138be83612d78565b92508282039050818111156138d6576138d5613527565b5b92915050565b60006138e782612d78565b9150600082036138fa576138f9613527565b5b600182039050919050565b600060608201905061391a6000830186612e36565b6139276020830185612e36565b61393460408301846131ca565b949350505050565b60006040820190506139516000830185612e36565b61395e6020830184612e36565b9392505050565b60006020828403121561397b5761397a612d6e565b5b6000613989848285016136df565b91505092915050565b600060a0820190506139a76000830188612e36565b6139b460208301876131ca565b6139c160408301866131ca565b6139ce6060830185612e36565b6139db60808301846131ca565b9695505050505050565b60006139f082612d78565b91506139fb83612d78565b9250828202613a0981612d78565b91508282048414831517613a2057613a1f613527565b5b5092915050565b7f4e487b7100000000000000000000000000000000000000000000000000000000600052601260045260246000fd5b6000613a6182612d78565b9150613a6c83612d78565b925082613a7c57613a7b613a27565b5b828204905092915050565b6000606082019050613a9c60008301866131ca565b613aa960208301856131ca565b613ab66040830184612e36565b94935050505056fea26469706673582212201a27437a58a7aa571ea66fdb7a2bb1c86f196385de3581855191858015171bb864736f6c634300081c0033",
  "linkReferences": {},
  "deployedLinkReferences": {}
}