{
  "_format": "hh-sol-artifact-1",
  "contractName": "P2PLendingMarketplace",
  "sourceName": "contracts/p2plendMarketplace.sol",
  "abi": [
    {
      "inputs": [
        {
          "internalType": "address",
          "name": "_collateralManager",
          "type": "address"
        }
      ],
      "stateMutability": "nonpayable",
      "type": "constructor"
    },
    {
      "inputs": [],
      "name": "BadGracePeriod",
      "type": "error"
    },
    {
      "inputs": [],
      "name": "CollateralCheckFailed",
      "type": "error"
    },
    {
      "inputs": [],
      "name": "InsufficientAmount",
      "type": "error"
    },
    {
      "inputs": [],
      "name": "InvalidParams",
      "type": "error"
    },
    {
      "inputs": [],
      "name": "LoanInactive",
      "type": "error"
    },
    {
      "inputs": [
        {
          "internalType": "address",
          "name": "owner",
          "type": "address"
        }
      ],
      "name": "OwnableInvalidOwner",
      "type": "error"
    },
    {
      "inputs": [
        {
          "internalType": "address",
          "name": "account",
          "type": "address"
        }
      ],
      "name": "OwnableUnauthorizedAccount",
      "type": "error"
    },
    {
      "inputs": [],
      "name": "ReentrancyGuardReentrantCall",
      "type": "error"
    },
    {
      "inputs": [],
      "name": "RepayFailed",
      "type": "error"
    },
    {
      "inputs": [],
      "name": "TransferFailed",
      "type": "error"
    },
    {
      "inputs": [],
      "name": "Unauthorized",
      "type": "error"
    },
    {
      "anonymous": false,
      "inputs": [
        {
          "indexed": true,
          "internalType": "uint256",
          "name": "id",
          "type": "uint256"
        },
        {
          "indexed": false,
          "internalType": "uint256",
          "name": "endTime",
          "type": "uint256"
        }
      ],
      "name": "GracePeriodSet",
      "type": "event"
    },
    {
      "anonymous": false,
      "inputs": [
        {
          "indexed": true,
          "internalType": "uint256",
          "name": "id",
          "type": "uint256"
        },
        {
          "indexed": true,
          "internalType": "address",
          "name": "user",
          "type": "address"
        },
        {
          "indexed": false,
          "internalType": "uint256",
          "name": "amount",
          "type": "uint256"
        },
        {
          "indexed": false,
          "internalType": "uint256",
          "name": "rate",
          "type": "uint256"
        },
        {
          "indexed": false,
          "internalType": "bool",
          "name": "isLender",
          "type": "bool"
        },
        {
          "indexed": false,
          "internalType": "address",
          "name": "token",
          "type": "address"
        }
      ],
      "name": "ListingCreated",
      "type": "event"
    },
    {
      "anonymous": false,
      "inputs": [
        {
          "indexed": true,
          "internalType": "uint256",
          "name": "id",
          "type": "uint256"
        },
        {
          "indexed": true,
          "internalType": "address",
          "name": "liquidator",
          "type": "address"
        }
      ],
      "name": "LoanLiquidated",
      "type": "event"
    },
    {
      "anonymous": false,
      "inputs": [
        {
          "indexed": true,
          "internalType": "uint256",
          "name": "id",
          "type": "uint256"
        },
        {
          "indexed": true,
          "internalType": "address",
          "name": "lender",
          "type": "address"
        },
        {
          "indexed": true,
          "internalType": "address",
          "name": "borrower",
          "type": "address"
        },
        {
          "indexed": false,
          "internalType": "uint256",
          "name": "amount",
          "type": "uint256"
        },
        {
          "indexed": false,
          "internalType": "address",
          "name": "token",
          "type": "address"
        }
      ],
      "name": "LoanMatched",
      "type": "event"
    },
    {
      "anonymous": false,
      "inputs": [
        {
          "indexed": true,
          "internalType": "uint256",
          "name": "id",
          "type": "uint256"
        },
        {
          "indexed": false,
          "internalType": "uint256",
          "name": "amount",
          "type": "uint256"
        },
        {
          "indexed": false,
          "internalType": "uint256",
          "name": "interest",
          "type": "uint256"
        },
        {
          "indexed": false,
          "internalType": "address",
          "name": "token",
          "type": "address"
        }
      ],
      "name": "LoanRepaid",
      "type": "event"
    },
    {
      "anonymous": false,
      "inputs": [
        {
          "indexed": true,
          "internalType": "address",
          "name": "previousOwner",
          "type": "address"
        },
        {
          "indexed": true,
          "internalType": "address",
          "name": "newOwner",
          "type": "address"
        }
      ],
      "name": "OwnershipTransferred",
      "type": "event"
    },
    {
      "anonymous": false,
      "inputs": [
        {
          "indexed": true,
          "internalType": "address",
          "name": "token",
          "type": "address"
        },
        {
          "indexed": false,
          "internalType": "bool",
          "name": "status",
          "type": "bool"
        }
      ],
      "name": "TokenStatusChanged",
      "type": "event"
    },
    {
      "stateMutability": "payable",
      "type": "fallback"
    },
    {
      "inputs": [],
      "name": "collateralManager",
      "outputs": [
        {
          "internalType": "contract ICollateralManager",
          "name": "",
          "type": "address"
        }
      ],
      "stateMutability": "view",
      "type": "function"
    },
    {
      "inputs": [
        {
          "internalType": "uint256",
          "name": "amount",
          "type": "uint256"
        },
        {
          "internalType": "uint256",
          "name": "maxInterestRate",
          "type": "uint256"
        },
        {
          "internalType": "uint256",
          "name": "duration",
          "type": "uint256"
        },
        {
          "internalType": "address",
          "name": "collateralToken",
          "type": "address"
        },
        {
          "internalType": "uint256",
          "name": "collateralAmount",
          "type": "uint256"
        },
        {
          "internalType": "address",
          "name": "lendingToken",
          "type": "address"
        }
      ],
      "name": "createBorrowerListing",
      "outputs": [
        {
          "internalType": "uint256",
          "name": "",
          "type": "uint256"
        }
      ],
      "stateMutability": "payable",
      "type": "function"
    },
    {
      "inputs": [
        {
          "internalType": "uint256",
          "name": "amount",
          "type": "uint256"
        },
        {
          "internalType": "uint256",
          "name": "minInterestRate",
          "type": "uint256"
        },
        {
          "internalType": "uint256",
          "name": "maxDuration",
          "type": "uint256"
        },
        {
          "internalType": "address[]",
          "name": "acceptedTokens",
          "type": "address[]"
        },
        {
          "internalType": "uint256",
          "name": "minCollateralRatio",
          "type": "uint256"
        },
        {
          "internalType": "address",
          "name": "lendingToken",
          "type": "address"
        }
      ],
      "name": "createLenderListing",
      "outputs": [
        {
          "internalType": "uint256",
          "name": "",
          "type": "uint256"
        }
      ],
      "stateMutability": "payable",
      "type": "function"
    },
    {
      "inputs": [
        {
          "internalType": "uint256",
          "name": "listingId",
          "type": "uint256"
        }
      ],
      "name": "getBorrowerListing",
      "outputs": [
        {
          "internalType": "address",
          "name": "borrower",
          "type": "address"
        },
        {
          "internalType": "uint256",
          "name": "amount",
          "type": "uint256"
        },
        {
          "internalType": "uint256",
          "name": "maxInterestRate",
          "type": "uint256"
        },
        {
          "internalType": "uint256",
          "name": "duration",
          "type": "uint256"
        },
        {
          "internalType": "address",
          "name": "collateralToken",
          "type": "address"
        },
        {
          "internalType": "uint256",
          "name": "collateralAmount",
          "type": "uint256"
        },
        {
          "internalType": "bool",
          "name": "isActive",
          "type": "bool"
        },
        {
          "internalType": "address",
          "name": "lendingToken",
          "type": "address"
        }
      ],
      "stateMutability": "view",
      "type": "function"
    },
    {
      "inputs": [
        {
          "internalType": "uint256",
          "name": "listingId",
          "type": "uint256"
        }
      ],
      "name": "getLenderListing",
      "outputs": [
        {
          "internalType": "address",
          "name": "lender",
          "type": "address"
        },
        {
          "internalType": "uint256",
          "name": "amount",
          "type": "uint256"
        },
        {
          "internalType": "uint256",
          "name": "minInterestRate",
          "type": "uint256"
        },
        {
          "internalType": "uint256",
          "name": "maxDuration",
          "type": "uint256"
        },
        {
          "internalType": "address[]",
          "name": "acceptedCollateralTokens",
          "type": "address[]"
        },
        {
          "internalType": "uint256",
          "name": "minCollateralRatio",
          "type": "uint256"
        },
        {
          "internalType": "bool",
          "name": "isActive",
          "type": "bool"
        },
        {
          "internalType": "address",
          "name": "lendingToken",
          "type": "address"
        }
      ],
      "stateMutability": "view",
      "type": "function"
    },
    {
      "inputs": [
        {
          "internalType": "uint256",
          "name": "loanId",
          "type": "uint256"
        }
      ],
      "name": "getLoan",
      "outputs": [
        {
          "components": [
            {
              "internalType": "address",
              "name": "lender",
              "type": "address"
            },
            {
              "internalType": "address",
              "name": "borrower",
              "type": "address"
            },
            {
              "internalType": "uint256",
              "name": "amount",
              "type": "uint256"
            },
            {
              "internalType": "uint256",
              "name": "interestRate",
              "type": "uint256"
            },
            {
              "internalType": "uint256",
              "name": "duration",
              "type": "uint256"
            },
            {
              "internalType": "uint256",
              "name": "startTime",
              "type": "uint256"
            },
            {
              "internalType": "uint256",
              "name": "gracePeriodEnd",
              "type": "uint256"
            },
            {
              "internalType": "uint256",
              "name": "lastInterestUpdate",
              "type": "uint256"
            },
            {
              "internalType": "uint256",
              "name": "accumulatedInterest",
              "type": "uint256"
            },
            {
              "internalType": "address",
              "name": "collateralToken",
              "type": "address"
            },
            {
              "internalType": "uint256",
              "name": "collateralAmount",
              "type": "uint256"
            },
            {
              "internalType": "bool",
              "name": "isActive",
              "type": "bool"
            },
            {
              "internalType": "address",
              "name": "lendingToken",
              "type": "address"
            }
          ],
          "internalType": "struct P2PLendingMarketplace.Loan",
          "name": "",
          "type": "tuple"
        }
      ],
      "stateMutability": "view",
      "type": "function"
    },
    {
      "inputs": [
        {
          "internalType": "uint256",
          "name": "loanId",
          "type": "uint256"
        }
      ],
      "name": "getLoanStatus",
      "outputs": [
        {
          "internalType": "bool",
          "name": "isActive",
          "type": "bool"
        },
        {
          "internalType": "bool",
          "name": "isOverdue",
          "type": "bool"
        },
        {
          "internalType": "uint256",
          "name": "totalDue",
          "type": "uint256"
        },
        {
          "internalType": "uint256",
          "name": "gracePeriodEnd",
          "type": "uint256"
        }
      ],
      "stateMutability": "view",
      "type": "function"
    },
    {
      "inputs": [
        {
          "internalType": "address",
          "name": "user",
          "type": "address"
        }
      ],
      "name": "getUserReputation",
      "outputs": [
        {
          "internalType": "uint256",
          "name": "",
          "type": "uint256"
        }
      ],
      "stateMutability": "view",
      "type": "function"
    },
    {
      "inputs": [
        {
          "internalType": "address",
          "name": "user",
          "type": "address"
        },
        {
          "internalType": "address",
          "name": "token",
          "type": "address"
        }
      ],
      "name": "getUserVolume",
      "outputs": [
        {
          "internalType": "uint256",
          "name": "",
          "type": "uint256"
        }
      ],
      "stateMutability": "view",
      "type": "function"
    },
    {
      "inputs": [
        {
          "internalType": "uint256",
          "name": "loanId",
          "type": "uint256"
        }
      ],
      "name": "liquidateLoan",
      "outputs": [],
      "stateMutability": "nonpayable",
      "type": "function"
    },
    {
      "inputs": [
        {
          "internalType": "uint256",
          "name": "lenderListingId",
          "type": "uint256"
        },
        {
          "internalType": "uint256",
          "name": "borrowerListingId",
          "type": "uint256"
        }
      ],
      "name": "matchLoan",
      "outputs": [],
      "stateMutability": "nonpayable",
      "type": "function"
    },
    {
      "inputs": [],
      "name": "owner",
      "outputs": [
        {
          "internalType": "address",
          "name": "",
          "type": "address"
        }
      ],
      "stateMutability": "view",
      "type": "function"
    },
    {
      "inputs": [],
      "name": "renounceOwnership",
      "outputs": [],
      "stateMutability": "nonpayable",
      "type": "function"
    },
    {
      "inputs": [
        {
          "internalType": "uint256",
          "name": "loanId",
          "type": "uint256"
        }
      ],
      "name": "repayLoan",
      "outputs": [],
      "stateMutability": "payable",
      "type": "function"
    },
    {
      "inputs": [
        {
          "internalType": "uint256",
          "name": "loanId",
          "type": "uint256"
        },
        {
          "internalType": "uint256",
          "name": "newEndTime",
          "type": "uint256"
        }
      ],
      "name": "setGracePeriod",
      "outputs": [],
      "stateMutability": "nonpayable",
      "type": "function"
    },
    {
      "inputs": [
        {
          "internalType": "address",
          "name": "token",
          "type": "address"
        },
        {
          "internalType": "bool",
          "name": "status",
          "type": "bool"
        }
      ],
      "name": "setTokenStatus",
      "outputs": [],
      "stateMutability": "nonpayable",
      "type": "function"
    },
    {
      "inputs": [
        {
          "internalType": "address",
          "name": "newOwner",
          "type": "address"
        }
      ],
      "name": "transferOwnership",
      "outputs": [],
      "stateMutability": "nonpayable",
      "type": "function"
    },
    {
      "stateMutability": "payable",
      "type": "receive"
    }
  ],
  "bytecode": "0x60a06040526040518060a001604052806127108152602001610bb8815260200162015180815260200162278d0081526020016301e1338081525060026000820151816000015560208201518160010155604082015181600201556060820151816003015560808201518160040155505034801561007b57600080fd5b50604051613bfb380380613bfb833981810160405281019061009d9190610349565b336001600081905550600073ffffffffffffffffffffffffffffffffffffffff168173ffffffffffffffffffffffffffffffffffffffff16036101185760006040517f1e4fbdf700000000000000000000000000000000000000000000000000000000815260040161010f9190610385565b60405180910390fd5b6101278161022060201b60201c565b50600073ffffffffffffffffffffffffffffffffffffffff168173ffffffffffffffffffffffffffffffffffffffff160361018e576040517fa86b651200000000000000000000000000000000000000000000000000000000815260040160405180910390fd5b8073ffffffffffffffffffffffffffffffffffffffff1660808173ffffffffffffffffffffffffffffffffffffffff16815250506001600d60008073ffffffffffffffffffffffffffffffffffffffff1673ffffffffffffffffffffffffffffffffffffffff16815260200190815260200160002060006101000a81548160ff021916908315150217905550506103a0565b6000600160009054906101000a900473ffffffffffffffffffffffffffffffffffffffff16905081600160006101000a81548173ffffffffffffffffffffffffffffffffffffffff021916908373ffffffffffffffffffffffffffffffffffffffff1602179055508173ffffffffffffffffffffffffffffffffffffffff168173ffffffffffffffffffffffffffffffffffffffff167f8be0079c531659141344cd1fd0a4f28419497f9722a3daafe3b4186f6b6457e060405160405180910390a35050565b600080fd5b600073ffffffffffffffffffffffffffffffffffffffff82169050919050565b6000610316826102eb565b9050919050565b6103268161030b565b811461033157600080fd5b50565b6000815190506103438161031d565b92915050565b60006020828403121561035f5761035e6102e6565b5b600061036d84828501610334565b91505092915050565b61037f8161030b565b82525050565b600060208201905061039a6000830184610376565b92915050565b60805161381d6103de600039600081816108710152818161174001528181611b4101528181611c1d015281816125460152612653015261381d6000f3fe6080604052600436106101025760003560e01c80638da5cb5b11610095578063b6327a0911610064578063b6327a091461033e578063baccbfdb14610382578063ccdd9f5d146103bf578063e2576d4f146103e8578063f2fde38b1461041157610103565b80638da5cb5b1461028a57806392dc1a6d146102b5578063a2cffaee146102e5578063ab7b1c891461032257610103565b8063504006ca116100d1578063504006ca146101c2578063531c4639146101ff578063715018a61461022f5780638cad35d81461024657610103565b80630dd18783146101055780631c4fd41c1461012e57806323be345c1461016e5780634cd735481461019957610103565b5b005b34801561011157600080fd5b5061012c60048036038101906101279190612cc9565b61043a565b005b34801561013a57600080fd5b5061015560048036038101906101509190612d09565b61081b565b6040516101659493929190612d60565b60405180910390f35b34801561017a57600080fd5b5061018361086f565b6040516101909190612e24565b60405180910390f35b3480156101a557600080fd5b506101c060048036038101906101bb9190612ea9565b610893565b005b3480156101ce57600080fd5b506101e960048036038101906101e49190612d09565b610944565b6040516101f69190613021565b60405180910390f35b6102196004803603810190610214919061303d565b610b35565b60405161022691906130ca565b60405180910390f35b34801561023b57600080fd5b50610244610e28565b005b34801561025257600080fd5b5061026d60048036038101906102689190612d09565b610e3c565b6040516102819897969594939291906131a3565b60405180910390f35b34801561029657600080fd5b5061029f610f77565b6040516102ac9190613228565b60405180910390f35b6102cf60048036038101906102ca91906132a8565b610fa1565b6040516102dc91906130ca565b60405180910390f35b3480156102f157600080fd5b5061030c60048036038101906103079190613357565b611318565b60405161031991906130ca565b60405180910390f35b61033c60048036038101906103379190612d09565b61139f565b005b34801561034a57600080fd5b5061036560048036038101906103609190612d09565b61197e565b604051610379989796959493929190613397565b60405180910390f35b34801561038e57600080fd5b506103a960048036038101906103a49190613415565b611a52565b6040516103b691906130ca565b60405180910390f35b3480156103cb57600080fd5b506103e660048036038101906103e19190612d09565b611a9b565b005b3480156103f457600080fd5b5061040f600480360381019061040a9190612cc9565b611e0f565b005b34801561041d57600080fd5b5061043860048036038101906104339190613415565b611fa1565b005b610442612027565b6000600760008481526020019081526020016000209050600060086000848152602001908152602001600020905061047a828261206d565b6104b0576040517fa86b651200000000000000000000000000000000000000000000000000000000815260040160405180910390fd5b60006104bc83836121c6565b905060008360050160006101000a81548160ff02191690831515021790555060008260060160006101000a81548160ff0219169083151502179055508160010154601060008460060160019054906101000a900473ffffffffffffffffffffffffffffffffffffffff1673ffffffffffffffffffffffffffffffffffffffff1673ffffffffffffffffffffffffffffffffffffffff168152602001908152602001600020600082825461056f9190613471565b925050819055508160010154600a60008560000160009054906101000a900473ffffffffffffffffffffffffffffffffffffffff1673ffffffffffffffffffffffffffffffffffffffff1673ffffffffffffffffffffffffffffffffffffffff16815260200190815260200160002060008460060160019054906101000a900473ffffffffffffffffffffffffffffffffffffffff1673ffffffffffffffffffffffffffffffffffffffff1673ffffffffffffffffffffffffffffffffffffffff168152602001908152602001600020600082825461064e9190613471565b925050819055508160010154600a60008460000160009054906101000a900473ffffffffffffffffffffffffffffffffffffffff1673ffffffffffffffffffffffffffffffffffffffff1673ffffffffffffffffffffffffffffffffffffffff16815260200190815260200160002060008460060160019054906101000a900473ffffffffffffffffffffffffffffffffffffffff1673ffffffffffffffffffffffffffffffffffffffff1673ffffffffffffffffffffffffffffffffffffffff168152602001908152602001600020600082825461072d9190613471565b925050819055508160000160009054906101000a900473ffffffffffffffffffffffffffffffffffffffff1673ffffffffffffffffffffffffffffffffffffffff168360000160009054906101000a900473ffffffffffffffffffffffffffffffffffffffff1673ffffffffffffffffffffffffffffffffffffffff16827fab21744031f5c621be88a5f609abdf3d9e0e33c1d721ab9092444f5ded52877085600101548660060160019054906101000a900473ffffffffffffffffffffffffffffffffffffffff166040516108049291906134a5565b60405180910390a450505061081761275f565b5050565b600080600080600060096000878152602001908152602001600020905080600b0160009054906101000a900460ff168160060154421161085a88612769565b83600601549450945094509450509193509193565b7f000000000000000000000000000000000000000000000000000000000000000081565b61089b612800565b80600d60008473ffffffffffffffffffffffffffffffffffffffff1673ffffffffffffffffffffffffffffffffffffffff16815260200190815260200160002060006101000a81548160ff0219169083151502179055508173ffffffffffffffffffffffffffffffffffffffff167f0de9c5667496fd561ff9dfa59efdc1c76f7dbf3844adae3d14a3a14d563321b18260405161093891906134ce565b60405180910390a25050565b61094c612b20565b60096000838152602001908152602001600020604051806101a00160405290816000820160009054906101000a900473ffffffffffffffffffffffffffffffffffffffff1673ffffffffffffffffffffffffffffffffffffffff1673ffffffffffffffffffffffffffffffffffffffff1681526020016001820160009054906101000a900473ffffffffffffffffffffffffffffffffffffffff1673ffffffffffffffffffffffffffffffffffffffff1673ffffffffffffffffffffffffffffffffffffffff168152602001600282015481526020016003820154815260200160048201548152602001600582015481526020016006820154815260200160078201548152602001600882015481526020016009820160009054906101000a900473ffffffffffffffffffffffffffffffffffffffff1673ffffffffffffffffffffffffffffffffffffffff1673ffffffffffffffffffffffffffffffffffffffff168152602001600a8201548152602001600b820160009054906101000a900460ff16151515158152602001600b820160019054906101000a900473ffffffffffffffffffffffffffffffffffffffff1673ffffffffffffffffffffffffffffffffffffffff1673ffffffffffffffffffffffffffffffffffffffff16815250509050919050565b6000610b3f612027565b610b4b87878785612887565b610b81576040517fa86b651200000000000000000000000000000000000000000000000000000000815260040160405180910390fd5b600073ffffffffffffffffffffffffffffffffffffffff168473ffffffffffffffffffffffffffffffffffffffff1603610bef57823414610bee576040517f5945ea5600000000000000000000000000000000000000000000000000000000815260040160405180910390fd5b5b6000600e6000815480929190610c04906134e9565b9190505590506040518061010001604052803373ffffffffffffffffffffffffffffffffffffffff1681526020018981526020018881526020018781526020018673ffffffffffffffffffffffffffffffffffffffff1681526020018581526020016001151581526020018473ffffffffffffffffffffffffffffffffffffffff168152506008600083815260200190815260200160002060008201518160000160006101000a81548173ffffffffffffffffffffffffffffffffffffffff021916908373ffffffffffffffffffffffffffffffffffffffff16021790555060208201518160010155604082015181600201556060820151816003015560808201518160040160006101000a81548173ffffffffffffffffffffffffffffffffffffffff021916908373ffffffffffffffffffffffffffffffffffffffff16021790555060a0820151816005015560c08201518160060160006101000a81548160ff02191690831515021790555060e08201518160060160016101000a81548173ffffffffffffffffffffffffffffffffffffffff021916908373ffffffffffffffffffffffffffffffffffffffff1602179055509050503373ffffffffffffffffffffffffffffffffffffffff16817fd8b1a6f6adb2ba05abf112c6f7eeb80c904cc39a0a50f4573eccd53b09f478778a8a600088604051610e0a9493929190613531565b60405180910390a380915050610e1e61275f565b9695505050505050565b610e30612800565b610e3a600061291d565b565b6000806000806060600080600080600760008b815260200190815260200160002090508060000160009054906101000a900473ffffffffffffffffffffffffffffffffffffffff168160010154826002015483600301548460060185600401548660050160009054906101000a900460ff168760050160019054906101000a900473ffffffffffffffffffffffffffffffffffffffff1683805480602002602001604051908101604052809291908181526020018280548015610f5457602002820191906000526020600020905b8160009054906101000a900473ffffffffffffffffffffffffffffffffffffffff1673ffffffffffffffffffffffffffffffffffffffff1681526020019060010190808311610f0a575b505050505093509850985098509850985098509850985050919395975091939597565b6000600160009054906101000a900473ffffffffffffffffffffffffffffffffffffffff16905090565b6000610fab612027565b610fb788888885612887565b610fed576040517fa86b651200000000000000000000000000000000000000000000000000000000815260040160405180910390fd5b6000600e6000815480929190611002906134e9565b919050559050600073ffffffffffffffffffffffffffffffffffffffff168373ffffffffffffffffffffffffffffffffffffffff160361107a57883414611075576040517f5945ea5600000000000000000000000000000000000000000000000000000000815260040160405180910390fd5b6110f8565b60003411156110b5576040517fa86b651200000000000000000000000000000000000000000000000000000000815260040160405180910390fd5b6110c18333308c6129e3565b6110f7576040517f90b8ec1800000000000000000000000000000000000000000000000000000000815260040160405180910390fd5b5b6040518061010001604052803373ffffffffffffffffffffffffffffffffffffffff1681526020018a81526020018981526020018881526020018581526020016001151581526020018473ffffffffffffffffffffffffffffffffffffffff168152602001878780806020026020016040519081016040528093929190818152602001838360200280828437600081840152601f19601f820116905080830192505050505050508152506007600083815260200190815260200160002060008201518160000160006101000a81548173ffffffffffffffffffffffffffffffffffffffff021916908373ffffffffffffffffffffffffffffffffffffffff1602179055506020820151816001015560408201518160020155606082015181600301556080820151816004015560a08201518160050160006101000a81548160ff02191690831515021790555060c08201518160050160016101000a81548173ffffffffffffffffffffffffffffffffffffffff021916908373ffffffffffffffffffffffffffffffffffffffff16021790555060e08201518160060190805190602001906112a7929190612be2565b509050503373ffffffffffffffffffffffffffffffffffffffff16817fd8b1a6f6adb2ba05abf112c6f7eeb80c904cc39a0a50f4573eccd53b09f478778b8b6001886040516112f99493929190613531565b60405180910390a38091505061130d61275f565b979650505050505050565b6000600a60008473ffffffffffffffffffffffffffffffffffffffff1673ffffffffffffffffffffffffffffffffffffffff16815260200190815260200160002060008373ffffffffffffffffffffffffffffffffffffffff1673ffffffffffffffffffffffffffffffffffffffff16815260200190815260200160002054905092915050565b6113a7612027565b600060096000838152602001908152602001600020905080600b0160009054906101000a900460ff16611406576040517f5aec606200000000000000000000000000000000000000000000000000000000815260040160405180910390fd5b3373ffffffffffffffffffffffffffffffffffffffff168160010160009054906101000a900473ffffffffffffffffffffffffffffffffffffffff1673ffffffffffffffffffffffffffffffffffffffff161461148f576040517f82b4290000000000000000000000000000000000000000000000000000000000815260040160405180910390fd5b600061149a83612769565b9050600073ffffffffffffffffffffffffffffffffffffffff1682600b0160019054906101000a900473ffffffffffffffffffffffffffffffffffffffff1673ffffffffffffffffffffffffffffffffffffffff16036116b3578034101561152e576040517f5945ea5600000000000000000000000000000000000000000000000000000000815260040160405180910390fd5b60008260000160009054906101000a900473ffffffffffffffffffffffffffffffffffffffff1673ffffffffffffffffffffffffffffffffffffffff1682604051611578906135a7565b60006040518083038185875af1925050503d80600081146115b5576040519150601f19603f3d011682016040523d82523d6000602084013e6115ba565b606091505b50509050806115f5576040517f9e703a0500000000000000000000000000000000000000000000000000000000815260040160405180910390fd5b813411156116ad5760003373ffffffffffffffffffffffffffffffffffffffff16833461162291906135bc565b60405161162e906135a7565b60006040518083038185875af1925050503d806000811461166b576040519150601f19603f3d011682016040523d82523d6000602084013e611670565b606091505b50509050806116ab576040517f9e703a0500000000000000000000000000000000000000000000000000000000815260040160405180910390fd5b505b5061173e565b61170782600b0160019054906101000a900473ffffffffffffffffffffffffffffffffffffffff16338460000160009054906101000a900473ffffffffffffffffffffffffffffffffffffffff16846129e3565b61173d576040517f9e703a0500000000000000000000000000000000000000000000000000000000815260040160405180910390fd5b5b7f000000000000000000000000000000000000000000000000000000000000000073ffffffffffffffffffffffffffffffffffffffff1663e563abb5848460010160009054906101000a900473ffffffffffffffffffffffffffffffffffffffff166040518363ffffffff1660e01b81526004016117bd9291906134a5565b600060405180830381600087803b1580156117d757600080fd5b505af11580156117eb573d6000803e3d6000fd5b50505050600082600b0160006101000a81548160ff021916908315150217905550600c60008360010160009054906101000a900473ffffffffffffffffffffffffffffffffffffffff1673ffffffffffffffffffffffffffffffffffffffff1673ffffffffffffffffffffffffffffffffffffffff1681526020019081526020016000206000815480929190611880906135f0565b9190505550600b60008360010160009054906101000a900473ffffffffffffffffffffffffffffffffffffffff1673ffffffffffffffffffffffffffffffffffffffff1673ffffffffffffffffffffffffffffffffffffffff16815260200190815260200160002060008154809291906118f9906134e9565b9190505550827f772a8acedf6da852dd11449f3b12046bad09c088b862fa81ab1eeb3dd99d3554836002015484600201548461193591906135bc565b85600b0160019054906101000a900473ffffffffffffffffffffffffffffffffffffffff1660405161196993929190613619565b60405180910390a2505061197b61275f565b50565b6000806000806000806000806000600860008b815260200190815260200160002090508060000160009054906101000a900473ffffffffffffffffffffffffffffffffffffffff168160010154826002015483600301548460040160009054906101000a900473ffffffffffffffffffffffffffffffffffffffff1685600501548660060160009054906101000a900460ff168760060160019054906101000a900473ffffffffffffffffffffffffffffffffffffffff169850985098509850985098509850985050919395975091939597565b6000600b60008373ffffffffffffffffffffffffffffffffffffffff1673ffffffffffffffffffffffffffffffffffffffff168152602001908152602001600020549050919050565b611aa3612027565b600060096000838152602001908152602001600020905080600b0160009054906101000a900460ff16611b02576040517f5aec606200000000000000000000000000000000000000000000000000000000815260040160405180910390fd5b80600601544211611b3f576040517f82b4290000000000000000000000000000000000000000000000000000000000815260040160405180910390fd5b7f000000000000000000000000000000000000000000000000000000000000000073ffffffffffffffffffffffffffffffffffffffff1663a98c7f5f83611b8585612769565b6040518363ffffffff1660e01b8152600401611ba2929190613650565b6020604051808303816000875af1158015611bc1573d6000803e3d6000fd5b505050506040513d601f19601f82011682018060405250810190611be5919061368e565b611c1b576040517ff882d95b00000000000000000000000000000000000000000000000000000000815260040160405180910390fd5b7f000000000000000000000000000000000000000000000000000000000000000073ffffffffffffffffffffffffffffffffffffffff1663a61f31a483611c6185612769565b6040518363ffffffff1660e01b8152600401611c7e929190613650565b600060405180830381600087803b158015611c9857600080fd5b505af1158015611cac573d6000803e3d6000fd5b50505050600081600b0160006101000a81548160ff021916908315150217905550600c60008260010160009054906101000a900473ffffffffffffffffffffffffffffffffffffffff1673ffffffffffffffffffffffffffffffffffffffff1673ffffffffffffffffffffffffffffffffffffffff1681526020019081526020016000206000815480929190611d41906135f0565b9190505550600b60008260010160009054906101000a900473ffffffffffffffffffffffffffffffffffffffff1673ffffffffffffffffffffffffffffffffffffffff1673ffffffffffffffffffffffffffffffffffffffff1681526020019081526020016000206000815480929190611dba906135f0565b91905055503373ffffffffffffffffffffffffffffffffffffffff16827f73de9acc561f27528ab0a3b5dd63fefb4e59f95575891299a6f862a78779817660405160405180910390a350611e0c61275f565b50565b611e17612027565b600060096000848152602001908152602001600020905080600b0160009054906101000a900460ff16611e76576040517f5aec606200000000000000000000000000000000000000000000000000000000815260040160405180910390fd5b3373ffffffffffffffffffffffffffffffffffffffff168160000160009054906101000a900473ffffffffffffffffffffffffffffffffffffffff1673ffffffffffffffffffffffffffffffffffffffff1614611eff576040517f82b4290000000000000000000000000000000000000000000000000000000000815260040160405180910390fd5b60006002600301548260060154611f169190613471565b905080831115611f52576040517ffdd275d000000000000000000000000000000000000000000000000000000000815260040160405180910390fd5b828260060181905550837f8a7a5c9c34210b39b0dd6c746e4824f7af2a84c059d4dcbc168a2036d26df99084604051611f8b91906130ca565b60405180910390a25050611f9d61275f565b5050565b611fa9612800565b600073ffffffffffffffffffffffffffffffffffffffff168173ffffffffffffffffffffffffffffffffffffffff160361201b5760006040517f1e4fbdf70000000000000000000000000000000000000000000000000000000081526004016120129190613228565b60405180910390fd5b6120248161291d565b50565b600260005403612063576040517f3ee5aeb500000000000000000000000000000000000000000000000000000000815260040160405180910390fd5b6002600081905550565b60008260050160009054906101000a900460ff16158061209c57508160060160009054906101000a900460ff16155b156120aa57600090506121c0565b8260020154826002015410156120c357600090506121c0565b8260030154826003015411156120dc57600090506121c0565b8260010154826001015411156120f557600090506121c0565b8260050160019054906101000a900473ffffffffffffffffffffffffffffffffffffffff1673ffffffffffffffffffffffffffffffffffffffff168260060160019054906101000a900473ffffffffffffffffffffffffffffffffffffffff1673ffffffffffffffffffffffffffffffffffffffff161461217957600090506121c0565b600080846006019050805460005b818110156121b857610100818401208054875481036121ab576001955050506121b8565b5050600181019050612187565b505081925050505b92915050565b600080600f60008154809291906121dc906134e9565b919050559050604051806101a001604052808560000160009054906101000a900473ffffffffffffffffffffffffffffffffffffffff1673ffffffffffffffffffffffffffffffffffffffff1681526020018460000160009054906101000a900473ffffffffffffffffffffffffffffffffffffffff1673ffffffffffffffffffffffffffffffffffffffff1681526020018460010154815260200185600201548152602001846003015481526020014281526020018460030154426122a29190613471565b8152602001428152602001600081526020018460040160009054906101000a900473ffffffffffffffffffffffffffffffffffffffff1673ffffffffffffffffffffffffffffffffffffffff168152602001846005015481526020016001151581526020018460060160019054906101000a900473ffffffffffffffffffffffffffffffffffffffff1673ffffffffffffffffffffffffffffffffffffffff168152506009600083815260200190815260200160002060008201518160000160006101000a81548173ffffffffffffffffffffffffffffffffffffffff021916908373ffffffffffffffffffffffffffffffffffffffff16021790555060208201518160010160006101000a81548173ffffffffffffffffffffffffffffffffffffffff021916908373ffffffffffffffffffffffffffffffffffffffff16021790555060408201518160020155606082015181600301556080820151816004015560a0820151816005015560c0820151816006015560e0820151816007015561010082015181600801556101208201518160090160006101000a81548173ffffffffffffffffffffffffffffffffffffffff021916908373ffffffffffffffffffffffffffffffffffffffff16021790555061014082015181600a015561016082015181600b0160006101000a81548160ff02191690831515021790555061018082015181600b0160016101000a81548173ffffffffffffffffffffffffffffffffffffffff021916908373ffffffffffffffffffffffffffffffffffffffff160217905550905050600073ffffffffffffffffffffffffffffffffffffffff168360040160009054906101000a900473ffffffffffffffffffffffffffffffffffffffff1673ffffffffffffffffffffffffffffffffffffffff1603612651577f000000000000000000000000000000000000000000000000000000000000000073ffffffffffffffffffffffffffffffffffffffff1663b855032e8460050154838660000160009054906101000a900473ffffffffffffffffffffffffffffffffffffffff168760040160009054906101000a900473ffffffffffffffffffffffffffffffffffffffff1688600501548960060160019054906101000a900473ffffffffffffffffffffffffffffffffffffffff166040518763ffffffff1660e01b815260040161261a9594939291906136bb565b6000604051808303818588803b15801561263357600080fd5b505af1158015612647573d6000803e3d6000fd5b5050505050612755565b7f000000000000000000000000000000000000000000000000000000000000000073ffffffffffffffffffffffffffffffffffffffff1663b855032e828560000160009054906101000a900473ffffffffffffffffffffffffffffffffffffffff168660040160009054906101000a900473ffffffffffffffffffffffffffffffffffffffff1687600501548860060160019054906101000a900473ffffffffffffffffffffffffffffffffffffffff166040518663ffffffff1660e01b81526004016127229594939291906136bb565b600060405180830381600087803b15801561273c57600080fd5b505af1158015612750573d6000803e3d6000fd5b505050505b8091505092915050565b6001600081905550565b600080600960008481526020019081526020016000209050600081600701544261279391906135bc565b905060006301e133806002600001546127ac919061370e565b82846003015485600201546127c1919061370e565b6127cb919061370e565b6127d5919061377f565b905080836008015484600201546127ec9190613471565b6127f69190613471565b9350505050919050565b612808612b18565b73ffffffffffffffffffffffffffffffffffffffff16612826610f77565b73ffffffffffffffffffffffffffffffffffffffff161461288557612849612b18565b6040517f118cdaa700000000000000000000000000000000000000000000000000000000815260040161287c9190613228565b60405180910390fd5b565b6000808511801561289d57506002600101548411155b80156128ad575060028001548310155b80156128be57506002600401548311155b80156129135750600d60008373ffffffffffffffffffffffffffffffffffffffff1673ffffffffffffffffffffffffffffffffffffffff16815260200190815260200160002060009054906101000a900460ff165b9050949350505050565b6000600160009054906101000a900473ffffffffffffffffffffffffffffffffffffffff16905081600160006101000a81548173ffffffffffffffffffffffffffffffffffffffff021916908373ffffffffffffffffffffffffffffffffffffffff1602179055508173ffffffffffffffffffffffffffffffffffffffff168173ffffffffffffffffffffffffffffffffffffffff167f8be0079c531659141344cd1fd0a4f28419497f9722a3daafe3b4186f6b6457e060405160405180910390a35050565b60008073ffffffffffffffffffffffffffffffffffffffff168573ffffffffffffffffffffffffffffffffffffffff1603612a8d5760008373ffffffffffffffffffffffffffffffffffffffff1683604051612a3e906135a7565b60006040518083038185875af1925050503d8060008114612a7b576040519150601f19603f3d011682016040523d82523d6000602084013e612a80565b606091505b5050905080915050612b10565b8473ffffffffffffffffffffffffffffffffffffffff166323b872dd8585856040518463ffffffff1660e01b8152600401612aca939291906137b0565b6020604051808303816000875af1158015612ae9573d6000803e3d6000fd5b505050506040513d601f19601f82011682018060405250810190612b0d919061368e565b90505b949350505050565b600033905090565b604051806101a00160405280600073ffffffffffffffffffffffffffffffffffffffff168152602001600073ffffffffffffffffffffffffffffffffffffffff16815260200160008152602001600081526020016000815260200160008152602001600081526020016000815260200160008152602001600073ffffffffffffffffffffffffffffffffffffffff16815260200160008152602001600015158152602001600073ffffffffffffffffffffffffffffffffffffffff1681525090565b828054828255906000526020600020908101928215612c5b579160200282015b82811115612c5a5782518260006101000a81548173ffffffffffffffffffffffffffffffffffffffff021916908373ffffffffffffffffffffffffffffffffffffffff16021790555091602001919060010190612c02565b5b509050612c689190612c6c565b5090565b5b80821115612c85576000816000905550600101612c6d565b5090565b600080fd5b600080fd5b6000819050919050565b612ca681612c93565b8114612cb157600080fd5b50565b600081359050612cc381612c9d565b92915050565b60008060408385031215612ce057612cdf612c89565b5b6000612cee85828601612cb4565b9250506020612cff85828601612cb4565b9150509250929050565b600060208284031215612d1f57612d1e612c89565b5b6000612d2d84828501612cb4565b91505092915050565b60008115159050919050565b612d4b81612d36565b82525050565b612d5a81612c93565b82525050565b6000608082019050612d756000830187612d42565b612d826020830186612d42565b612d8f6040830185612d51565b612d9c6060830184612d51565b95945050505050565b600073ffffffffffffffffffffffffffffffffffffffff82169050919050565b6000819050919050565b6000612dea612de5612de084612da5565b612dc5565b612da5565b9050919050565b6000612dfc82612dcf565b9050919050565b6000612e0e82612df1565b9050919050565b612e1e81612e03565b82525050565b6000602082019050612e396000830184612e15565b92915050565b6000612e4a82612da5565b9050919050565b612e5a81612e3f565b8114612e6557600080fd5b50565b600081359050612e7781612e51565b92915050565b612e8681612d36565b8114612e9157600080fd5b50565b600081359050612ea381612e7d565b92915050565b60008060408385031215612ec057612ebf612c89565b5b6000612ece85828601612e68565b9250506020612edf85828601612e94565b9150509250929050565b612ef281612e3f565b82525050565b612f0181612c93565b82525050565b612f1081612d36565b82525050565b6101a082016000820151612f2d6000850182612ee9565b506020820151612f406020850182612ee9565b506040820151612f536040850182612ef8565b506060820151612f666060850182612ef8565b506080820151612f796080850182612ef8565b5060a0820151612f8c60a0850182612ef8565b5060c0820151612f9f60c0850182612ef8565b5060e0820151612fb260e0850182612ef8565b50610100820151612fc7610100850182612ef8565b50610120820151612fdc610120850182612ee9565b50610140820151612ff1610140850182612ef8565b50610160820151613006610160850182612f07565b5061018082015161301b610180850182612ee9565b50505050565b60006101a0820190506130376000830184612f16565b92915050565b60008060008060008060c0878903121561305a57613059612c89565b5b600061306889828a01612cb4565b965050602061307989828a01612cb4565b955050604061308a89828a01612cb4565b945050606061309b89828a01612e68565b93505060806130ac89828a01612cb4565b92505060a06130bd89828a01612e68565b9150509295509295509295565b60006020820190506130df6000830184612d51565b92915050565b6130ee81612e3f565b82525050565b600081519050919050565b600082825260208201905092915050565b6000819050602082019050919050565b600061312c8383612ee9565b60208301905092915050565b6000602082019050919050565b6000613150826130f4565b61315a81856130ff565b935061316583613110565b8060005b8381101561319657815161317d8882613120565b975061318883613138565b925050600181019050613169565b5085935050505092915050565b6000610100820190506131b9600083018b6130e5565b6131c6602083018a612d51565b6131d36040830189612d51565b6131e06060830188612d51565b81810360808301526131f28187613145565b905061320160a0830186612d51565b61320e60c0830185612d42565b61321b60e08301846130e5565b9998505050505050505050565b600060208201905061323d60008301846130e5565b92915050565b600080fd5b600080fd5b600080fd5b60008083601f84011261326857613267613243565b5b8235905067ffffffffffffffff81111561328557613284613248565b5b6020830191508360208202830111156132a1576132a061324d565b5b9250929050565b600080600080600080600060c0888a0312156132c7576132c6612c89565b5b60006132d58a828b01612cb4565b97505060206132e68a828b01612cb4565b96505060406132f78a828b01612cb4565b955050606088013567ffffffffffffffff81111561331857613317612c8e565b5b6133248a828b01613252565b945094505060806133378a828b01612cb4565b92505060a06133488a828b01612e68565b91505092959891949750929550565b6000806040838503121561336e5761336d612c89565b5b600061337c85828601612e68565b925050602061338d85828601612e68565b9150509250929050565b6000610100820190506133ad600083018b6130e5565b6133ba602083018a612d51565b6133c76040830189612d51565b6133d46060830188612d51565b6133e160808301876130e5565b6133ee60a0830186612d51565b6133fb60c0830185612d42565b61340860e08301846130e5565b9998505050505050505050565b60006020828403121561342b5761342a612c89565b5b600061343984828501612e68565b91505092915050565b7f4e487b7100000000000000000000000000000000000000000000000000000000600052601160045260246000fd5b600061347c82612c93565b915061348783612c93565b925082820190508082111561349f5761349e613442565b5b92915050565b60006040820190506134ba6000830185612d51565b6134c760208301846130e5565b9392505050565b60006020820190506134e36000830184612d42565b92915050565b60006134f482612c93565b91507fffffffffffffffffffffffffffffffffffffffffffffffffffffffffffffffff820361352657613525613442565b5b600182019050919050565b60006080820190506135466000830187612d51565b6135536020830186612d51565b6135606040830185612d42565b61356d60608301846130e5565b95945050505050565b600081905092915050565b50565b6000613591600083613576565b915061359c82613581565b600082019050919050565b60006135b282613584565b9150819050919050565b60006135c782612c93565b91506135d283612c93565b92508282039050818111156135ea576135e9613442565b5b92915050565b60006135fb82612c93565b91506000820361360e5761360d613442565b5b600182039050919050565b600060608201905061362e6000830186612d51565b61363b6020830185612d51565b61364860408301846130e5565b949350505050565b60006040820190506136656000830185612d51565b6136726020830184612d51565b9392505050565b60008151905061368881612e7d565b92915050565b6000602082840312156136a4576136a3612c89565b5b60006136b284828501613679565b91505092915050565b600060a0820190506136d06000830188612d51565b6136dd60208301876130e5565b6136ea60408301866130e5565b6136f76060830185612d51565b61370460808301846130e5565b9695505050505050565b600061371982612c93565b915061372483612c93565b925082820261373281612c93565b9150828204841483151761374957613748613442565b5b5092915050565b7f4e487b7100000000000000000000000000000000000000000000000000000000600052601260045260246000fd5b600061378a82612c93565b915061379583612c93565b9250826137a5576137a4613750565b5b828204905092915050565b60006060820190506137c560008301866130e5565b6137d260208301856130e5565b6137df6040830184612d51565b94935050505056fea26469706673582212208dc8352541061639dac37278eea3e834e13fd8f23d48da7a9999a6cc2a35a19e64736f6c634300081c0033",
  "linkReferences": {},
  "deployedLinkReferences": {}
}