{
  "_format": "hh-sol-artifact-1",
  "contractName": "CollateralManager",
  "sourceName": "contracts/p2pCollateral.sol",
  "abi": [
    {
      "inputs": [],
      "stateMutability": "nonpayable",
      "type": "constructor"
    },
    {
      "inputs": [],
      "name": "CollateralNotActive",
      "type": "error"
    },
    {
      "inputs": [],
      "name": "InsufficientCollateral",
      "type": "error"
    },
    {
      "inputs": [],
      "name": "InvalidParameters",
      "type": "error"
    },
    {
      "inputs": [],
      "name": "InvalidPriceFeed",
      "type": "error"
    },
    {
      "inputs": [],
      "name": "LiquidationFailed",
      "type": "error"
    },
    {
      "inputs": [
        {
          "internalType": "address",
          "name": "owner",
          "type": "address"
        }
      ],
      "name": "OwnableInvalidOwner",
      "type": "error"
    },
    {
      "inputs": [
        {
          "internalType": "address",
          "name": "account",
          "type": "address"
        }
      ],
      "name": "OwnableUnauthorizedAccount",
      "type": "error"
    },
    {
      "inputs": [],
      "name": "ReentrancyGuardReentrantCall",
      "type": "error"
    },
    {
      "inputs": [],
      "name": "StalePrice",
      "type": "error"
    },
    {
      "inputs": [],
      "name": "TransferFailed",
      "type": "error"
    },
    {
      "inputs": [],
      "name": "UnauthorizedAccess",
      "type": "error"
    },
    {
      "anonymous": false,
      "inputs": [
        {
          "indexed": true,
          "internalType": "uint256",
          "name": "loanId",
          "type": "uint256"
        },
        {
          "indexed": false,
          "internalType": "address",
          "name": "token",
          "type": "address"
        },
        {
          "indexed": false,
          "internalType": "uint256",
          "name": "amount",
          "type": "uint256"
        }
      ],
      "name": "CollateralDeposited",
      "type": "event"
    },
    {
      "anonymous": false,
      "inputs": [
        {
          "indexed": true,
          "internalType": "uint256",
          "name": "loanId",
          "type": "uint256"
        },
        {
          "indexed": false,
          "internalType": "address",
          "name": "liquidator",
          "type": "address"
        },
        {
          "indexed": false,
          "internalType": "uint256",
          "name": "amount",
          "type": "uint256"
        }
      ],
      "name": "CollateralLiquidated",
      "type": "event"
    },
    {
      "anonymous": false,
      "inputs": [
        {
          "indexed": true,
          "internalType": "uint256",
          "name": "loanId",
          "type": "uint256"
        },
        {
          "indexed": false,
          "internalType": "address",
          "name": "borrower",
          "type": "address"
        },
        {
          "indexed": false,
          "internalType": "uint256",
          "name": "amount",
          "type": "uint256"
        }
      ],
      "name": "CollateralReleased",
      "type": "event"
    },
    {
      "anonymous": false,
      "inputs": [
        {
          "indexed": true,
          "internalType": "address",
          "name": "previousOwner",
          "type": "address"
        },
        {
          "indexed": true,
          "internalType": "address",
          "name": "newOwner",
          "type": "address"
        }
      ],
      "name": "OwnershipTransferred",
      "type": "event"
    },
    {
      "anonymous": false,
      "inputs": [
        {
          "indexed": true,
          "internalType": "address",
          "name": "token",
          "type": "address"
        },
        {
          "indexed": false,
          "internalType": "uint256",
          "name": "price",
          "type": "uint256"
        }
      ],
      "name": "PriceUpdated",
      "type": "event"
    },
    {
      "anonymous": false,
      "inputs": [
        {
          "indexed": true,
          "internalType": "uint256",
          "name": "loanId",
          "type": "uint256"
        },
        {
          "indexed": false,
          "internalType": "uint256",
          "name": "requiredAmount",
          "type": "uint256"
        }
      ],
      "name": "TopUpRequired",
      "type": "event"
    },
    {
      "inputs": [
        {
          "internalType": "uint256",
          "name": "loanId",
          "type": "uint256"
        },
        {
          "internalType": "uint256",
          "name": "loanAmount",
          "type": "uint256"
        }
      ],
      "name": "checkCollateralization",
      "outputs": [
        {
          "internalType": "bool",
          "name": "",
          "type": "bool"
        }
      ],
      "stateMutability": "nonpayable",
      "type": "function"
    },
    {
      "inputs": [
        {
          "internalType": "uint256",
          "name": "",
          "type": "uint256"
        }
      ],
      "name": "collaterals",
      "outputs": [
        {
          "internalType": "address",
          "name": "token",
          "type": "address"
        },
        {
          "internalType": "uint256",
          "name": "amount",
          "type": "uint256"
        },
        {
          "internalType": "address",
          "name": "borrower",
          "type": "address"
        },
        {
          "internalType": "uint256",
          "name": "lastPrice",
          "type": "uint256"
        },
        {
          "internalType": "bool",
          "name": "isActive",
          "type": "bool"
        },
        {
          "internalType": "bool",
          "name": "requiresTopUp",
          "type": "bool"
        }
      ],
      "stateMutability": "view",
      "type": "function"
    },
    {
      "inputs": [
        {
          "internalType": "uint256",
          "name": "loanId",
          "type": "uint256"
        }
      ],
      "name": "getCollateralInfo",
      "outputs": [
        {
          "components": [
            {
              "internalType": "address",
              "name": "token",
              "type": "address"
            },
            {
              "internalType": "uint256",
              "name": "amount",
              "type": "uint256"
            },
            {
              "internalType": "address",
              "name": "borrower",
              "type": "address"
            },
            {
              "internalType": "uint256",
              "name": "lastPrice",
              "type": "uint256"
            },
            {
              "internalType": "bool",
              "name": "isActive",
              "type": "bool"
            },
            {
              "internalType": "bool",
              "name": "requiresTopUp",
              "type": "bool"
            }
          ],
          "internalType": "struct CollateralManager.CollateralInfo",
          "name": "",
          "type": "tuple"
        }
      ],
      "stateMutability": "view",
      "type": "function"
    },
    {
      "inputs": [
        {
          "internalType": "uint256",
          "name": "loanId",
          "type": "uint256"
        }
      ],
      "name": "getCollateralValue",
      "outputs": [
        {
          "internalType": "uint256",
          "name": "",
          "type": "uint256"
        }
      ],
      "stateMutability": "view",
      "type": "function"
    },
    {
      "inputs": [
        {
          "internalType": "uint256",
          "name": "loanId",
          "type": "uint256"
        },
        {
          "internalType": "address",
          "name": "borrower",
          "type": "address"
        },
        {
          "internalType": "address",
          "name": "token",
          "type": "address"
        },
        {
          "internalType": "uint256",
          "name": "amount",
          "type": "uint256"
        }
      ],
      "name": "initializeLoan",
      "outputs": [],
      "stateMutability": "nonpayable",
      "type": "function"
    },
    {
      "inputs": [
        {
          "internalType": "uint256",
          "name": "loanId",
          "type": "uint256"
        }
      ],
      "name": "isCollateralActive",
      "outputs": [
        {
          "internalType": "bool",
          "name": "",
          "type": "bool"
        }
      ],
      "stateMutability": "view",
      "type": "function"
    },
    {
      "inputs": [
        {
          "internalType": "uint256",
          "name": "loanId",
          "type": "uint256"
        },
        {
          "internalType": "uint256",
          "name": "loanAmount",
          "type": "uint256"
        }
      ],
      "name": "liquidateCollateral",
      "outputs": [],
      "stateMutability": "nonpayable",
      "type": "function"
    },
    {
      "inputs": [
        {
          "internalType": "uint256",
          "name": "",
          "type": "uint256"
        }
      ],
      "name": "liquidatedLoans",
      "outputs": [
        {
          "internalType": "bool",
          "name": "",
          "type": "bool"
        }
      ],
      "stateMutability": "view",
      "type": "function"
    },
    {
      "inputs": [],
      "name": "marketplace",
      "outputs": [
        {
          "internalType": "address",
          "name": "",
          "type": "address"
        }
      ],
      "stateMutability": "view",
      "type": "function"
    },
    {
      "inputs": [],
      "name": "owner",
      "outputs": [
        {
          "internalType": "address",
          "name": "",
          "type": "address"
        }
      ],
      "stateMutability": "view",
      "type": "function"
    },
    {
      "inputs": [
        {
          "internalType": "address",
          "name": "",
          "type": "address"
        }
      ],
      "name": "priceFeeds",
      "outputs": [
        {
          "internalType": "contract AggregatorV3Interface",
          "name": "feed",
          "type": "address"
        },
        {
          "internalType": "uint256",
          "name": "lastUpdate",
          "type": "uint256"
        },
        {
          "internalType": "uint256",
          "name": "price",
          "type": "uint256"
        },
        {
          "internalType": "bool",
          "name": "isActive",
          "type": "bool"
        }
      ],
      "stateMutability": "view",
      "type": "function"
    },
    {
      "inputs": [
        {
          "internalType": "uint256",
          "name": "loanId",
          "type": "uint256"
        },
        {
          "internalType": "address",
          "name": "borrower",
          "type": "address"
        }
      ],
      "name": "releaseLoanCollateral",
      "outputs": [],
      "stateMutability": "nonpayable",
      "type": "function"
    },
    {
      "inputs": [],
      "name": "renounceOwnership",
      "outputs": [],
      "stateMutability": "nonpayable",
      "type": "function"
    },
    {
      "inputs": [
        {
          "internalType": "address",
          "name": "_marketplace",
          "type": "address"
        }
      ],
      "name": "setMarketplace",
      "outputs": [],
      "stateMutability": "nonpayable",
      "type": "function"
    },
    {
      "inputs": [
        {
          "internalType": "address",
          "name": "token",
          "type": "address"
        },
        {
          "internalType": "address",
          "name": "priceFeed",
          "type": "address"
        },
        {
          "internalType": "uint8",
          "name": "decimals",
          "type": "uint8"
        }
      ],
      "name": "setTokenPriceFeed",
      "outputs": [],
      "stateMutability": "nonpayable",
      "type": "function"
    },
    {
      "inputs": [
        {
          "internalType": "address",
          "name": "",
          "type": "address"
        }
      ],
      "name": "tokenDecimals",
      "outputs": [
        {
          "internalType": "uint256",
          "name": "",
          "type": "uint256"
        }
      ],
      "stateMutability": "view",
      "type": "function"
    },
    {
      "inputs": [
        {
          "internalType": "uint256",
          "name": "loanId",
          "type": "uint256"
        },
        {
          "internalType": "uint256",
          "name": "amount",
          "type": "uint256"
        }
      ],
      "name": "topUpCollateral",
      "outputs": [],
      "stateMutability": "nonpayable",
      "type": "function"
    },
    {
      "inputs": [
        {
          "internalType": "address",
          "name": "newOwner",
          "type": "address"
        }
      ],
      "name": "transferOwnership",
      "outputs": [],
      "stateMutability": "nonpayable",
      "type": "function"
    },
    {
      "inputs": [
        {
          "internalType": "address",
          "name": "token",
          "type": "address"
        }
      ],
      "name": "updatePrice",
      "outputs": [],
      "stateMutability": "nonpayable",
      "type": "function"
    },
    {
      "inputs": [
        {
          "internalType": "address",
          "name": "",
          "type": "address"
        }
      ],
      "name": "whitelistedTokens",
      "outputs": [
        {
          "internalType": "bool",
          "name": "",
          "type": "bool"
        }
      ],
      "stateMutability": "view",
      "type": "function"
    }
  ],
  "bytecode": "0x608060405234801561001057600080fd5b50336001600081905550600073ffffffffffffffffffffffffffffffffffffffff168173ffffffffffffffffffffffffffffffffffffffff160361008c5760006040517f1e4fbdf700000000000000000000000000000000000000000000000000000000815260040161008391906101a8565b60405180910390fd5b61009b816100a160201b60201c565b506101c3565b6000600160009054906101000a900473ffffffffffffffffffffffffffffffffffffffff16905081600160006101000a81548173ffffffffffffffffffffffffffffffffffffffff021916908373ffffffffffffffffffffffffffffffffffffffff1602179055508173ffffffffffffffffffffffffffffffffffffffff168173ffffffffffffffffffffffffffffffffffffffff167f8be0079c531659141344cd1fd0a4f28419497f9722a3daafe3b4186f6b6457e060405160405180910390a35050565b600073ffffffffffffffffffffffffffffffffffffffff82169050919050565b600061019282610167565b9050919050565b6101a281610187565b82525050565b60006020820190506101bd6000830184610199565b92915050565b61271d806101d26000396000f3fe608060405234801561001057600080fd5b506004361061012c5760003560e01c8063934b5d13116100ad578063a98c7f5f11610071578063a98c7f5f14610359578063abc8c7af14610389578063daf9c210146103a7578063e563abb5146103d7578063f2fde38b146103f35761012c565b8063934b5d131461028e57806396e85ced146102be5780639dcb511a146102da5780639e7414291461030d578063a61f31a41461033d5761012c565b8063715018a6116100f4578063715018a6146101ea57806373ad6c2d146101f457806382fee08f146102105780638da5cb5b146102405780638ee573ac1461025e5761012c565b80630f257d8e146101315780631c01aaab1461014d57806324c1173b1461017d578063499dd056146101b25780636c4c0b1f146101ce575b600080fd5b61014b60048036038101906101469190611df2565b61040f565b005b61016760048036038101906101629190611e32565b610679565b6040516101749190611e7a565b60405180910390f35b61019760048036038101906101929190611e32565b610699565b6040516101a996959493929190611ee5565b60405180910390f35b6101cc60048036038101906101c79190611fab565b61072f565b005b6101e860048036038101906101e39190611ffe565b610971565b005b6101f2610d5d565b005b61020e60048036038101906102099190612065565b610d71565b005b61022a60048036038101906102259190611e32565b610e23565b6040516102379190612092565b60405180910390f35b610248610faa565b60405161025591906120ad565b60405180910390f35b61027860048036038101906102739190612065565b610fd4565b6040516102859190612092565b60405180910390f35b6102a860048036038101906102a39190611e32565b610fec565b6040516102b59190612170565b60405180910390f35b6102d860048036038101906102d39190612065565b61110f565b005b6102f460048036038101906102ef9190612065565b61131e565b60405161030494939291906121ea565b60405180910390f35b61032760048036038101906103229190611e32565b61137b565b6040516103349190611e7a565b60405180910390f35b61035760048036038101906103529190611df2565b6113a8565b005b610373600480360381019061036e9190611df2565b6116ca565b6040516103809190611e7a565b60405180910390f35b610391611819565b60405161039e91906120ad565b60405180910390f35b6103c160048036038101906103bc9190612065565b61183f565b6040516103ce9190611e7a565b60405180910390f35b6103f160048036038101906103ec919061222f565b61185f565b005b61040d60048036038101906104089190612065565b611b26565b005b610417611bac565b60006003600084815260200190815260200160002090508060040160009054906101000a900460ff16610476576040517fb4da1e3700000000000000000000000000000000000000000000000000000000815260040160405180910390fd5b8060020160009054906101000a900473ffffffffffffffffffffffffffffffffffffffff1673ffffffffffffffffffffffffffffffffffffffff163373ffffffffffffffffffffffffffffffffffffffff16146104ff576040517f344fd58600000000000000000000000000000000000000000000000000000000815260040160405180910390fd5b81816001015461050f919061229e565b816001018190555060008160040160016101000a81548160ff0219169083151502179055508060000160009054906101000a900473ffffffffffffffffffffffffffffffffffffffff1673ffffffffffffffffffffffffffffffffffffffff166323b872dd3330856040518463ffffffff1660e01b8152600401610595939291906122d2565b6020604051808303816000875af11580156105b4573d6000803e3d6000fd5b505050506040513d601f19601f820116820180604052508101906105d89190612335565b61060e576040517f90b8ec1800000000000000000000000000000000000000000000000000000000815260040160405180910390fd5b827feec2f3feb835e2f2fd44281034b04700a1ddda63dd402949d470a25a7c40b36c8260000160009054906101000a900473ffffffffffffffffffffffffffffffffffffffff1684604051610664929190612362565b60405180910390a250610675611bf2565b5050565b60056020528060005260406000206000915054906101000a900460ff1681565b60036020528060005260406000206000915090508060000160009054906101000a900473ffffffffffffffffffffffffffffffffffffffff16908060010154908060020160009054906101000a900473ffffffffffffffffffffffffffffffffffffffff16908060030154908060040160009054906101000a900460ff16908060040160019054906101000a900460ff16905086565b610737611bfc565b600073ffffffffffffffffffffffffffffffffffffffff168373ffffffffffffffffffffffffffffffffffffffff16148061079e5750600073ffffffffffffffffffffffffffffffffffffffff168273ffffffffffffffffffffffffffffffffffffffff16145b156107d5576040517fe523909000000000000000000000000000000000000000000000000000000000815260040160405180910390fd5b6001600660008573ffffffffffffffffffffffffffffffffffffffff1673ffffffffffffffffffffffffffffffffffffffff16815260200190815260200160002060006101000a81548160ff0219169083151502179055508060ff16600760008573ffffffffffffffffffffffffffffffffffffffff1673ffffffffffffffffffffffffffffffffffffffff1681526020019081526020016000208190555060405180608001604052808373ffffffffffffffffffffffffffffffffffffffff1681526020014281526020016000815260200160011515815250600460008573ffffffffffffffffffffffffffffffffffffffff1673ffffffffffffffffffffffffffffffffffffffff16815260200190815260200160002060008201518160000160006101000a81548173ffffffffffffffffffffffffffffffffffffffff021916908373ffffffffffffffffffffffffffffffffffffffff160217905550602082015181600101556040820151816002015560608201518160030160006101000a81548160ff021916908315150217905550905050505050565b610979611bac565b600260009054906101000a900473ffffffffffffffffffffffffffffffffffffffff1673ffffffffffffffffffffffffffffffffffffffff163373ffffffffffffffffffffffffffffffffffffffff1614610a00576040517f344fd58600000000000000000000000000000000000000000000000000000000815260040160405180910390fd5b600660008373ffffffffffffffffffffffffffffffffffffffff1673ffffffffffffffffffffffffffffffffffffffff16815260200190815260200160002060009054906101000a900460ff16610a83576040517fe523909000000000000000000000000000000000000000000000000000000000815260040160405180910390fd5b60008103610abd576040517f3a23d82500000000000000000000000000000000000000000000000000000000815260040160405180910390fd5b610ac68261110f565b6040518060c001604052808373ffffffffffffffffffffffffffffffffffffffff1681526020018281526020018473ffffffffffffffffffffffffffffffffffffffff168152602001600460008573ffffffffffffffffffffffffffffffffffffffff1673ffffffffffffffffffffffffffffffffffffffff168152602001908152602001600020600201548152602001600115158152602001600015158152506003600086815260200190815260200160002060008201518160000160006101000a81548173ffffffffffffffffffffffffffffffffffffffff021916908373ffffffffffffffffffffffffffffffffffffffff1602179055506020820151816001015560408201518160020160006101000a81548173ffffffffffffffffffffffffffffffffffffffff021916908373ffffffffffffffffffffffffffffffffffffffff1602179055506060820151816003015560808201518160040160006101000a81548160ff02191690831515021790555060a08201518160040160016101000a81548160ff0219169083151502179055509050508173ffffffffffffffffffffffffffffffffffffffff166323b872dd8430846040518463ffffffff1660e01b8152600401610c9c939291906122d2565b6020604051808303816000875af1158015610cbb573d6000803e3d6000fd5b505050506040513d601f19601f82011682018060405250810190610cdf9190612335565b610d15576040517f90b8ec1800000000000000000000000000000000000000000000000000000000815260040160405180910390fd5b837feec2f3feb835e2f2fd44281034b04700a1ddda63dd402949d470a25a7c40b36c8383604051610d47929190612362565b60405180910390a2610d57611bf2565b50505050565b610d65611bfc565b610d6f6000611c83565b565b610d79611bfc565b600073ffffffffffffffffffffffffffffffffffffffff168173ffffffffffffffffffffffffffffffffffffffff1603610ddf576040517fe523909000000000000000000000000000000000000000000000000000000000815260040160405180910390fd5b80600260006101000a81548173ffffffffffffffffffffffffffffffffffffffff021916908373ffffffffffffffffffffffffffffffffffffffff16021790555050565b6000806003600084815260200190815260200160002090508060040160009054906101000a900460ff16610e83576040517fb4da1e3700000000000000000000000000000000000000000000000000000000815260040160405180910390fd5b6000600460008360000160009054906101000a900473ffffffffffffffffffffffffffffffffffffffff1673ffffffffffffffffffffffffffffffffffffffff1673ffffffffffffffffffffffffffffffffffffffff16815260200190815260200160002090506000600760008460000160009054906101000a900473ffffffffffffffffffffffffffffffffffffffff1673ffffffffffffffffffffffffffffffffffffffff1673ffffffffffffffffffffffffffffffffffffffff168152602001908152602001600020549050806008610f5f919061238b565b600a610f6b91906124f2565b81600a610f7891906124f2565b83600201548560010154610f8c919061253d565b610f9691906125ae565b610fa091906125ae565b9350505050919050565b6000600160009054906101000a900473ffffffffffffffffffffffffffffffffffffffff16905090565b60076020528060005260406000206000915090505481565b610ff4611d51565b600360008381526020019081526020016000206040518060c00160405290816000820160009054906101000a900473ffffffffffffffffffffffffffffffffffffffff1673ffffffffffffffffffffffffffffffffffffffff1673ffffffffffffffffffffffffffffffffffffffff168152602001600182015481526020016002820160009054906101000a900473ffffffffffffffffffffffffffffffffffffffff1673ffffffffffffffffffffffffffffffffffffffff1673ffffffffffffffffffffffffffffffffffffffff168152602001600382015481526020016004820160009054906101000a900460ff161515151581526020016004820160019054906101000a900460ff1615151515815250509050919050565b6000600460008373ffffffffffffffffffffffffffffffffffffffff1673ffffffffffffffffffffffffffffffffffffffff16815260200190815260200160002090508060030160009054906101000a900460ff1661119a576040517f52cc3f7d00000000000000000000000000000000000000000000000000000000815260040160405180910390fd5b6000808260000160009054906101000a900473ffffffffffffffffffffffffffffffffffffffff1673ffffffffffffffffffffffffffffffffffffffff1663feaf968c6040518163ffffffff1660e01b815260040160a060405180830381865afa15801561120c573d6000803e3d6000fd5b505050506040513d601f19601f82011682018060405250810190611230919061266c565b5093505092505060008213611271576040517f52cc3f7d00000000000000000000000000000000000000000000000000000000815260040160405180910390fd5b610e108142611280919061238b565b11156112b8576040517f19abf40e00000000000000000000000000000000000000000000000000000000815260040160405180910390fd5b8183600201819055504283600101819055508373ffffffffffffffffffffffffffffffffffffffff167f0d86730737b142fc160892fa8a0f2db687a92a0e294d1ad70624cf5acef03b84836040516113109190612092565b60405180910390a250505050565b60046020528060005260406000206000915090508060000160009054906101000a900473ffffffffffffffffffffffffffffffffffffffff16908060010154908060020154908060030160009054906101000a900460ff16905084565b60006003600083815260200190815260200160002060040160009054906101000a900460ff169050919050565b6113b0611bac565b600260009054906101000a900473ffffffffffffffffffffffffffffffffffffffff1673ffffffffffffffffffffffffffffffffffffffff163373ffffffffffffffffffffffffffffffffffffffff1614611437576040517f344fd58600000000000000000000000000000000000000000000000000000000815260040160405180910390fd5b60006003600084815260200190815260200160002090508060040160009054906101000a900460ff16611496576040517fb4da1e3700000000000000000000000000000000000000000000000000000000815260040160405180910390fd5b6114c38160000160009054906101000a900473ffffffffffffffffffffffffffffffffffffffff1661110f565b60006114ce84610e23565b905060006064606e856114e1919061253d565b6114eb91906125ae565b905080821115611527576040517f05c4d8ac00000000000000000000000000000000000000000000000000000000815260040160405180910390fd5b60006127106101f4856001015461153e919061253d565b61154891906125ae565b9050600081856001015461155c919061229e565b905060008560040160006101000a81548160ff02191690831515021790555060016005600089815260200190815260200160002060006101000a81548160ff0219169083151502179055508460000160009054906101000a900473ffffffffffffffffffffffffffffffffffffffff1673ffffffffffffffffffffffffffffffffffffffff1663a9059cbb33836040518363ffffffff1660e01b8152600401611606929190612362565b6020604051808303816000875af1158015611625573d6000803e3d6000fd5b505050506040513d601f19601f820116820180604052508101906116499190612335565b61167f576040517f90b8ec1800000000000000000000000000000000000000000000000000000000815260040160405180910390fd5b867fcafca847a6c6645c7dd7bb55a47759cd884f49bd6e8c273f4ee701e8b81bcda033836040516116b1929190612362565b60405180910390a250505050506116c6611bf2565b5050565b6000806003600085815260200190815260200160002090508060040160009054906101000a900460ff1661172a576040517fb4da1e3700000000000000000000000000000000000000000000000000000000815260040160405180910390fd5b6117578160000160009054906101000a900473ffffffffffffffffffffffffffffffffffffffff1661110f565b600061176285610e23565b905060006064607d86611775919061253d565b61177f91906125ae565b90506000818310159050801580156117a657508360040160019054906101000a900460ff16155b1561180c5760018460040160016101000a81548160ff021916908315150217905550867fd6fcd2d687f7c7d926229f9cdc1186ba2e2c45856d211c792d8e395593c7e4e184846117f6919061238b565b6040516118039190612092565b60405180910390a25b8094505050505092915050565b600260009054906101000a900473ffffffffffffffffffffffffffffffffffffffff1681565b60066020528060005260406000206000915054906101000a900460ff1681565b611867611bac565b600260009054906101000a900473ffffffffffffffffffffffffffffffffffffffff1673ffffffffffffffffffffffffffffffffffffffff163373ffffffffffffffffffffffffffffffffffffffff16146118ee576040517f344fd58600000000000000000000000000000000000000000000000000000000815260040160405180910390fd5b60006003600084815260200190815260200160002090508060040160009054906101000a900460ff1661194d576040517fb4da1e3700000000000000000000000000000000000000000000000000000000815260040160405180910390fd5b8173ffffffffffffffffffffffffffffffffffffffff168160020160009054906101000a900473ffffffffffffffffffffffffffffffffffffffff1673ffffffffffffffffffffffffffffffffffffffff16146119d6576040517f344fd58600000000000000000000000000000000000000000000000000000000815260040160405180910390fd5b60008160010154905060008260040160006101000a81548160ff021916908315150217905550600082600101819055508160000160009054906101000a900473ffffffffffffffffffffffffffffffffffffffff1673ffffffffffffffffffffffffffffffffffffffff1663a9059cbb84836040518363ffffffff1660e01b8152600401611a65929190612362565b6020604051808303816000875af1158015611a84573d6000803e3d6000fd5b505050506040513d601f19601f82011682018060405250810190611aa89190612335565b611ade576040517f90b8ec1800000000000000000000000000000000000000000000000000000000815260040160405180910390fd5b837f757b323b5139c5e30fe0a1c4b13e38dece5aad9273138c1e3d1ed9191c6e73b28483604051611b10929190612362565b60405180910390a25050611b22611bf2565b5050565b611b2e611bfc565b600073ffffffffffffffffffffffffffffffffffffffff168173ffffffffffffffffffffffffffffffffffffffff1603611ba05760006040517f1e4fbdf7000000000000000000000000000000000000000000000000000000008152600401611b9791906120ad565b60405180910390fd5b611ba981611c83565b50565b600260005403611be8576040517f3ee5aeb500000000000000000000000000000000000000000000000000000000815260040160405180910390fd5b6002600081905550565b6001600081905550565b611c04611d49565b73ffffffffffffffffffffffffffffffffffffffff16611c22610faa565b73ffffffffffffffffffffffffffffffffffffffff1614611c8157611c45611d49565b6040517f118cdaa7000000000000000000000000000000000000000000000000000000008152600401611c7891906120ad565b60405180910390fd5b565b6000600160009054906101000a900473ffffffffffffffffffffffffffffffffffffffff16905081600160006101000a81548173ffffffffffffffffffffffffffffffffffffffff021916908373ffffffffffffffffffffffffffffffffffffffff1602179055508173ffffffffffffffffffffffffffffffffffffffff168173ffffffffffffffffffffffffffffffffffffffff167f8be0079c531659141344cd1fd0a4f28419497f9722a3daafe3b4186f6b6457e060405160405180910390a35050565b600033905090565b6040518060c00160405280600073ffffffffffffffffffffffffffffffffffffffff16815260200160008152602001600073ffffffffffffffffffffffffffffffffffffffff168152602001600081526020016000151581526020016000151581525090565b600080fd5b6000819050919050565b611dcf81611dbc565b8114611dda57600080fd5b50565b600081359050611dec81611dc6565b92915050565b60008060408385031215611e0957611e08611db7565b5b6000611e1785828601611ddd565b9250506020611e2885828601611ddd565b9150509250929050565b600060208284031215611e4857611e47611db7565b5b6000611e5684828501611ddd565b91505092915050565b60008115159050919050565b611e7481611e5f565b82525050565b6000602082019050611e8f6000830184611e6b565b92915050565b600073ffffffffffffffffffffffffffffffffffffffff82169050919050565b6000611ec082611e95565b9050919050565b611ed081611eb5565b82525050565b611edf81611dbc565b82525050565b600060c082019050611efa6000830189611ec7565b611f076020830188611ed6565b611f146040830187611ec7565b611f216060830186611ed6565b611f2e6080830185611e6b565b611f3b60a0830184611e6b565b979650505050505050565b611f4f81611eb5565b8114611f5a57600080fd5b50565b600081359050611f6c81611f46565b92915050565b600060ff82169050919050565b611f8881611f72565b8114611f9357600080fd5b50565b600081359050611fa581611f7f565b92915050565b600080600060608486031215611fc457611fc3611db7565b5b6000611fd286828701611f5d565b9350506020611fe386828701611f5d565b9250506040611ff486828701611f96565b9150509250925092565b6000806000806080858703121561201857612017611db7565b5b600061202687828801611ddd565b945050602061203787828801611f5d565b935050604061204887828801611f5d565b925050606061205987828801611ddd565b91505092959194509250565b60006020828403121561207b5761207a611db7565b5b600061208984828501611f5d565b91505092915050565b60006020820190506120a76000830184611ed6565b92915050565b60006020820190506120c26000830184611ec7565b92915050565b6120d181611eb5565b82525050565b6120e081611dbc565b82525050565b6120ef81611e5f565b82525050565b60c08201600082015161210b60008501826120c8565b50602082015161211e60208501826120d7565b50604082015161213160408501826120c8565b50606082015161214460608501826120d7565b50608082015161215760808501826120e6565b5060a082015161216a60a08501826120e6565b50505050565b600060c08201905061218560008301846120f5565b92915050565b6000819050919050565b60006121b06121ab6121a684611e95565b61218b565b611e95565b9050919050565b60006121c282612195565b9050919050565b60006121d4826121b7565b9050919050565b6121e4816121c9565b82525050565b60006080820190506121ff60008301876121db565b61220c6020830186611ed6565b6122196040830185611ed6565b6122266060830184611e6b565b95945050505050565b6000806040838503121561224657612245611db7565b5b600061225485828601611ddd565b925050602061226585828601611f5d565b9150509250929050565b7f4e487b7100000000000000000000000000000000000000000000000000000000600052601160045260246000fd5b60006122a982611dbc565b91506122b483611dbc565b92508282019050808211156122cc576122cb61226f565b5b92915050565b60006060820190506122e76000830186611ec7565b6122f46020830185611ec7565b6123016040830184611ed6565b949350505050565b61231281611e5f565b811461231d57600080fd5b50565b60008151905061232f81612309565b92915050565b60006020828403121561234b5761234a611db7565b5b600061235984828501612320565b91505092915050565b60006040820190506123776000830185611ec7565b6123846020830184611ed6565b9392505050565b600061239682611dbc565b91506123a183611dbc565b92508282039050818111156123b9576123b861226f565b5b92915050565b60008160011c9050919050565b6000808291508390505b6001851115612416578086048111156123f2576123f161226f565b5b60018516156124015780820291505b808102905061240f856123bf565b94506123d6565b94509492505050565b60008261242f57600190506124eb565b8161243d57600090506124eb565b8160018114612453576002811461245d5761248c565b60019150506124eb565b60ff84111561246f5761246e61226f565b5b8360020a9150848211156124865761248561226f565b5b506124eb565b5060208310610133831016604e8410600b84101617156124c15782820a9050838111156124bc576124bb61226f565b5b6124eb565b6124ce84848460016123cc565b925090508184048111156124e5576124e461226f565b5b81810290505b9392505050565b60006124fd82611dbc565b915061250883611dbc565b92506125357fffffffffffffffffffffffffffffffffffffffffffffffffffffffffffffffff848461241f565b905092915050565b600061254882611dbc565b915061255383611dbc565b925082820261256181611dbc565b915082820484148315176125785761257761226f565b5b5092915050565b7f4e487b7100000000000000000000000000000000000000000000000000000000600052601260045260246000fd5b60006125b982611dbc565b91506125c483611dbc565b9250826125d4576125d361257f565b5b828204905092915050565b600069ffffffffffffffffffff82169050919050565b6125fe816125df565b811461260957600080fd5b50565b60008151905061261b816125f5565b92915050565b6000819050919050565b61263481612621565b811461263f57600080fd5b50565b6000815190506126518161262b565b92915050565b60008151905061266681611dc6565b92915050565b600080600080600060a0868803121561268857612687611db7565b5b60006126968882890161260c565b95505060206126a788828901612642565b94505060406126b888828901612657565b93505060606126c988828901612657565b92505060806126da8882890161260c565b915050929550929590935056fea2646970667358221220890359560195709585a1d199d3e802649bda74e9b2bb62c58ef1b9d6915b0edc64736f6c634300081c0033",
  "linkReferences": {},
  "deployedLinkReferences": {}
}