{
  "_format": "hh-sol-artifact-1",
  "contractName": "CollateralManager",
  "sourceName": "contracts/p2pCollateral.sol",
  "abi": [
    {
      "inputs": [],
      "stateMutability": "nonpayable",
      "type": "constructor"
    },
    {
      "inputs": [],
      "name": "CollateralNotActive",
      "type": "error"
    },
    {
      "inputs": [],
      "name": "InsufficientCollateral",
      "type": "error"
    },
    {
      "inputs": [],
      "name": "InvalidParameters",
      "type": "error"
    },
    {
      "inputs": [],
      "name": "InvalidPriceFeed",
      "type": "error"
    },
    {
      "inputs": [],
      "name": "InvalidToken",
      "type": "error"
    },
    {
      "inputs": [],
      "name": "LiquidationFailed",
      "type": "error"
    },
    {
      "inputs": [
        {
          "internalType": "address",
          "name": "owner",
          "type": "address"
        }
      ],
      "name": "OwnableInvalidOwner",
      "type": "error"
    },
    {
      "inputs": [
        {
          "internalType": "address",
          "name": "account",
          "type": "address"
        }
      ],
      "name": "OwnableUnauthorizedAccount",
      "type": "error"
    },
    {
      "inputs": [],
      "name": "ReentrancyGuardReentrantCall",
      "type": "error"
    },
    {
      "inputs": [],
      "name": "StalePrice",
      "type": "error"
    },
    {
      "inputs": [],
      "name": "TransferFailed",
      "type": "error"
    },
    {
      "inputs": [],
      "name": "UnauthorizedAccess",
      "type": "error"
    },
    {
      "anonymous": false,
      "inputs": [
        {
          "indexed": true,
          "internalType": "uint256",
          "name": "loanId",
          "type": "uint256"
        },
        {
          "indexed": false,
          "internalType": "address",
          "name": "token",
          "type": "address"
        },
        {
          "indexed": false,
          "internalType": "uint256",
          "name": "amount",
          "type": "uint256"
        }
      ],
      "name": "CollateralDeposited",
      "type": "event"
    },
    {
      "anonymous": false,
      "inputs": [
        {
          "indexed": true,
          "internalType": "uint256",
          "name": "loanId",
          "type": "uint256"
        },
        {
          "indexed": false,
          "internalType": "address",
          "name": "liquidator",
          "type": "address"
        },
        {
          "indexed": false,
          "internalType": "uint256",
          "name": "amount",
          "type": "uint256"
        }
      ],
      "name": "CollateralLiquidated",
      "type": "event"
    },
    {
      "anonymous": false,
      "inputs": [
        {
          "indexed": true,
          "internalType": "uint256",
          "name": "loanId",
          "type": "uint256"
        },
        {
          "indexed": false,
          "internalType": "address",
          "name": "borrower",
          "type": "address"
        },
        {
          "indexed": false,
          "internalType": "uint256",
          "name": "amount",
          "type": "uint256"
        }
      ],
      "name": "CollateralReleased",
      "type": "event"
    },
    {
      "anonymous": false,
      "inputs": [
        {
          "indexed": true,
          "internalType": "address",
          "name": "previousOwner",
          "type": "address"
        },
        {
          "indexed": true,
          "internalType": "address",
          "name": "newOwner",
          "type": "address"
        }
      ],
      "name": "OwnershipTransferred",
      "type": "event"
    },
    {
      "anonymous": false,
      "inputs": [
        {
          "indexed": true,
          "internalType": "address",
          "name": "token",
          "type": "address"
        },
        {
          "indexed": false,
          "internalType": "uint256",
          "name": "price",
          "type": "uint256"
        }
      ],
      "name": "PriceUpdated",
      "type": "event"
    },
    {
      "anonymous": false,
      "inputs": [
        {
          "indexed": true,
          "internalType": "address",
          "name": "token",
          "type": "address"
        },
        {
          "indexed": false,
          "internalType": "address",
          "name": "priceFeed",
          "type": "address"
        },
        {
          "indexed": false,
          "internalType": "uint256",
          "name": "decimals",
          "type": "uint256"
        }
      ],
      "name": "TokenConfigured",
      "type": "event"
    },
    {
      "anonymous": false,
      "inputs": [
        {
          "indexed": true,
          "internalType": "uint256",
          "name": "loanId",
          "type": "uint256"
        },
        {
          "indexed": false,
          "internalType": "uint256",
          "name": "requiredAmount",
          "type": "uint256"
        }
      ],
      "name": "TopUpRequired",
      "type": "event"
    },
    {
      "stateMutability": "payable",
      "type": "fallback"
    },
    {
      "inputs": [
        {
          "internalType": "uint256",
          "name": "loanId",
          "type": "uint256"
        },
        {
          "internalType": "uint256",
          "name": "loanAmount",
          "type": "uint256"
        }
      ],
      "name": "checkCollateralization",
      "outputs": [
        {
          "internalType": "bool",
          "name": "",
          "type": "bool"
        }
      ],
      "stateMutability": "nonpayable",
      "type": "function"
    },
    {
      "inputs": [
        {
          "internalType": "uint256",
          "name": "",
          "type": "uint256"
        }
      ],
      "name": "collaterals",
      "outputs": [
        {
          "internalType": "address",
          "name": "token",
          "type": "address"
        },
        {
          "internalType": "uint256",
          "name": "amount",
          "type": "uint256"
        },
        {
          "internalType": "address",
          "name": "borrower",
          "type": "address"
        },
        {
          "internalType": "uint256",
          "name": "lastPrice",
          "type": "uint256"
        },
        {
          "internalType": "bool",
          "name": "isActive",
          "type": "bool"
        },
        {
          "internalType": "bool",
          "name": "requiresTopUp",
          "type": "bool"
        },
        {
          "internalType": "address",
          "name": "lendingToken",
          "type": "address"
        }
      ],
      "stateMutability": "view",
      "type": "function"
    },
    {
      "inputs": [
        {
          "internalType": "address",
          "name": "token",
          "type": "address"
        },
        {
          "internalType": "address",
          "name": "priceFeed",
          "type": "address"
        },
        {
          "internalType": "uint256",
          "name": "decimals",
          "type": "uint256"
        }
      ],
      "name": "configureToken",
      "outputs": [],
      "stateMutability": "nonpayable",
      "type": "function"
    },
    {
      "inputs": [
        {
          "internalType": "uint256",
          "name": "loanId",
          "type": "uint256"
        }
      ],
      "name": "getCollateralInfo",
      "outputs": [
        {
          "components": [
            {
              "internalType": "address",
              "name": "token",
              "type": "address"
            },
            {
              "internalType": "uint256",
              "name": "amount",
              "type": "uint256"
            },
            {
              "internalType": "address",
              "name": "borrower",
              "type": "address"
            },
            {
              "internalType": "uint256",
              "name": "lastPrice",
              "type": "uint256"
            },
            {
              "internalType": "bool",
              "name": "isActive",
              "type": "bool"
            },
            {
              "internalType": "bool",
              "name": "requiresTopUp",
              "type": "bool"
            },
            {
              "internalType": "address",
              "name": "lendingToken",
              "type": "address"
            }
          ],
          "internalType": "struct CollateralManager.CollateralInfo",
          "name": "",
          "type": "tuple"
        }
      ],
      "stateMutability": "view",
      "type": "function"
    },
    {
      "inputs": [
        {
          "internalType": "uint256",
          "name": "loanId",
          "type": "uint256"
        }
      ],
      "name": "getCollateralValue",
      "outputs": [
        {
          "internalType": "uint256",
          "name": "",
          "type": "uint256"
        }
      ],
      "stateMutability": "view",
      "type": "function"
    },
    {
      "inputs": [
        {
          "internalType": "uint256",
          "name": "loanId",
          "type": "uint256"
        },
        {
          "internalType": "address",
          "name": "borrower",
          "type": "address"
        },
        {
          "internalType": "address",
          "name": "token",
          "type": "address"
        },
        {
          "internalType": "uint256",
          "name": "amount",
          "type": "uint256"
        },
        {
          "internalType": "address",
          "name": "lendingToken",
          "type": "address"
        }
      ],
      "name": "initializeLoan",
      "outputs": [],
      "stateMutability": "payable",
      "type": "function"
    },
    {
      "inputs": [
        {
          "internalType": "uint256",
          "name": "loanId",
          "type": "uint256"
        }
      ],
      "name": "isCollateralActive",
      "outputs": [
        {
          "internalType": "bool",
          "name": "",
          "type": "bool"
        }
      ],
      "stateMutability": "view",
      "type": "function"
    },
    {
      "inputs": [
        {
          "internalType": "uint256",
          "name": "loanId",
          "type": "uint256"
        },
        {
          "internalType": "uint256",
          "name": "loanAmount",
          "type": "uint256"
        }
      ],
      "name": "liquidateCollateral",
      "outputs": [],
      "stateMutability": "nonpayable",
      "type": "function"
    },
    {
      "inputs": [
        {
          "internalType": "uint256",
          "name": "",
          "type": "uint256"
        }
      ],
      "name": "liquidatedLoans",
      "outputs": [
        {
          "internalType": "bool",
          "name": "",
          "type": "bool"
        }
      ],
      "stateMutability": "view",
      "type": "function"
    },
    {
      "inputs": [],
      "name": "marketplace",
      "outputs": [
        {
          "internalType": "address",
          "name": "",
          "type": "address"
        }
      ],
      "stateMutability": "view",
      "type": "function"
    },
    {
      "inputs": [],
      "name": "owner",
      "outputs": [
        {
          "internalType": "address",
          "name": "",
          "type": "address"
        }
      ],
      "stateMutability": "view",
      "type": "function"
    },
    {
      "inputs": [
        {
          "internalType": "address",
          "name": "",
          "type": "address"
        }
      ],
      "name": "priceFeeds",
      "outputs": [
        {
          "internalType": "contract AggregatorV3Interface",
          "name": "feed",
          "type": "address"
        },
        {
          "internalType": "uint256",
          "name": "lastUpdate",
          "type": "uint256"
        },
        {
          "internalType": "uint256",
          "name": "price",
          "type": "uint256"
        },
        {
          "internalType": "bool",
          "name": "isActive",
          "type": "bool"
        }
      ],
      "stateMutability": "view",
      "type": "function"
    },
    {
      "inputs": [
        {
          "internalType": "uint256",
          "name": "loanId",
          "type": "uint256"
        },
        {
          "internalType": "address",
          "name": "borrower",
          "type": "address"
        }
      ],
      "name": "releaseLoanCollateral",
      "outputs": [],
      "stateMutability": "nonpayable",
      "type": "function"
    },
    {
      "inputs": [],
      "name": "renounceOwnership",
      "outputs": [],
      "stateMutability": "nonpayable",
      "type": "function"
    },
    {
      "inputs": [
        {
          "internalType": "address",
          "name": "_marketplace",
          "type": "address"
        }
      ],
      "name": "setMarketplace",
      "outputs": [],
      "stateMutability": "nonpayable",
      "type": "function"
    },
    {
      "inputs": [
        {
          "internalType": "address",
          "name": "",
          "type": "address"
        }
      ],
      "name": "tokenConfigs",
      "outputs": [
        {
          "internalType": "bool",
          "name": "isActive",
          "type": "bool"
        },
        {
          "internalType": "uint256",
          "name": "decimals",
          "type": "uint256"
        },
        {
          "internalType": "address",
          "name": "priceFeed",
          "type": "address"
        }
      ],
      "stateMutability": "view",
      "type": "function"
    },
    {
      "inputs": [
        {
          "internalType": "uint256",
          "name": "loanId",
          "type": "uint256"
        },
        {
          "internalType": "uint256",
          "name": "amount",
          "type": "uint256"
        }
      ],
      "name": "topUpCollateral",
      "outputs": [],
      "stateMutability": "payable",
      "type": "function"
    },
    {
      "inputs": [
        {
          "internalType": "address",
          "name": "newOwner",
          "type": "address"
        }
      ],
      "name": "transferOwnership",
      "outputs": [],
      "stateMutability": "nonpayable",
      "type": "function"
    },
    {
      "inputs": [
        {
          "internalType": "address",
          "name": "token",
          "type": "address"
        }
      ],
      "name": "updatePrice",
      "outputs": [],
      "stateMutability": "nonpayable",
      "type": "function"
    },
    {
      "stateMutability": "payable",
      "type": "receive"
    }
  ],
  "bytecode": "0x608060405234801561001057600080fd5b50336001600081905550600073ffffffffffffffffffffffffffffffffffffffff168173ffffffffffffffffffffffffffffffffffffffff160361008c5760006040517f1e4fbdf700000000000000000000000000000000000000000000000000000000815260040161008391906101a8565b60405180910390fd5b61009b816100a160201b60201c565b506101c3565b6000600160009054906101000a900473ffffffffffffffffffffffffffffffffffffffff16905081600160006101000a81548173ffffffffffffffffffffffffffffffffffffffff021916908373ffffffffffffffffffffffffffffffffffffffff1602179055508173ffffffffffffffffffffffffffffffffffffffff168173ffffffffffffffffffffffffffffffffffffffff167f8be0079c531659141344cd1fd0a4f28419497f9722a3daafe3b4186f6b6457e060405160405180910390a35050565b600073ffffffffffffffffffffffffffffffffffffffff82169050919050565b600061019282610167565b9050919050565b6101a281610187565b82525050565b60006020820190506101bd6000830184610199565b92915050565b612d7e806101d26000396000f3fe6080604052600436106101185760003560e01c806396e85ced116100a0578063abc8c7af11610064578063abc8c7af146103e7578063b855032e14610412578063cc0206c81461042e578063e563abb514610457578063f2fde38b1461048057610119565b806396e85ced146102db5780639dcb511a146103045780639e74142914610344578063a61f31a414610381578063a98c7f5f146103aa57610119565b8063715018a6116100e7578063715018a6146101f657806373ad6c2d1461020d57806382fee08f146102365780638da5cb5b14610273578063934b5d131461029e57610119565b80630f257d8e1461011b5780631b69dc5f146101375780631c01aaab1461017657806324c1173b146101b357610119565b5b005b610135600480360381019061013091906123da565b6104a9565b005b34801561014357600080fd5b5061015e60048036038101906101599190612478565b6107aa565b60405161016d939291906124de565b60405180910390f35b34801561018257600080fd5b5061019d60048036038101906101989190612515565b610801565b6040516101aa9190612542565b60405180910390f35b3480156101bf57600080fd5b506101da60048036038101906101d59190612515565b610821565b6040516101ed979695949392919061255d565b60405180910390f35b34801561020257600080fd5b5061020b6108dd565b005b34801561021957600080fd5b50610234600480360381019061022f9190612478565b6108f1565b005b34801561024257600080fd5b5061025d60048036038101906102589190612515565b6109a3565b60405161026a91906125cc565b60405180910390f35b34801561027f57600080fd5b50610288610b2d565b60405161029591906125e7565b60405180910390f35b3480156102aa57600080fd5b506102c560048036038101906102c09190612515565b610b57565b6040516102d291906126bd565b60405180910390f35b3480156102e757600080fd5b5061030260048036038101906102fd9190612478565b610cd0565b005b34801561031057600080fd5b5061032b60048036038101906103269190612478565b610f65565b60405161033b9493929190612737565b60405180910390f35b34801561035057600080fd5b5061036b60048036038101906103669190612515565b610fc2565b6040516103789190612542565b60405180910390f35b34801561038d57600080fd5b506103a860048036038101906103a391906123da565b610fef565b005b3480156103b657600080fd5b506103d160048036038101906103cc91906123da565b611413565b6040516103de9190612542565b60405180910390f35b3480156103f357600080fd5b506103fc611562565b60405161040991906125e7565b60405180910390f35b61042c6004803603810190610427919061277c565b611588565b005b34801561043a57600080fd5b50610455600480360381019061045091906127f7565b611a4e565b005b34801561046357600080fd5b5061047e6004803603810190610479919061284a565b611d28565b005b34801561048c57600080fd5b506104a760048036038101906104a29190612478565b6120f1565b005b6104b1612177565b60006003600084815260200190815260200160002090508060040160009054906101000a900460ff16610510576040517fb4da1e3700000000000000000000000000000000000000000000000000000000815260040160405180910390fd5b8060020160009054906101000a900473ffffffffffffffffffffffffffffffffffffffff1673ffffffffffffffffffffffffffffffffffffffff163373ffffffffffffffffffffffffffffffffffffffff1614610599576040517f344fd58600000000000000000000000000000000000000000000000000000000815260040160405180910390fd5b600073ffffffffffffffffffffffffffffffffffffffff168160000160009054906101000a900473ffffffffffffffffffffffffffffffffffffffff1673ffffffffffffffffffffffffffffffffffffffff160361062f5781341461062a576040517fe523909000000000000000000000000000000000000000000000000000000000815260040160405180910390fd5b61070a565b8060000160009054906101000a900473ffffffffffffffffffffffffffffffffffffffff1673ffffffffffffffffffffffffffffffffffffffff166323b872dd3330856040518463ffffffff1660e01b81526004016106909392919061288a565b6020604051808303816000875af11580156106af573d6000803e3d6000fd5b505050506040513d601f19601f820116820180604052508101906106d391906128ed565b610709576040517f90b8ec1800000000000000000000000000000000000000000000000000000000815260040160405180910390fd5b5b81816001015461071a9190612949565b816001018190555060008160040160016101000a81548160ff021916908315150217905550827feec2f3feb835e2f2fd44281034b04700a1ddda63dd402949d470a25a7c40b36c8260000160009054906101000a900473ffffffffffffffffffffffffffffffffffffffff168460405161079592919061297d565b60405180910390a2506107a66121bd565b5050565b60066020528060005260406000206000915090508060000160009054906101000a900460ff16908060010154908060020160009054906101000a900473ffffffffffffffffffffffffffffffffffffffff16905083565b60056020528060005260406000206000915054906101000a900460ff1681565b60036020528060005260406000206000915090508060000160009054906101000a900473ffffffffffffffffffffffffffffffffffffffff16908060010154908060020160009054906101000a900473ffffffffffffffffffffffffffffffffffffffff16908060030154908060040160009054906101000a900460ff16908060040160019054906101000a900460ff16908060040160029054906101000a900473ffffffffffffffffffffffffffffffffffffffff16905087565b6108e56121c7565b6108ef600061224e565b565b6108f96121c7565b600073ffffffffffffffffffffffffffffffffffffffff168173ffffffffffffffffffffffffffffffffffffffff160361095f576040517fe523909000000000000000000000000000000000000000000000000000000000815260040160405180910390fd5b80600260006101000a81548173ffffffffffffffffffffffffffffffffffffffff021916908373ffffffffffffffffffffffffffffffffffffffff16021790555050565b6000806003600084815260200190815260200160002090508060040160009054906101000a900460ff16610a03576040517fb4da1e3700000000000000000000000000000000000000000000000000000000815260040160405180910390fd5b6000600460008360000160009054906101000a900473ffffffffffffffffffffffffffffffffffffffff1673ffffffffffffffffffffffffffffffffffffffff1673ffffffffffffffffffffffffffffffffffffffff16815260200190815260200160002090506000600660008460000160009054906101000a900473ffffffffffffffffffffffffffffffffffffffff1673ffffffffffffffffffffffffffffffffffffffff1673ffffffffffffffffffffffffffffffffffffffff168152602001908152602001600020600101549050806008610ae291906129a6565b600a610aee9190612b0d565b81600a610afb9190612b0d565b83600201548560010154610b0f9190612b58565b610b199190612bc9565b610b239190612bc9565b9350505050919050565b6000600160009054906101000a900473ffffffffffffffffffffffffffffffffffffffff16905090565b610b5f61231c565b600360008381526020019081526020016000206040518060e00160405290816000820160009054906101000a900473ffffffffffffffffffffffffffffffffffffffff1673ffffffffffffffffffffffffffffffffffffffff1673ffffffffffffffffffffffffffffffffffffffff168152602001600182015481526020016002820160009054906101000a900473ffffffffffffffffffffffffffffffffffffffff1673ffffffffffffffffffffffffffffffffffffffff1673ffffffffffffffffffffffffffffffffffffffff168152602001600382015481526020016004820160009054906101000a900460ff161515151581526020016004820160019054906101000a900460ff161515151581526020016004820160029054906101000a900473ffffffffffffffffffffffffffffffffffffffff1673ffffffffffffffffffffffffffffffffffffffff1673ffffffffffffffffffffffffffffffffffffffff16815250509050919050565b600660008273ffffffffffffffffffffffffffffffffffffffff1673ffffffffffffffffffffffffffffffffffffffff16815260200190815260200160002060000160009054906101000a900460ff16610d56576040517fc1ab6dc100000000000000000000000000000000000000000000000000000000815260040160405180910390fd5b6000600460008373ffffffffffffffffffffffffffffffffffffffff1673ffffffffffffffffffffffffffffffffffffffff16815260200190815260200160002090508060030160009054906101000a900460ff16610de1576040517f52cc3f7d00000000000000000000000000000000000000000000000000000000815260040160405180910390fd5b6000808260000160009054906101000a900473ffffffffffffffffffffffffffffffffffffffff1673ffffffffffffffffffffffffffffffffffffffff1663feaf968c6040518163ffffffff1660e01b815260040160a060405180830381865afa158015610e53573d6000803e3d6000fd5b505050506040513d601f19601f82011682018060405250810190610e779190612c87565b5093505092505060008213610eb8576040517f52cc3f7d00000000000000000000000000000000000000000000000000000000815260040160405180910390fd5b610e108142610ec791906129a6565b1115610eff576040517f19abf40e00000000000000000000000000000000000000000000000000000000815260040160405180910390fd5b8183600201819055504283600101819055508373ffffffffffffffffffffffffffffffffffffffff167f0d86730737b142fc160892fa8a0f2db687a92a0e294d1ad70624cf5acef03b8483604051610f5791906125cc565b60405180910390a250505050565b60046020528060005260406000206000915090508060000160009054906101000a900473ffffffffffffffffffffffffffffffffffffffff16908060010154908060020154908060030160009054906101000a900460ff16905084565b60006003600083815260200190815260200160002060040160009054906101000a900460ff169050919050565b610ff7612177565b600260009054906101000a900473ffffffffffffffffffffffffffffffffffffffff1673ffffffffffffffffffffffffffffffffffffffff163373ffffffffffffffffffffffffffffffffffffffff161461107e576040517f344fd58600000000000000000000000000000000000000000000000000000000815260040160405180910390fd5b60006003600084815260200190815260200160002090508060040160009054906101000a900460ff166110dd576040517fb4da1e3700000000000000000000000000000000000000000000000000000000815260040160405180910390fd5b61110a8160000160009054906101000a900473ffffffffffffffffffffffffffffffffffffffff16610cd0565b6000611115846109a3565b905060006064606e856111289190612b58565b6111329190612bc9565b90508082111561116e576040517f05c4d8ac00000000000000000000000000000000000000000000000000000000815260040160405180910390fd5b60006127106101f485600101546111859190612b58565b61118f9190612bc9565b905060008185600101546111a39190612949565b905060008560040160006101000a81548160ff02191690831515021790555060016005600089815260200190815260200160002060006101000a81548160ff021916908315150217905550600073ffffffffffffffffffffffffffffffffffffffff168560000160009054906101000a900473ffffffffffffffffffffffffffffffffffffffff1673ffffffffffffffffffffffffffffffffffffffff16036112ef5760003373ffffffffffffffffffffffffffffffffffffffff168260405161126c90612d33565b60006040518083038185875af1925050503d80600081146112a9576040519150601f19603f3d011682016040523d82523d6000602084013e6112ae565b606091505b50509050806112e9576040517f90b8ec1800000000000000000000000000000000000000000000000000000000815260040160405180910390fd5b506113c8565b8460000160009054906101000a900473ffffffffffffffffffffffffffffffffffffffff1673ffffffffffffffffffffffffffffffffffffffff1663a9059cbb33836040518363ffffffff1660e01b815260040161134e92919061297d565b6020604051808303816000875af115801561136d573d6000803e3d6000fd5b505050506040513d601f19601f8201168201806040525081019061139191906128ed565b6113c7576040517f90b8ec1800000000000000000000000000000000000000000000000000000000815260040160405180910390fd5b5b867fcafca847a6c6645c7dd7bb55a47759cd884f49bd6e8c273f4ee701e8b81bcda033836040516113fa92919061297d565b60405180910390a2505050505061140f6121bd565b5050565b6000806003600085815260200190815260200160002090508060040160009054906101000a900460ff16611473576040517fb4da1e3700000000000000000000000000000000000000000000000000000000815260040160405180910390fd5b6114a08160000160009054906101000a900473ffffffffffffffffffffffffffffffffffffffff16610cd0565b60006114ab856109a3565b905060006064607d866114be9190612b58565b6114c89190612bc9565b90506000818310159050801580156114ef57508360040160019054906101000a900460ff16155b156115555760018460040160016101000a81548160ff021916908315150217905550867fd6fcd2d687f7c7d926229f9cdc1186ba2e2c45856d211c792d8e395593c7e4e1848461153f91906129a6565b60405161154c91906125cc565b60405180910390a25b8094505050505092915050565b600260009054906101000a900473ffffffffffffffffffffffffffffffffffffffff1681565b611590612177565b600260009054906101000a900473ffffffffffffffffffffffffffffffffffffffff1673ffffffffffffffffffffffffffffffffffffffff163373ffffffffffffffffffffffffffffffffffffffff1614611617576040517f344fd58600000000000000000000000000000000000000000000000000000000815260040160405180910390fd5b600660008473ffffffffffffffffffffffffffffffffffffffff1673ffffffffffffffffffffffffffffffffffffffff16815260200190815260200160002060000160009054906101000a900460ff1661169d576040517fc1ab6dc100000000000000000000000000000000000000000000000000000000815260040160405180910390fd5b600082036116d7576040517f3a23d82500000000000000000000000000000000000000000000000000000000815260040160405180910390fd5b6116e083610cd0565b6040518060e001604052808473ffffffffffffffffffffffffffffffffffffffff1681526020018381526020018573ffffffffffffffffffffffffffffffffffffffff168152602001600460008673ffffffffffffffffffffffffffffffffffffffff1673ffffffffffffffffffffffffffffffffffffffff1681526020019081526020016000206002015481526020016001151581526020016000151581526020018273ffffffffffffffffffffffffffffffffffffffff168152506003600087815260200190815260200160002060008201518160000160006101000a81548173ffffffffffffffffffffffffffffffffffffffff021916908373ffffffffffffffffffffffffffffffffffffffff1602179055506020820151816001015560408201518160020160006101000a81548173ffffffffffffffffffffffffffffffffffffffff021916908373ffffffffffffffffffffffffffffffffffffffff1602179055506060820151816003015560808201518160040160006101000a81548160ff02191690831515021790555060a08201518160040160016101000a81548160ff02191690831515021790555060c08201518160040160026101000a81548173ffffffffffffffffffffffffffffffffffffffff021916908373ffffffffffffffffffffffffffffffffffffffff160217905550905050600073ffffffffffffffffffffffffffffffffffffffff168373ffffffffffffffffffffffffffffffffffffffff160361194e57813414611949576040517f3a23d82500000000000000000000000000000000000000000000000000000000815260040160405180910390fd5b611a05565b8273ffffffffffffffffffffffffffffffffffffffff166323b872dd8530856040518463ffffffff1660e01b815260040161198b9392919061288a565b6020604051808303816000875af11580156119aa573d6000803e3d6000fd5b505050506040513d601f19601f820116820180604052508101906119ce91906128ed565b611a04576040517f90b8ec1800000000000000000000000000000000000000000000000000000000815260040160405180910390fd5b5b847feec2f3feb835e2f2fd44281034b04700a1ddda63dd402949d470a25a7c40b36c8484604051611a3792919061297d565b60405180910390a2611a476121bd565b5050505050565b611a566121c7565b600073ffffffffffffffffffffffffffffffffffffffff168373ffffffffffffffffffffffffffffffffffffffff161480611abd5750600073ffffffffffffffffffffffffffffffffffffffff168273ffffffffffffffffffffffffffffffffffffffff16145b15611af4576040517fe523909000000000000000000000000000000000000000000000000000000000815260040160405180910390fd5b60405180606001604052806001151581526020018281526020018373ffffffffffffffffffffffffffffffffffffffff16815250600660008573ffffffffffffffffffffffffffffffffffffffff1673ffffffffffffffffffffffffffffffffffffffff16815260200190815260200160002060008201518160000160006101000a81548160ff0219169083151502179055506020820151816001015560408201518160020160006101000a81548173ffffffffffffffffffffffffffffffffffffffff021916908373ffffffffffffffffffffffffffffffffffffffff16021790555090505060405180608001604052808373ffffffffffffffffffffffffffffffffffffffff1681526020014281526020016000815260200160011515815250600460008573ffffffffffffffffffffffffffffffffffffffff1673ffffffffffffffffffffffffffffffffffffffff16815260200190815260200160002060008201518160000160006101000a81548173ffffffffffffffffffffffffffffffffffffffff021916908373ffffffffffffffffffffffffffffffffffffffff160217905550602082015181600101556040820151816002015560608201518160030160006101000a81548160ff0219169083151502179055509050508273ffffffffffffffffffffffffffffffffffffffff167f89c24e29a335b0ee9aa8de8451e121013f7fc351b4842663c50f80ae6a3826a98383604051611d1b92919061297d565b60405180910390a2505050565b611d30612177565b600260009054906101000a900473ffffffffffffffffffffffffffffffffffffffff1673ffffffffffffffffffffffffffffffffffffffff163373ffffffffffffffffffffffffffffffffffffffff1614611db7576040517f344fd58600000000000000000000000000000000000000000000000000000000815260040160405180910390fd5b60006003600084815260200190815260200160002090508060040160009054906101000a900460ff16611e16576040517fb4da1e3700000000000000000000000000000000000000000000000000000000815260040160405180910390fd5b8173ffffffffffffffffffffffffffffffffffffffff168160020160009054906101000a900473ffffffffffffffffffffffffffffffffffffffff1673ffffffffffffffffffffffffffffffffffffffff1614611e9f576040517f344fd58600000000000000000000000000000000000000000000000000000000815260040160405180910390fd5b60008160010154905060008260040160006101000a81548160ff02191690831515021790555060008260010181905550600073ffffffffffffffffffffffffffffffffffffffff168260000160009054906101000a900473ffffffffffffffffffffffffffffffffffffffff1673ffffffffffffffffffffffffffffffffffffffff1603611fd05760008373ffffffffffffffffffffffffffffffffffffffff1682604051611f4d90612d33565b60006040518083038185875af1925050503d8060008114611f8a576040519150601f19603f3d011682016040523d82523d6000602084013e611f8f565b606091505b5050905080611fca576040517f90b8ec1800000000000000000000000000000000000000000000000000000000815260040160405180910390fd5b506120a9565b8160000160009054906101000a900473ffffffffffffffffffffffffffffffffffffffff1673ffffffffffffffffffffffffffffffffffffffff1663a9059cbb84836040518363ffffffff1660e01b815260040161202f92919061297d565b6020604051808303816000875af115801561204e573d6000803e3d6000fd5b505050506040513d601f19601f8201168201806040525081019061207291906128ed565b6120a8576040517f90b8ec1800000000000000000000000000000000000000000000000000000000815260040160405180910390fd5b5b837f757b323b5139c5e30fe0a1c4b13e38dece5aad9273138c1e3d1ed9191c6e73b284836040516120db92919061297d565b60405180910390a250506120ed6121bd565b5050565b6120f96121c7565b600073ffffffffffffffffffffffffffffffffffffffff168173ffffffffffffffffffffffffffffffffffffffff160361216b5760006040517f1e4fbdf700000000000000000000000000000000000000000000000000000000815260040161216291906125e7565b60405180910390fd5b6121748161224e565b50565b6002600054036121b3576040517f3ee5aeb500000000000000000000000000000000000000000000000000000000815260040160405180910390fd5b6002600081905550565b6001600081905550565b6121cf612314565b73ffffffffffffffffffffffffffffffffffffffff166121ed610b2d565b73ffffffffffffffffffffffffffffffffffffffff161461224c57612210612314565b6040517f118cdaa700000000000000000000000000000000000000000000000000000000815260040161224391906125e7565b60405180910390fd5b565b6000600160009054906101000a900473ffffffffffffffffffffffffffffffffffffffff16905081600160006101000a81548173ffffffffffffffffffffffffffffffffffffffff021916908373ffffffffffffffffffffffffffffffffffffffff1602179055508173ffffffffffffffffffffffffffffffffffffffff168173ffffffffffffffffffffffffffffffffffffffff167f8be0079c531659141344cd1fd0a4f28419497f9722a3daafe3b4186f6b6457e060405160405180910390a35050565b600033905090565b6040518060e00160405280600073ffffffffffffffffffffffffffffffffffffffff16815260200160008152602001600073ffffffffffffffffffffffffffffffffffffffff16815260200160008152602001600015158152602001600015158152602001600073ffffffffffffffffffffffffffffffffffffffff1681525090565b600080fd5b6000819050919050565b6123b7816123a4565b81146123c257600080fd5b50565b6000813590506123d4816123ae565b92915050565b600080604083850312156123f1576123f061239f565b5b60006123ff858286016123c5565b9250506020612410858286016123c5565b9150509250929050565b600073ffffffffffffffffffffffffffffffffffffffff82169050919050565b60006124458261241a565b9050919050565b6124558161243a565b811461246057600080fd5b50565b6000813590506124728161244c565b92915050565b60006020828403121561248e5761248d61239f565b5b600061249c84828501612463565b91505092915050565b60008115159050919050565b6124ba816124a5565b82525050565b6124c9816123a4565b82525050565b6124d88161243a565b82525050565b60006060820190506124f360008301866124b1565b61250060208301856124c0565b61250d60408301846124cf565b949350505050565b60006020828403121561252b5761252a61239f565b5b6000612539848285016123c5565b91505092915050565b600060208201905061255760008301846124b1565b92915050565b600060e082019050612572600083018a6124cf565b61257f60208301896124c0565b61258c60408301886124cf565b61259960608301876124c0565b6125a660808301866124b1565b6125b360a08301856124b1565b6125c060c08301846124cf565b98975050505050505050565b60006020820190506125e160008301846124c0565b92915050565b60006020820190506125fc60008301846124cf565b92915050565b61260b8161243a565b82525050565b61261a816123a4565b82525050565b612629816124a5565b82525050565b60e0820160008201516126456000850182612602565b5060208201516126586020850182612611565b50604082015161266b6040850182612602565b50606082015161267e6060850182612611565b5060808201516126916080850182612620565b5060a08201516126a460a0850182612620565b5060c08201516126b760c0850182612602565b50505050565b600060e0820190506126d2600083018461262f565b92915050565b6000819050919050565b60006126fd6126f86126f38461241a565b6126d8565b61241a565b9050919050565b600061270f826126e2565b9050919050565b600061272182612704565b9050919050565b61273181612716565b82525050565b600060808201905061274c6000830187612728565b61275960208301866124c0565b61276660408301856124c0565b61277360608301846124b1565b95945050505050565b600080600080600060a086880312156127985761279761239f565b5b60006127a6888289016123c5565b95505060206127b788828901612463565b94505060406127c888828901612463565b93505060606127d9888289016123c5565b92505060806127ea88828901612463565b9150509295509295909350565b6000806000606084860312156128105761280f61239f565b5b600061281e86828701612463565b935050602061282f86828701612463565b9250506040612840868287016123c5565b9150509250925092565b600080604083850312156128615761286061239f565b5b600061286f858286016123c5565b925050602061288085828601612463565b9150509250929050565b600060608201905061289f60008301866124cf565b6128ac60208301856124cf565b6128b960408301846124c0565b949350505050565b6128ca816124a5565b81146128d557600080fd5b50565b6000815190506128e7816128c1565b92915050565b6000602082840312156129035761290261239f565b5b6000612911848285016128d8565b91505092915050565b7f4e487b7100000000000000000000000000000000000000000000000000000000600052601160045260246000fd5b6000612954826123a4565b915061295f836123a4565b92508282019050808211156129775761297661291a565b5b92915050565b600060408201905061299260008301856124cf565b61299f60208301846124c0565b9392505050565b60006129b1826123a4565b91506129bc836123a4565b92508282039050818111156129d4576129d361291a565b5b92915050565b60008160011c9050919050565b6000808291508390505b6001851115612a3157808604811115612a0d57612a0c61291a565b5b6001851615612a1c5780820291505b8081029050612a2a856129da565b94506129f1565b94509492505050565b600082612a4a5760019050612b06565b81612a585760009050612b06565b8160018114612a6e5760028114612a7857612aa7565b6001915050612b06565b60ff841115612a8a57612a8961291a565b5b8360020a915084821115612aa157612aa061291a565b5b50612b06565b5060208310610133831016604e8410600b8410161715612adc5782820a905083811115612ad757612ad661291a565b5b612b06565b612ae984848460016129e7565b92509050818404811115612b0057612aff61291a565b5b81810290505b9392505050565b6000612b18826123a4565b9150612b23836123a4565b9250612b507fffffffffffffffffffffffffffffffffffffffffffffffffffffffffffffffff8484612a3a565b905092915050565b6000612b63826123a4565b9150612b6e836123a4565b9250828202612b7c816123a4565b91508282048414831517612b9357612b9261291a565b5b5092915050565b7f4e487b7100000000000000000000000000000000000000000000000000000000600052601260045260246000fd5b6000612bd4826123a4565b9150612bdf836123a4565b925082612bef57612bee612b9a565b5b828204905092915050565b600069ffffffffffffffffffff82169050919050565b612c1981612bfa565b8114612c2457600080fd5b50565b600081519050612c3681612c10565b92915050565b6000819050919050565b612c4f81612c3c565b8114612c5a57600080fd5b50565b600081519050612c6c81612c46565b92915050565b600081519050612c81816123ae565b92915050565b600080600080600060a08688031215612ca357612ca261239f565b5b6000612cb188828901612c27565b9550506020612cc288828901612c5d565b9450506040612cd388828901612c72565b9350506060612ce488828901612c72565b9250506080612cf588828901612c27565b9150509295509295909350565b600081905092915050565b50565b6000612d1d600083612d02565b9150612d2882612d0d565b600082019050919050565b6000612d3e82612d10565b915081905091905056fea264697066735822122026b32eeaa63d1a00a5fe8b9e1886de4e1ba9f289e127ed3840cb3ceb6375f52064736f6c634300081c0033",
  "linkReferences": {},
  "deployedLinkReferences": {}
}